:100000000C94C5020C940C030C940C030C940C037C
:100010000C940C030C940C030C940C030C940C0324
:100020000C940C030C940C030C940C030C942A28D1
:100030000C94DB280C94F9220C940C030C940C0304
:100040000C940C030C940C030C940C030C94502390
:100050000C940C030C940C030C940C030C940C03E4
:100060000C940C030C940C030C940C030C940C03D4
:100070000C940C03290014001A0008001500170046
:100080001C0018000C00120013002A002B61040051
:100090001600070009000A000B000D000E000F00FB
:1000A00033002800E1001D001B00060019000500B8
:1000B0001100100036003700520038000251E300F2
:1000C000E200000000002C41000000000000500091
:1000D0004F005100350034000100520001000100C2
:1000E000010001002400250026004C003900010019
:1000F000500051004F000100540056002100220022
:1001000023002800E1002D002E002F0030003100D8
:10011000550057001E001F002000E5000100E3000D
:10012000E2000000000001000000000000002700C5
:10013000630000003A003B003C003D003E0023000D
:100140004000410042004300440045000000000020
:10015000000000000000000000000000000000009F
:100160000000A90000000000000000000000005C8A
:1001700000000000000000000000AA0001000000D4
:1001800000000000000000000000000000004C0023
:10019000E600E4000100010001000100010001008F
:1001A0000100010001000100010001000100010047
:1001B0000100010001000100010001000100010037
:1001C0000100010001000100010001000100010027
:1001D0000100010001000100010001000100010017
:1001E000010000000000010000000000000001000C
:1001F0000100010000000000000000002A2B280080
:1002000000000000000000000000000000000029C5
:10021000000000002C1E3420212224342627252E05
:10022000362D3738271E1F2021222324252633333D
:10023000362E37381F0405060708090A0B0C0D0E69
:100240000F101112131415161718191A1B1C1D2F35
:100250003130232D350405060708090A0B0C0D0E55
:100260000F101112131415161718191A1B1C1D2F15
:100270003130354C0000000000000000000000009C
:10028000000000000000000000000000000000006E
:1002900000000000000000007E0F00D4FFFFFFC739
:1002A00000000078FD377A585A000004E6D6B446BC
:1002B0000200210116000000742FE5A3E003D6011F
:1002C000605D003D8889C65436C3174FE4E2A42020
:1002D000CE85859456F211440CB1900C8636AF420F
:1002E00088EFEA6D085CB9A26346431E3AAEA707E1
:1002F000627DEE2860704420FE9D848AD1C3444410
:10030000412D7311762DDA17C2219D5CB686B77127
:10031000BD9E8AFBDCD7D617D5D4A7DD565740F84B
:1003200002D2769C7005209D64B3C49B678E0DC578
:10033000D311DFE6C1A2A9A27E93FA351C55682627
:10034000F599DAF9825FCAA7E3249DB257EA95BA14
:10035000EF0924E9404617FEDF65E15514359E9507
:10036000F8C496FDFB4066B775171CE6D11176D030
:10037000053CD31CDE7A5C05C25C83ABA03B032149
:10038000A988B7D27030D6266706618DF4FA0B279C
:10039000590000BBDDB2FA4C4D4071D548E6EC2067
:1003A000ECD25B9E17D04303DEDC42D1C4CCE652D4
:1003B000CB353AE1E3C065BFF34FAFA0CD66E4842F
:1003C0000315C0A2DE576A3A02D1262CC010421093
:1003D0007BA41305CEEBC2742A04843FAF5FF87888
:1003E000B511CE762D415C723B91F4C38D9BB02E3E
:1003F000DC74A329E61B6305CDD2DFE7005C3EE198
:10040000EA114E96AE105165054019CEACA6F0B576
:100410002CDCE4A433EBCD51357DB3D196816E98BD
:100420001AB96700638F66FCF9DD55300001FC02E4
:10043000D70700007AC90965B1C467FB0200000054
:100440000004595A1C037600690061006C003A00F0
:10045000660036003400630032006200330063003F
:1004600000000A036D006200340034000000140331
:100470006D0065006C006F006E0062007200650028
:10048000640000000403090409025B00030100A0EA
:10049000FA09040000010301010009211101000112
:1004A0002240000705810308000A09040100020335
:1004B000000000092111010001222200070582032A
:1004C00020000107050303200001090402000103C5
:1004D00000000009211101000122320007058403F8
:1004E00020000A1201100100000008626D626D0117
:1004F00000010203010660FF0961A1010962150004
:1005000026FF009520750881020963150026FF006B
:10051000952075089102C005010980A10185031984
:10052000012AB700150126B700950175108100C09A
:10053000050C0901A101850419012AA00215012653
:10054000A002950175108100C005010906A10105F1
:100550000719E029E7150025019508750181029525
:1005600001750881010507190029FF150026FF0004
:10057000950675088100050819012905950575017D
:100580009102950175039101C00011241FBECFEFA8
:10059000D4E0DEBFCDBF04B603FE27C0809179034F
:1005A00090917A03A0917B03B0917C038730904BAC
:1005B000A740B04BD1F41092790310927A031092B5
:1005C0007B0310927C0314BE84B7877F84BF0FB671
:1005D000F894A895809160008861809360001092E3
:1005E00060000FBEE0E0F8E3099511E0A0E0B1E0A3
:1005F000E4EFF6E502C005900D92A83AB107D9F7ED
:1006000023E0A8EAB1E001C01D92A937B207E1F7E3
:100610000E9400250C94462B0C940000CF93DF938E
:100620009C013A9521153F4168F5EC01CC27D1702A
:10063000DC01AA27B270AC01442754709C01222728
:10064000387094FF11C080E1CD2B09F480E0AB2B12
:1006500009F08062452B09F08064232B09F0806843
:10066000FB01DF91CF91099481E0CD2B09F480E06B
:10067000AB2B09F08260452B09F08460232B81F3BA
:100680008860EECFDF91CF910895CF93DF93EC0197
:10069000805E9109089720F067E27BE1209711F4D2
:1006A0006AEA78E1CE010E940E038C2FDF91CF9190
:1006B0000C941D18CF93DF93EC010E946318CE01B8
:1006C000805E9109089720F06EE27BE1209711F49B
:1006D00061EB78E1CE01DF91CF910C940E0381E0C4
:1006E000089581E008950C94710308950C947503A6
:1006F0001F93CF93DF9300D000D00F92CDB7DEB71A
:1007000049835A836B833091FF0189819A8131112A
:100710001DC06623B9F02223A9F00E94D81F182F0C
:10072000682F89819A810E946F1F69817A81812F48
:100730000F900F900F900F900F90DF91CF911F911E
:100740000C9471100E94A81F182FEFCF0E94D81F81
:1007500069817A81EDCFFC01262F40815181628130
:10076000738184810C947803CF93DF93EC0160E074
:100770000E94AB03BE01DF91CF910C9476038F9260
:100780009F92AF92BF92CF92DF92EF92FF920F9320
:100790001F936B017C0181E090E0A0E0B0E04C0190
:1007A0005D0104C0880C991CAA1CBB1C4A95D2F799
:1007B000B501A4014C015D0104C0880C991CAA1C60
:1007C000BB1C2A95D2F7482959296A297B2904C0DC
:1007D000880F991FAA1FBB1F0A95D2F78A019B0198
:1007E0000C211D212E213F2104171507260737074D
:1007F00089F48C299D29AE29BF29BC01CD011F9107
:100800000F91FF90EF90DF90CF90BF90AF909F90AF
:100810008F90089580959095A095B0958C219D21FD
:10082000AE21BF21EACF0F93382F262F60915602B9
:10083000709157028091580290915902042F432FD2
:100840000E94BF030F910C94AD1E0E9470070C9480
:1008500095070E943C160E94C0130C9498070895B7
:100860000E94471B0E942F042FEF84E39CE021503D
:1008700080409040E1F700C000000C9474230F9377
:100880001F93CF93DF93EC018B010E949015B80169
:10089000CE010E948509882309F448C0B801CE0121
:1008A0000E947303882309F441C0B801CE010E945D
:1008B000D8158823D9F1B801CE010E94E713882307
:1008C000A9F1B801CE010E94F011882379F1B80195
:1008D000CE010E944212882349F1B801CE010E9444
:1008E0006513882319F1F8018281882361F0CA35E4
:1008F000FDE5DF0721F170F4C115ECE5DE07A1F09D
:10090000CE3DDC45C9F0C801DF91CF911F910F9119
:100910000C946F03CB358DE5D807A1F0CC35DD45C0
:1009200091F70E94A720EFCF0E94300480E0DF9172
:10093000CF911F910F9108950E944C22F7CF0E94F2
:10094000B020E1CF0E94B320DECFCF93DF93EC0144
:1009500061E00E94AB03BE01DF91CF910C943F0494
:10096000DF92EF92FF920F931F93CF93DF93E82FC5
:10097000F0E0EC50FE4FD490282F26952695269532
:1009800030E0F901EC56FD4F0491877010E0082E1D
:1009900002C0159507950A94E2F701701127F90135
:1009A000EC57FD4FE490F12C082E02C0F594E7942B
:1009B0000A94E2F791E0E922FF24F901EC58FD4F97
:1009C000C491D0E002C0D595C7958A95E2F7C17071
:1009D000DD270115110519F081EE0E941D18E114A3
:1009E000F10419F086EE0E941D188D2D0E94A218A8
:1009F000EF2819F086EE0E946318012B19F081EEA2
:100A00000E946318CD2B51F08CE2DF91CF911F91A2
:100A10000F91FF90EF90DF900C94A218DF91CF918F
:100A20001F910F91FF90EF90DF900895EF92FF924A
:100A30001F93CF93DF93EC01162F8881882309F44D
:100A400051C0813009F04BC08981813099F47E0119
:100A500022E0E20EF11C8A810E94A218E701219691
:100A6000812F815050F3EFE9FFE03197F1F700C09B
:100A70000000F7CF823041F47E0182E0E80EF11CE5
:100A80008A810E941D18EACF833041F47E01E2E0A2
:100A9000EE0EF11C8A810E946318E0CF843011F0C1
:100AA0002196DDCF2A81229690E080E0FE013196EA
:100AB0002053330B2A30310548F0019780F2EFE9DB
:100AC000FFE03197F1F700C00000F7CF6AE070E077
:100AD0000E94962A820F931F2981EF01E7CF0E947F
:100AE000B004BDCFDF91CF911F91FF90EF9008959B
:100AF00060E00C94160508950C947B0581E0089540
:100B00000C947E05CF93C82F0E947C058C2FCF912B
:100B10000C948005CF93DF930E9471100E947E0693
:100B2000EC01811522E59207E8F5811531E593077F
:100B300008F0B1C0883E910510F5803E910570F532
:100B4000883A910570F4853A910508F07BC08130B0
:100B5000910521F1009711F1049700F5D0E0C0E074
:100B60001DC08F3B9105D0F7C85AD0E0CC0FDD1FD8
:100B7000C95EDE4F0990D881C02DD4640FC08115A5
:100B800040E5940708F069C0C11580E4D80708F073
:100B900061C0CE019A9581159F4100F7CE01DF918A
:100BA000CF910895811536E5930730F5811545E518
:100BB000940708F08BC0C11584E5D80708F081C000
:100BC0009C2F969596959E0123703327C115D3458A
:100BD00008F466C0C1E0D0E002C0CC0FDD1F2A954A
:100BE000E2F7892F90E075E0880F991F7A95E1F779
:100BF000C82BD92BDA68D2CFC1158AE5D80778F48B
:100C0000C11529E5D20708F06BC0C11538E5D30737
:100C100008F4A4CFDC2FCC27C06FD06ABFCFCE01A1
:100C200090568115904208F099CF8D2F8F710E94B8
:100C3000150790E0982F882788279F719C012C2BFF
:100C4000E9014CC0C55AD0E0CB5BDE4FC881D0E093
:100C5000D064A4CFDF70D06AA1CFA4E09695879529
:100C6000AA95E1F783702C2F26952695237030E006
:100C7000B5E0220F331FBA95E1F7382B8C2F837024
:100C8000C1E0D0E002C0CC0FDD1F8A95E2F7C22B95
:100C9000D32BDC6883CFD82FCC27C16FD06A7ECF0F
:100CA000C1E0D0E002C0CC0FDD1F2A95E2F7892F0A
:100CB00090E0E5E0880F991FEA95E1F7C82BD92B62
:100CC000E8CFDC2FCC27C46FD06A68CF0E9415070D
:100CD000C82FD0E0DC2FCC27CC27DF71D0625ECFCD
:100CE0008C2F8F700E94150734E0D695C7953A95E2
:100CF000E1F7CF709C2FEC01D06950CF823891057D
:100D0000B1F1B0F48133910509F475C048F489322A
:100D1000910509F469C08A32910509F473C00895F8
:100D20008533910509F459C08933910501F108957E
:100D3000833E9105A9F138F4803E9105F9F0823E99
:100D4000910549F10895863E9105A9F1873E9105E7
:100D5000C9F1843E910519F520917D0221FF1FC044
:100D600080917C0284FD14C087EE90E0089520916C
:100D70007C022370A1F080EE90E0089520917C0227
:100D800020FD47C030917D0230FF09C024FF44C0E0
:100D900090E080E004C020917C0222FDF7CF08950E
:100DA00020917C0222FD3BC030917D0230FDE3CFDB
:100DB00024FFF5CFEDCF20917C0223FFF0CF24FD5F
:100DC000E7CFD2CF20917C0223FD2CC030917D0251
:100DD00031FFEECF84EE90E0089520917C0225FF54
:100DE000DECF89E290E0089520917C0225FFD7CFE5
:100DF00085E390E0089520917C0226FFD0CF8AE21F
:100E000090E0089520917C0226FFC9CF81E390E015
:100E1000089589E390E0089583EE90E0089582EECE
:100E200090E0089586EE90E0089590917C0292FF04
:100E300006C0282F28712830F9F4877F846093FF3B
:100E400006C0282F28712831F1F4877E8461209113
:100E50007D0220FF06C0382F38713830D9F4877FE3
:100E6000816021FF06C0282F28712831D1F4877EA8
:100E7000816194FD877E0895282F24712430F9F62E
:100E80008B7F8860DCCF282F2471243101F78B7E83
:100E90008861DDCF382F3171313019F78E7F88604E
:100EA000E0CF282F2171213121F78E7E8861E1CF9B
:100EB0000C945F090E9417088FE39CE90197F1F7F2
:100EC00000C000000E94170880E00E94B00780FF69
:100ED00004C00E9458070C94742308950C945A0778
:100EE0000E94A721811102C00E944C220E94B221BF
:100EF000809370020E94BA2190937D0280937C02BD
:100F00000E946E070E94B621682F70E090E080E09A
:100F10000E94711E60915602709157028091580292
:100F2000909159020C94AB1E08950C949407089567
:100F30000C949707E82FF0E0EE0FFF1FEA57FD4FE4
:100F400021E030E002C0220F331F6A95E2F7808172
:100F500091812823392381E0232B09F480E008952F
:100F6000E82FF0E0EE0FFF1FEA57FD4F80819181DF
:100F70000895089580EA8A95F1F7089500C00895CC
:100F80000C94BA07F894E82FE295EF70F0E031A1E5
:100F9000282F2F7081E090E001C0880F2A95EAF792
:100FA000982F9095932391A392A1892B82A3789453
:100FB0000895CF93DF9381E90E94C20786E90E94DA
:100FC000C20785E90E94C20784E90E94C207C8E4FB
:100FD000D1E089910E94C20781E0C435D807C9F7E2
:100FE00010927F0210927E02109287021092860267
:100FF000109281021092800210928902109288024F
:10100000109283021092820210928B0210928A0236
:10101000109285021092840210928D0210928C021E
:1010200084E00E949708DF91CF910C942504AF9241
:10103000BF92DF92EF92FF920F931F93CF93DF93B4
:10104000C4E5D1E00EE712E0D12CEE24E394F12CBC
:101050008991F894E82FE295EF70F0E021A18F706C
:10106000A70102C0440F551F8A95E2F7CA01922FCB
:10107000982B91A392A18095892382A378940E94B2
:10108000BE07E8E4F1E030E020E0B12CA12C419172
:10109000A42FA295AF70B0E090968C9190E04F7025
:1010A00002C0959587954A95E2F780FD3BC0C70140
:1010B000022E02C0880F991F0A94E2F7A82AB92AC3
:1010C0002F5F3F4F2C30310511F7FE0131978081A2
:1010D0000E94C2070E94C007F80180819181A81672
:1010E000B90619F1B182A08281E0D82A0E5F1F4FA4
:1010F000F1E0C835DF0709F0ABCF2D2D44E066E8FD
:1011000072E08EE792E00E9498080E9429048D2DDB
:10111000DF91CF911F910F91FF90EF90DF90BF90E3
:10112000AF90089590E080E0C9CF80E0DECF0895D1
:10113000FF920F931F93CF93DF93F82E092F162F53
:10114000D72FC42F222349F081E08093AC010E9465
:1011500029239093AB018093AA018091AC0188234D
:10116000A1F08091AA019091AB010E9441230697C2
:1011700060F0EF2DF02FA12FBD2F90E080E0D0E0A8
:101180008C179D0744F01092AC01DF91CF911F9115
:101190000F91FF900895219131912D933D930196E8
:1011A000EFCF81E008950C94D10853985B9A529840
:1011B0005A9A89B183FB882780F94A9905C090E043
:1011C000892B8093AF01089592E0FACFE091AF01AF
:1011D000EE0FEE0FE093AF0149B143FB882780F992
:1011E00049B142FB222720F942FF02C022E030E051
:1011F000822BE82BE093AF01EF70F0E0E85AFE4F4E
:1012000080819091AE01890F8093AE0120E08430FF
:1012100054F08091AD018F5F8093AD0160E080E07C
:101220000E94D30821E08091AE018D3F54F480915B
:10123000AD0181508093AD0161E080E00E94D30850
:1012400021E08091AE01082E000C990B64E070E063
:101250000E94A72A8093AE01822F089583E290E036
:101260000E94FC2A873889F484E290E00E94FC2ADC
:10127000873659F485E290E00E94FC2A91E0883597
:1012800009F090E0892F8170089580E0FCCFCF9322
:10129000C82F6FEF811167E883E290E00E940A2B6C
:1012A0006FEFC11167E684E290E00E940A2B6FEFB6
:1012B000C11168E585E290E0CF910C940A2B80E0A3
:1012C0000E9447090C94A121089586E290E00E94B3
:1012D000FC2A682F70E090E080E0089586E290E0BC
:1012E0000C940A2B0E9464090E942E0981110CC0E3
:1012F00060E070E0CB010E946E090E94360F0E94F0
:10130000E41081E00C9447090895CF93FB01C2815A
:10131000CC2309F19C0122513F452031310520F5B4
:1013200082510E94F410C0E08C2FCF91089581E08B
:101330000E94D31E43E062E081E00E941304F3CFD9
:1013400081E00E94F41E43E062E081E00E94130409
:10135000EBCF82E0F6CF8031FFE59F0789F3813143
:101360009F45B9F3C1E0E0CF8031EFE59E07F9F288
:1013700081319F45C9F682E0DBCF2FEFFC0120834E
:101380000895EF92FF920F931F93CF93DF93EC0199
:10139000162F88812091C6013091C701232B79F047
:1013A0008E3F09F05CC08981833020F08550833006
:1013B00008F055C0612FCE010E94C80C50C08B3080
:1013C00009F4EBC0D0F4843009F489C060F48230B1
:1013D00009F44FC008F076C08130F1F1612FCE01E1
:1013E0000E94BD093CC0863009F48FC008F482C059
:1013F0008A30A0F78FEF888332C0803109F4A5C00E
:1014000000F58D3009F488C008F482C08E3009F4EC
:101410008BC08F3019F78091C8019091C901892B39
:10142000F1F06B8170E06D317105C8F489819A81AA
:10143000AE014C5F5F4F9827892798270E94B9100B
:101440000EC0823109F487C008F482C0833109F4E8
:1014500093C08E3F19F6AECF198289E08A83612F3F
:10146000CE01DF91CF911F910F91FF90EF900C94DF
:1014700008248981823071F0833079F0813009F05D
:10148000ADCF0E9435230E94C12A6A837B838C835F
:101490009D83E5CF0E946509F6CF8091C8019091A8
:1014A000C901892BE1F27E0100E0802F0E94B00784
:1014B000F701928383830F5FF2E0EF0EF11C04309B
:1014C000A1F7CDCF8981823009F088CF6A817B81F5
:1014D0008C819D810E94C12A0E946E09C0CF4B81E0
:1014E0006A8189810E94940E9827892798279D8375
:1014F0008C83B5CF2C813D813227232732274B8126
:101500006A8189810E94B60EAACF0E94360FA7CFAA
:101510000E948D108983A3CF0E948F10982789275E
:1015200098279A8389839BCF6B8170E06D31710519
:1015300008F095CF89819A81AE014C5F5F4F982763
:10154000892798270E9492108ACF0E94E41087CFA3
:101550000E947B0EDFCF6B8170E06D31710508F06A
:101560007ECF89819A81AE014C5F5F4F9827892792
:1015700098270E94B90F73CF6B8170E06D317105B0
:1015800008F06DCF89819A81AE014C5F5F4F98273B
:10159000892798270E94DF0F62CF8091C801909120
:1015A000C901892B09F45BCFCE010E9408242FEFDB
:1015B00081EE94E0215080409040E1F700C00000AF
:1015C0000E9474234CCF8F929F92AF92BF92CF9282
:1015D000DF92EF92FF920F931F93CF93DF93CDB7DC
:1015E000DEB72A970FB6F894DEBF0FBECDBF0EE868
:1015F00012E0F12CE12C8FEFC82E8BE0D82E99E26F
:10160000A92E9CE0B92E28E6822E2BE0922EF8011E
:10161000D182C082B382A28295828482F58AE48AD2
:10162000BE016F5F7F4F8E2D0E94DE0E892B29F445
:1016300089859A85F801938B828BFFEFEF1AFF0A59
:101640000A5E1F4F88E0E816F10409F72A960FB6E4
:10165000F894DEBF0FBECDBFDF91CF911F910F91E8
:10166000FF90EF90DF90CF90BF90AF909F908F90C2
:101670000895CF93DF9300D000D00F92CDB7DEB79F
:101680009093670380936603811520E2920748F4E4
:101690000F900F900F900F900F90DF91CF910C94BF
:1016A0005A038EEF89838A831B820E9429238160DB
:1016B000782F9D838C8349815A816B818D810F9016
:1016C0000F900F900F900F90DF91CF910C94D71740
:1016D0000F931F93CF93DF938C01EB0160EB71E0CD
:1016E0008C2F0E94DE0E892BA1F48FE39CE90197D9
:1016F000F1F700C00000DD27C654DE4F8881F801F5
:1017000010821882833009F148F4813059F0823018
:1017100081F0DF91CF911F910F9108958430D1F026
:101720008530B9F78091B0019091B101009789F3AC
:1017300006C08091B2019091B301009799F3DF91B7
:10174000CF911F910F910C94390B8091B40190911E
:10175000B501F3CF8091B6019091B701009779F769
:101760002091B0013091B1018091B2019091B3010B
:1017700021153105D9F2009711F7C901E0CFCF93B8
:10178000DF9300D000D00F92CDB7DEB79093670300
:1017900080936603811520E2920748F40F900F9022
:1017A0000F900F900F90DF91CF910C9445038EEF27
:1017B00089838A8381E08B830E9429238160782F2B
:1017C0009D838C8349815A816B818D810F900F900D
:1017D0000F900F900F90DF91CF910C94D717CF936C
:1017E000DF93EC010E94BF0B8FE39CE90197F1F7B7
:1017F00000C00000CE01DF91CF910C94390B0F9304
:101800001F93CF93DF938C01862F60EB71E00E94D2
:10181000DE0E892BC9F4C091B001D091B10120979F
:1018200099F0F8018081833069F4CE010E94EF0BBA
:10183000CE010E94EF0BCE01DF91CF911F910F914E
:101840000C94EF0B8430B8F7DF91CF911F910F917B
:1018500008950F931F93CF93DF938C01EB0160EBFF
:1018600071E08C2F0E94DE0E892B09F064C0FE010E
:10187000FF27D8018C91E654FE4F8130D9F4199698
:101880009C911997992311F080830CC01A969C9112
:101890009923D1F382E080838091B2019091B301CA
:1018A0000097D9F48091B0019091B101009709F4AB
:1018B00042C013C08230E9F519968C9119978111B5
:1018C0002DC01A968C9181110EC083E08083809187
:1018D000B4019091B501009719F1DF91CF911F915B
:1018E0000F910C94BF0B84E080838091B60190919E
:1018F000B701009791F78091B0019091B1010097E5
:10190000F9F00E94EF0B8091B2019091B301009722
:1019100021F78091B0019091B101DFCF85E0808304
:101920008091B0019091B101009729F00E94EF0BD6
:10193000F0CF86E08083DF91CF911F910F910895C2
:101940008091B2019091B301B1CF0E94E30AEEE31E
:10195000F3E01182108281E090E09683858382E03B
:1019600090E09387828783E090E0908B878784E084
:1019700090E0958B848B85E090E0928F818F86E05C
:1019800090E0978F868F87E090E094A383A30895DB
:10199000CF92DF92FF920F931F93CF93DF93CDB738
:1019A000DEB72A970FB6F894DEBF0FBECDBF8C010D
:1019B000603269F5DC011196EC911197EE3038F543
:1019C000F0E0E85BF44D0C94BB2A88E0EFE0F1E036
:1019D000DE01119601900D928A95E1F780E2F801FF
:1019E00011928A95E9F784E0D8018C9311961C92A4
:1019F000119712961C92129713961C92139788E0D7
:101A0000FE013196149601900D928A95E1F72A967F
:101A10000FB6F894DEBF0FBECDBFDF91CF911F91FF
:101A20000F91FF90DF90CF90089580EAF8018083B6
:101A300081E0818312821382EACF13968C911397EF
:101A4000682F70E0762F662712968C91860F972F5D
:101A5000911D092E000CAA0BBB0B45E0880F991FA6
:101A6000AA1FBB1F4A95D1F7AC01BD01405E5F4F75
:101A70006F4F7F4F481759076A077B0740F2803A3C
:101A8000E1E09E07A105B10510F6413AF1E05F07DC
:101A90006105710520F040EA51E060E070E0481B0C
:101AA000590BBC016C557D4FC8010E94DC2AAFCF99
:101AB00040E250E06FEF70E00E94E52A8091C8019B
:101AC000D8018C938091C60111968C931197129630
:101AD0001C92129713961C92139781E014968C9384
:101AE00014978BE015968C9392CF81E090E09093C1
:101AF000C7018093C60182E390E09093C501809373
:101B0000C4010E9429239093C3018093C2017FCF17
:101B10008091C6019091C701892B91F160E080E02E
:101B20000E949A07D82E6BE081E00E949A07F82E57
:101B30008091C2019091C3010E9441238536910595
:101B400050F1DD2041F1FF2031F10E9429239093D3
:101B5000C3018093C2018091C4019091C501019796
:101B60009093C5018093C401892B51F41092C70151
:101B70001092C60181E090E09093C9018093C80162
:101B80008091C801F80180838091C6018183809192
:101B9000C40182833CCF82E390E09093C50180939F
:101BA000C401EECF1092C9011092C80130CF40E2BB
:101BB00050E06FEF70E02A960FB6F894DEBF0FBECC
:101BC000CDBFDF91CF911F910F91FF90DF90CF900C
:101BD0000C94E52A12968C911297823009F440C039
:101BE000E8F4882399F1813009F011CFF80183815D
:101BF0002AE0F22E9E012F5F3F4F6901D901EF2DA0
:101C00001D92EA95E9F7B9010E94DE0ED8018D9385
:101C1000F60101900D92FA94E1F7F9CE8330A9F123
:101C2000843009F0F4CE13968C919AE0F801349642
:101C3000DE01119601900D929A95E1F7BE016F5F5A
:101C40007F4F0E94200FF8018083E1CE80E2F801EF
:101C500011928A95E9F788E08C9311968C93D7CEF0
:101C600013968C919AE0F8013496DE01119601905A
:101C70000D929A95E1F7BE016F5F7F4F0E94F40EBF
:101C8000F80180830E94E30AC2CE13968C919AE0F9
:101C9000F92EFE0131966F01DF01EF2D1D92EA95BD
:101CA000E9F7B6010E940A0FB1CF1F93CF93DF93DC
:101CB000CDB7DEB72A970FB6F894DEBF0FBECDBF03
:101CC000162FBE016F5F7F4F0E940A0F892B31F4E0
:101CD00089859A85112361F00E94BF0B2A960FB661
:101CE000F894DEBF0FBECDBFDF91CF911F91089555
:101CF0000E94390BF3CF84E00895E82F862F90E0FF
:101D000068E170E00E94962A242F30E0220F331FF2
:101D1000280F391F8E2F90E060E670E00E94962A0F
:101D2000820F931F879608950F931F93CF93DF938E
:101D30008430C8F46430B8F44C30A8F40E947D0EAE
:101D40008C010E94FC2AC82FD0E0DC2FCC27C801D0
:101D500001960E94FC2A9E01282BC901DF91CF9198
:101D60001F910F91089590E080E0F8CF0F931F939B
:101D7000CF93DF93E9018430E0F46430D0F44C3049
:101D8000C0F421153C4531F42091C8013091C901BE
:101D9000232B79F00E947D0E8C016D2F0E940A2B5F
:101DA0006C2FC8010196DF91CF911F910F910C9478
:101DB0000A2BDF91CF911F910F9108959B018830DD
:101DC00080F490E06AE070E00E94962ABC016955B8
:101DD0007E4F4AE050E0C9010E94EC2A90E080E08A
:101DE00008958FEF9FEF08959B01883080F490E075
:101DF0006AE070E00E94962ABC0169557E4F4AE075
:101E000050E0C9010E942E2B90E080E008958FEFF2
:101E10009FEF08959B01883080F490E06AE070E0C5
:101E20000E94962ABC0169507E4F4AE050E0C901E9
:101E30000E94EC2A90E080E008958FEF9FEF0895D4
:101E40009B01883080F490E06AE070E00E94962A5E
:101E5000BC0169507E4F4AE050E0C9010E942E2B20
:101E600090E080E008958FEF9FEF08957F928F922A
:101E70009F92AF92BF92CF92DF92EF92FF920F9319
:101E80001F93CF93DF93CDB7DEB764970FB6F89467
:101E9000DEBF0FBECDBFA090C801B090C90181E0E8
:101EA00090E09093C9018093C80184E7C82E80E038
:101EB000D82E00E0760110E015C0F4012591349190
:101EC000472D612F802F0E94B60E82E0880E911C54
:101ED00073949CE07912F1CFE8E1EE0EF11C1F5FE4
:101EE000143019F04701712CE8CF0F5FF0E6CF0EE8
:101EF000D11C0430F9F61C861B861E861D86188AA6
:101F00001F861A8A198A88EC90E09C8B8B8B10E0D4
:101F1000BE01655F7F4F812F0E94F40E1F5F183056
:101F2000B9F7CE0101967C018AE0F70111928A95FA
:101F3000E9F710E0B701812F0E94200F1F5F1830D2
:101F4000C9F7B092C901A092C80164960FB6F8947F
:101F5000DEBF0FBECDBFDF91CF911F910F91FF90DC
:101F6000EF90DF90CF90BF90AF909F908F907F9039
:101F70000895EF92FF920F931F93CF93DF93EC019D
:101F80008A017C01E60EF71ECE018796CE15DF058D
:101F900039F4DF91CF911F910F91FF90EF90089549
:101FA000C03821E0D20740F40E94FC2AF801808367
:101FB0000F5F1F4F2196E8CFF8011082F9CF4F92A3
:101FC0005F926F927F928F929F92AF92BF92CF92C9
:101FD000DF92EF92FF920F931F93CF93DF93EC0169
:101FE0007B018A0180389140D8F480E891E08C1B15
:101FF0009D0B86179707A0F03E0137E2630E711C18
:102000008091C8019091C9012E01460E571E892B5F
:10201000C1F07E01C7018796E414F50409F050C0B1
:10202000DF91CF911F910F91FF90EF90DF90CF90B4
:10203000BF90AF909F908F907F906F905F904F90E8
:1020400008956E0181E0C822DD24C0FF0FC0CE01DB
:1020500086960E94FC2AF801908189279827892773
:1020600081159C4519F48FEFF8018083570140FEDC
:1020700013C0F1E0AF1AB10848018A0C9B1CC301E0
:102080008E0D9F1D0E94FC2AF401908181159C45B4
:1020900019F48FEFF4018083F801EC0DFD1D2FEF93
:1020A000CA14DB0408F0B5CF9081818181159C456D
:1020B00011F42083218382E0C80ED11C3296F0CF28
:1020C000E0E8EE16E1E0FE0640F4F701EC1BFD0B44
:1020D000E00FF11F60810E940A2BFFEFEF1AFF0A49
:1020E00099CF462F2091C6013091C701232B91F43F
:1020F0007E3F39F46E3F71F48091660390916703DF
:102100000895843038F4743028F46C3018F4672F54
:102110000C94940E90E080E0089580E1089589EB9E
:1021200091E00895EF92FF920F931F93CF93DF9367
:10213000EC018A017C01E60EF71ECE01895B9D4F02
:10214000CE15DF0539F4DF91CF911F910F91FF90EC
:10215000EF900895C93B21E0D20740F40E94FC2A89
:10216000F80180830F5F1F4F2196E7CFF80110829F
:10217000F9CFCF92DF92EF92FF920F931F93CF93FD
:10218000DF937C016A018C01060F171FEC01CE0161
:10219000895B9D4FC017D10749F4DF91CF911F9103
:1021A0000F91FF90EF90DF90CF900895C93B21E011
:1021B000D20740F4FE01EE19FF09EC0DFD1D608110
:1021C0000E940A2B2196E3CFCF93DF93C7E4D2E09E
:1021D00060E0CE010E940A2B2196C11584E0D80749
:1021E000B9F7DF91CF910895CF92DF92EF92FF92EE
:1021F0000F931F93CF93DF9300D000D0CDB7DEB7FE
:10220000F82E2FE0281740F08FEF93E00E94FC2A71
:1022100007E412E08823C9F00F900F900F900F9001
:10222000DF91CF911F910F91FF90EF90DF90CF90B2
:102230000895011544E0140779F3C8010E94FC2AAF
:10224000811101C0FA940F5F1F4FF110F2CF198274
:102250001A821B821C8278015FEFE51AF50AC80119
:102260000E94FC2A89831A828823B1F2813009F006
:1022700045C0680182E0C80ED11CC7010E94FC2A3B
:10228000E82E8A83882341F2C6010E94FC2AF82E98
:102290008FEF8E0D833068F46801E3E0CE0ED11C21
:1022A000FB82FF2021F0CE0101960E947805860175
:1022B000D2CFF4E0EF12FBCF680124E0C20ED11CB4
:1022C000C80103960E94FC2AFF2009F4A5CF8823A9
:1022D00009F4A2CF8150990B6FEF70E00E94962A0B
:1022E0004F2D4150550B840F951F019700F3EFE9D7
:1022F000FFE03197F1F700C00000F7CFCE01019663
:102300000E9478056701D3CF0F931F93CF93DF937C
:10231000C42FD22FFC0182818823C9F04093CC01C5
:102320000E9429239093CB018093CA0180E28C0FF5
:10233000883008F050C0C77081E001C0880FCA958E
:10234000EAF7DF91CF911F910F910C94AA18109189
:10235000CC01141335C08091CA019091CB010E9429
:102360004123883C910560F5C0E2CD0F1D17B9F0FF
:1023700080E2810F883040F4177081E001C0880F3F
:102380001A95EAF70E94B118C83048F481E09D2FF1
:10239000977001C0880F9A95EAF70E94AA18802FBB
:1023A0000E94A218C830B8F4D77081E001C0880F2D
:1023B000DA95EAF7DF91CF911F910F910C94B11844
:1023C00080E28C0F883038F4C77081E001C0880F3C
:1023D000CA95EAF7EFCFDF91CF911F910F91089542
:1023E0000F939C01CB01233F4CE5340759F1A8F42E
:1023F000283DFCE53F0701F1293D4CE53407D1F1CB
:10240000273D3C4591F406E221EE41EE67ED7CE587
:102410000E94841180E00F910895253FFCE53F075D
:10242000E9F0B0F0263F3C45F9F0FC0182818823B9
:1024300039F11092CC01EFCF07E225EE45EE68EDC1
:102440007CE5E6CF06E221EE40EE63EF7CE5E0CFEF
:1024500007E225EE44EE64EF7CE5DACF06E221EEFA
:1024600042EE65EF7CE5D4CF07E225EE46EE66EF5F
:102470007CE5CECF08E221E045EE69ED7CE5C8CFF2
:1024800081E0C9CFCF93DF93EC01FB0182818823E8
:1024900009F419C1C230FCE5DF07C0F1C6319CE583
:1024A000D90730F09E012A5F3C452930310570F58F
:1024B0000E94BA2190937D0280937C02C031ECE5AA
:1024C000DE0709F4CFC008F05BC0C8308CE5D80740
:1024D00009F4B6C088F5C430ECE5DE0709F4A8C0FD
:1024E000C0F4C2308CE5D80709F49CC080917C020E
:1024F0008260C330DC4509F498C080917C029091E1
:102500007D020E94C8210E94471B80E0DF91CF918D
:10251000089580917C028061C630ECE5DE0709F405
:1025200084C080917C028860C730DC4508F47DC09F
:1025300080917C02806279C0CC308CE5D80709F4A8
:1025400089C070F480917C028C60CA30ECE5DE07B3
:1025500009F46BC008F478C080917C028E7F65C05E
:10256000CE308CE5D80709F479C080917C028B7F4E
:10257000CF30DC4508F459C080917C028F7E55C075
:10258000CB3FECE5DE0709F457C030F5C3318CE5ED
:10259000D80709F46FC078F4C131ECE5DE0709F41F
:1025A00065C0C231DC4509F0A8CF0E94471B80916D
:1025B0007C028F773AC0C5318CE5D80709F462C038
:1025C00008F476C080917D028160CA3FDC4509F045
:1025D00094CF80937D0291CFCF3FFCE5DF0709F4D4
:1025E0004DC088F480917D028D7FCD3F9CE5D90759
:1025F00081F380917D028E7FCE3FDC4550F3809148
:102600007D028360E6CFC130FDE5DF0709F459C0E4
:1026100008F444C080E0C230DD4509F06ECF0E946E
:102620004E226BCF80917C02816080937C0265CFCB
:1026300080917C028460F9CF80917D028260C9CF55
:1026400080917C028064F1CF0E94471B80917C02C4
:102650008068EBCF80917C028D7FE7CF80917C02F8
:10266000877FE3CF80917C028F7DDFCF80917C02DA
:102670008F7BDBCF80917C02837FD7CF80917D02DF
:102680008C7FA7CF80917C0282FB992790F921E073
:10269000922790FB82F990FB83F9C7CF80917D024E
:1026A000982F909591708E7F892B90FB81F991CF17
:1026B0000E94471B90917C02892F97FB87F98058D5
:1026C000B4CF81E0ACCF81E021CFCF93DF93EB019A
:1026D00086319C4511F50E94B6209A81992399F084
:1026E0008A7A91E009F490E09093CD01811109C0BC
:1026F00089E20E9448200E94212180E0DF91CF9151
:10270000089585E3F6CF8091CD01811104C089E25F
:102710000E944F20F0CF85E3FBCF81E0EFCFEEE3C7
:10272000F3E083E0E636F80739F488E090E0909330
:10273000DF018093DE010895848187FF148235963E
:10274000F0CFCF939091DC01992321F0811116C035
:102750001092DC01CF910895EC2FF0E0EE0FFF1FF7
:10276000E253FE4F808191810E9445030E94212106
:10277000CF5F8091DC01C81778F3EACFC0E0F9CFD2
:1027800080910001882381F08091E0019091E10126
:10279000009751F00E944123893C910528F081E087
:1027A0000E94A1130C948F130895109200011092AF
:1027B000E1011092E00181E00C94A11380910001ED
:1027C00081110C94D51381E08093000108953F920C
:1027D0004F925F926F927F928F929F92AF92BF9231
:1027E000CF92DF92EF92FF920F931F93CF93DF93DD
:1027F000CDB7DEB72A970FB6F894DEBF0FBECDBFB8
:102800007C015B01873F4CE5940701F5FB011281D8
:10281000112389F181E080930001812F2A960FB660
:10282000F894DEBF0FBECDBFDF91CF911F910F9106
:10283000FF90EF90DF90CF90BF90AF909F908F90E0
:102840007F906F905F904F903F900895883FFCE598
:102850009F0739F4FB011281112369F00E94D513FF
:10286000DCCF893F9C4539F4FB011281112319F01B
:102870000E94DE13D2CF5090000111E0552069F282
:102880001092DF011092DE0110E088248394912CD5
:1028900044244394C090DE01D090DF01F8E0CF16CD
:1028A000D10480F08091DD01882309F4BBC00E942F
:1028B00029239093E1018093E0011092DD0181E0F2
:1028C0001827ABCFC60165E070E00E94962A825CB3
:1028D0009C4FBE016F5F7F4FFC0180810E940A0FF9
:1028E000892B61F000E0102B8091DE019091DF01D7
:1028F00001969093DF018093DE01CCCFFE013196EB
:1029000090E080E033243A94282F41915191411571
:10291000510581F1E416F50609F4382E019684304C
:10292000910591F724E0FFEF3F16E1F2F5010281F6
:10293000C60165E070E00E94962A825C9C4F3C01D3
:10294000FC018481A40102C0440F551F2A95E2F7BF
:102950009A0121503109002389F1A40101C0440FDB
:102960003A94EAF7842B84838F778217130631F029
:10297000052DB9CF823008F4B5CFD5CF80E00E94C5
:10298000A113F301848180688483C60165E070E04F
:102990000E94962A825C9C4FFC0182819381009761
:1029A00029F00E9445034092DD019DCF61E08091B6
:1029B000DE019091DF010E94550EF5CF8F778217CF
:1029C000130631F482819381009721F10E945A030A
:1029D000C60165E070E00E94962AFC01E25CFC4FB3
:1029E0008481482F50E0032C02C0559547950A94E6
:1029F000E2F740FF77CF940101C0220F3A94EAF743
:102A000020952823248327FF6DCF203809F0B0CFED
:102A10001482AECF60E08091DE019091DF010E94D0
:102A2000550ED6CF111106C081E00E94A1130E945D
:102A30008F1345CFF5018281882309F440CF0E948E
:102A400029239093E1018093E001E091DC01E730DC
:102A500008F035CF81E08E0F8093DC01F0E0EE0FBF
:102A6000FF1FE253FE4FF182E08229CFCF93DF9325
:102A7000EC0181E0898B8F810E94B92088850E94BA
:102A8000CC200E942121EA81FB81309739F06C89AA
:102A90007D89CE010696DF91CF910994DF91CF9188
:102AA00008950F931F93CF93DF93EC018A858111D3
:102AB00032C00B811C811755C80166E170E00E948D
:102AC000962ADC01A257BD4F1496ED91FC91159703
:102AD000309731F054966D917C918C569D4F0995AD
:102AE000C80166E170E00E94962A8C0102571D4FD2
:102AF000F80187810E94BF20F80180850E94D220C2
:102B00000E942121188219861B861E821D82109226
:102B1000E3011092E201DF91CF911F910F9108958F
:102B2000DF92EF92FF920F931F93CF93DF937C017D
:102B3000FB018281882391F0809101018F3F71F028
:102B4000CEE8D2E010E000E0DD24D39480910101D2
:102B5000082E000C990B8017910744F4DF91CF9158
:102B60001F910F91FF90EF90DF9008958E81882341
:102B7000D9F089859A858E159F0539F48091E201F7
:102B80009091E3018E159F0579F0DF86FC86EB8638
:102B90008989811103C0CE010E943615CE010696A7
:102BA0000E9451150E94D9200F5F1F4F6696CECF0D
:102BB000EF92FF920F931F93CF93DF937C01FB0162
:102BC0008C0117550F3F110511F008F03EC08091A0
:102BD0000101082E000C990B8017910714F4009343
:102BE00001012281C80166E170E00E94962AEC0191
:102BF000C257DD4F288B92818E81992371F1FA861D
:102C0000E9868F5F8E830E9429239E878D870E948D
:102C1000DF208F830E94B62088870E94C920988574
:102C2000892B8887E881F981309759F02C893D8973
:102C3000C80166E170E00E94962AB9018C569D4F4A
:102C40000995F092E301E092E20181E0DF91CF91FA
:102C50001F910F91FF90EF9008958823B1F3898918
:102C6000882399F3C80166E170E00E94962A8C5689
:102C70009D4F0E945115E9CFEF92FF921F93CF9382
:102C8000DF938091010110E08F3FE9F5DF91CF9153
:102C90001F91FF90EF900895CE0166E170E00E94D1
:102CA000962A82579D4FFC01E288F388E114F104D3
:102CB00019F488ECE82EF12CCE0166E170E00E9458
:102CC000962AFC01E257FD4F86818823D9F085853D
:102CD00096850E944123E816F906A0F4CE0166E12C
:102CE00070E00E94962A7C0182579D4FFC018189E9
:102CF000811103C0CF010E943615C7018C569D4F2C
:102D00000E9451151F5FC12FD0E080910101082E54
:102D1000000C990B8C179D070CF0BECFB7CF90938A
:102D2000E9018093E8010895E091E801F091E9015B
:102D3000309721F00190F081E02D099480E0089512
:102D4000E091E801F091E901309721F00280F381F0
:102D5000E02D099408952091E6013091E7012817AC
:102D6000390771F09093E7018093E601E091E80163
:102D7000F091E901309721F00680F781E02D099468
:102D800008952091E4013091E5012817390771F089
:102D90009093E5018093E401E091E801F091E9016D
:102DA000309721F00084F185E02D099408950E9468
:102DB00035236093FB017093FC018093FD01909398
:102DC000FE016093F7017093F8018093F9019093ED
:102DD000FA0108950E9435236093FB017093FC0172
:102DE0008093FD019093FE016093F3017093F401D1
:102DF0008093F5019093F6010895089508950C9439
:102E0000FD1608950C9401178FE991E20E94982312
:102E10000E94A50C0E94FE160C94FF1681E00895F6
:102E20000C940E17089508950E9412170C9413170E
:102E30000E9420230E94D9070E9472090E94D5088F
:102E40000C9402178F929F92AF92BF92CF92DF9213
:102E5000EF92FF920F931F93CF93DF93CDB7DEB71F
:102E60002A970FB6F894DEBF0FBECDBF0E94170899
:102E700081110E94D7165BEE852E51E0952E10E051
:102E800000E0A02E802F0E94B0076C01F401E190B9
:102E9000F1904F01E816F90609F45FC080917002C5
:102EA00081FD0E94B907C7018C259D25B12CEE2418
:102EB000E394F12C9C012E213F21232B09F447C0E0
:102EC0000E9410178823A9F0BE82AF82CE20DF2097
:102ED00081E0CD2809F480E088870E942923816061
:102EE000782F9A8789874E815F8168858A850E94BD
:102EF000D717000F111FF801E551FE4F8081918116
:102F0000E826F926F182E0820E94E60881110E94FB
:102F1000EA160E9494169091EA018917A9F10E947D
:102F200094168093EA012A960FB6F894DEBF0FBE7E
:102F3000CDBFDF91CF911F910F91FF90EF90DF9068
:102F4000CF90BF90AF909F908F900C948205B394D8
:102F5000EE0CFF1CFCE0BF12ADCF0F5F1F4F043023
:102F6000110509F08ECF8FEF89838A831B820E941F
:102F700029238160782F9D838C8349815A816B81BD
:102F80008D810E94D717C0CF2A960FB6F894DEBF66
:102F90000FBECDBFDF91CF911F910F91FF90EF90AA
:102FA000DF90CF90BF90AF909F908F900895CF9279
:102FB000DF92FF920F931F93CF93DF93CDB7DEB7CE
:102FC0002B970FB6F894DEBF0FBECDBF7A878B87E5
:102FD000F42E052F162FCA84DB8461110E94D9209C
:102FE0001E821D82F9820A831B83DD82CC820E94AD
:102FF0007820882319F082E00E9483210E945F20BC
:1030000081110E94132149815A816B817C818D81BC
:103010009E812B960FB6F894DEBF0FBECDBFDF9119
:10302000CF911F910F91FF90DF90CF900C94C31D13
:10303000FC01808191810C941A20CF93C82F8823A2
:1030400009F43FC08CEF8C0F813AA0F46C2F809173
:103050000201909103010E946522882329F08C2FA0
:103060000E944F200E9421218C2F0E944820CF9146
:103070000C94212180E28C0F883048F4C77081E0E5
:1030800001C0880FCA95EAF70E94B920F0CFEBE59E
:10309000EC0FE33040F4F0E0EA56FE4F808190E020
:1030A000CF910C94AB16C85AC73158F4EC2FF0E00E
:1030B000EE0FFF1FE859FE4F80819181CF910C9454
:1030C000C116CF910895882329F19CEF980F913A6A
:1030D00020F40E944F200C94212190E2980F983008
:1030E00050F4877091E001C0990F8A95EAF7892F13
:1030F0000E94BF20F0CF9BE5980F933020F490E022
:1031000080E00C94AB16885A873120F490E080E080
:103110000C94C11608951F93CF93DF93182FEB01E2
:103120000E941D18209731F4812FDF91CF911F91BC
:103130000C9463188FE99FE00197F1F700C000003D
:103140002197F0CF6AE070E0893311F460E570E018
:103150000C948B18882321F00E94B9200C94212113
:103160000895882321F00E94BF200C942121089506
:10317000BF92CF92DF92EF92FF920F931F93CF9364
:10318000DF936C01D62FC72FFC01028115811295A8
:103190001F700E948E20E82E8823A1F0E02E0023CD
:1031A00089F08C2F807F803429F080E28D0FE12C14
:1031B000883040F082E00E9483210E948E2091E0BE
:1031C000E82EE926BC2EB2949FE0B922FBE0FB1565
:1031D00098F1EB2DF0E0EA5AF44D0C94BB2A1C2F29
:1031E0001F70C07F11F01295107F0023A9F01123EA
:1031F00059F080E28D0F883010F0D11109C0812F75
:103200000E94B9200E9421218D2F0E941D1814C0F8
:10321000812F0E94CC20F6CF8D2F0E94631811239E
:1032200059F080E28D0F883010F0D1112BC0812F22
:103230000E94BF200E942121EB2DE850FF0B349704
:1032400020F40E9494160E948205EE2009F4B6C173
:103250000E94742080FDB2C1F60112820E946E208D
:103260000E94D31EC6010E94FF1A0E946E20DF91A9
:10327000CF911F910F91FF90EF90DF90CF90BF9073
:103280000C94F41E812F0E94D220D4CF2C2F2F70AB
:10329000F22EC07FC03219F0F29480EFF822DD23C5
:1032A00071F0D130E9F1002309F444C0112301F198
:1032B000F601858180FFA8CF8F70858319C0002318
:1032C000C9F0111106C00E94DF208F290E94AA18A0
:1032D000B3CF113031F40E94DF208F290E94FB20F0
:1032E000ABCF153081F70E9413218F2D0E94E5206E
:1032F0008F2DECCF111106C00E9413218F2D0E943B
:10330000B1189ACF113041F40E94B6208F2109F4F0
:1033100093CF0E94EE20F0CF153009F48DCFECCF83
:10332000002321F0163008F087CFE2CF153008F0E7
:1033300083CFE4CF112311F3D93309F037C1FFEF65
:1033400027EE33E0F15020403040E1F700C00000AC
:103350008D2F0E94631870CF8C2F86958695837071
:1033600069F0813009F068CF8D2F9C2F9370011187
:1033700002C090E080E00E94C1165ECF8D2F9C2F8E
:103380009370011102C090E080E00E94AB1654CF10
:103390008C2F837009F041C001114ECF4D2F429503
:1033A00046954770440F440F0D2F0F7010E030E02A
:1033B00020E0042E04C0000F111F221F331F0A94A7
:1033C000D2F760E070E0CB01D4FF0FC06FE070E097
:1033D00080E090E004C0660F771F881F991F4A9510
:1033E000D2F76095709580959095C695C695C370F7
:1033F000602B712B822B932BC23049F058F4C130D3
:1034000019F00E94851E18CF0E94731E15CF0E94CE
:10341000971E12CF0E94711E0FCF8695002311F0C8
:103420008C2F8170882309F407CF4D2F4295469544
:103430004770440F440F0D2F0F7010E030E020E074
:10344000042E04C0000F111F221F331F0A94D2F74D
:1034500060E070E0CB01D4FF0FC06FE070E080E06F
:1034600090E004C0660F771F881F991F4A95D2F716
:103470006095709580959095C695C695C370602BA4
:10348000712B822B932BC23049F058F4C13019F0C4
:103490000E944A1FD1CE0E94381FCECE0E945C1FD0
:1034A000CBCE0E94AD1EC8CECF70002329F08C2F4A
:1034B0000E94D31E8D2F0ACF8D2F0E94B1188C2F02
:1034C0000E94F41EB9CED23FC9F160F4D03F09F199
:1034D000D13F69F1002309F45DC0111195CE8C2F05
:1034E0008F7129C0D33F79F1D43FA1F7002309F4AC
:1034F0003FC00E945C200E94BF200E947420843044
:1035000061F50E947A218C2F8F710E94F41EE12CAC
:1035100093CE002341F0153008F08ECE8C2F8F71A2
:103520000E94171F89CE163008F086CEF7CF8C2F59
:103530008F71002329F20E94D31E7ECE8C2F8F71B3
:103540000023C9F3BDCF002329F08C2F8F710E9477
:10355000BE1E72CE0E94B91E6FCE1530C0F6CF715E
:103560008C2F0E94D31E63E08C2F0E945E21CFCF50
:103570000E945C200E94B920153040F00E947A2100
:103580000E94EE2064E08C2F8F71EFCF81E00E94CB
:103590008321BDCF112379F0D93341F49FEFE7EEBA
:1035A000F3E09150E040F040E1F7D0CE8FE39CE9AA
:1035B0000197F1F7CBCE8C2F8F7182CFDF91CF9116
:1035C0001F910F91FF90EF90DF90CF90BF900895E3
:1035D0000F931F93CF93DF93EC01688179818A81E8
:1035E0000E9424208C010E946E1F0E94701EB80150
:1035F000CE01DF91CF911F910F910C94B818CF930A
:10360000DF93EC018B819C81892B29F08881998142
:1036100089238F3F59F4DF91CF910895CE010E9405
:10362000E81ACE01DF91CF910C94B403CE010E9431
:10363000A5048111F3CF0E948E20882361F38A8133
:10364000882349F382E0DF91CF910C948321882372
:1036500021F00E94CC200C9421210895882321F090
:103660000E94D2200C942121089590E080E00E94D5
:10367000AB1690E080E00E94C1160E94D9200E9403
:10368000DC200C9421210E9456200C94351B0E94B2
:10369000C6200C94431BE92FE295EF70E250EE3008
:1036A00070F4F0E0EE59F44D0C94BB2A803F19F011
:1036B00020F4883E20F481E00895843FE1F380E027
:1036C0000895883EC0F3813FD1F7F5CF93FB88275B
:1036D00080F908950E941A200C944B1BCF93DF931E
:1036E00000D000D00F92CDB7DEB70F900F900F90A3
:1036F0000F900F90DF91CF910895CF93DF9300D07B
:1037000000D000D0CDB7DEB726960FB6F894DEBF56
:103710000FBECDBFDF91CF910895CF93DF93C091BE
:103720000002809101028C1303C0DF91CF910895B4
:10373000D0E0CE0166E070E00E94962AFC01EE5FC8
:10374000FD4F4081518162817381848195810E9406
:103750007D1B2196C770E5CF409132025091330214
:103760006091340270913502809136029091370257
:103770000C947D1B1F93CF93DF9380913702807F42
:10378000A1F480913402882381F020910002B0914D
:10379000010240913202A0913302C0913502D091D2
:1037A0003602142F1A23B21304C0DF91CF911F9158
:1037B000089530E0209711F01F3F21F42F5F3F4F15
:1037C0002770F1CFC90166E070E00E94962AFC01E3
:1037D000EE5FFD4F81818A13F1CF80818413EECF9C
:1037E00082818111EBCF838194818C1B9D0B883C5E
:1037F000910520F7809137028F70806180933702A6
:10380000C90166E070E00E94962AFC01E95FFD4F65
:1038100090819F709061908382E392E00E94FF1AF2
:10382000DF91CF911F910C948D1BAF92BF92CF92DD
:10383000DF92EF92FF920F931F93CF93DF93CDB759
:10384000DEB761970FB6F894DEBF0FBECDBF8C0117
:1038500085E0F801DE011D9601900D928A95E1F751
:10386000F80140812181E28082E3C82E82E0D82ED7
:1038700060913502709136026115710509F464C1D9
:103880009091320230913302892F83238F3F09F4C4
:103890005BC1A380B480F0903402F501E61BF70B06
:1038A000FF2009F4FEC080913702582F507FE83C7A
:1038B000F10508F0B3C051117AC0FE2C321323C0B9
:1038C000941321C0E1101FC08F7080618093370274
:1038D0000E94AC1BC6010E94FF1A80913702F801BA
:1038E00085838F2D61960FB6F894DEBF0FBECDBFD6
:1038F000DF91CF911F910F91FF90EF90DF90CF90CC
:10390000BF90AF900895AB2829F0842F82238F3F7A
:1039100009F036C180E0F82FF170DF2EE09100024F
:103920003091010280FD20C0EE20D9F28091370253
:10393000816080933702F12CD4CFF0E0CF0166E0B4
:1039400070E00E94962ADC01AE5FBD4F11968C910B
:103950001197821307C08C91841304C012968C9126
:103960008E11E2CF3196E770E313E7CF4D872E87B4
:103970008D859E850E941A20292F22952F70223036
:1039800050F0243078F49F7051F0F8019581907FC9
:1039900031F4D12C0AC09F7011F08823D1F3805EDE
:1039A0008830B8F3C8010E94FF1AFD2C9ACF321359
:1039B00006C0941304C0F801EE2009F48EC04D87B0
:1039C0002E878D859E850E946A1B882319F1EE2023
:1039D00009F180913702803270F0209132023091EB
:1039E000330238872F831986BB86AA868C87CE013F
:1039F00007960E94FF1A86E0F801A2E3B2E0019068
:103A00000D928A95E1F70E94BA1B0E94AC1BFF241D
:103A1000F39467CFC8010E94FF1AF9CF511114C067
:103A20007A2DB98AA88A522F6E2D89890E946E1B21
:103A300082E392E00E94FF1A86E0F60111928A95D5
:103A4000E9F70E94AC1B77CF32130FC094130DC05F
:103A5000E1100BC0F8018583C8010E94FF1A86E0BF
:103A6000F60111928A95E9F73CCF4D872E878D8517
:103A70009E850E946A1B882369F2EE2059F280918C
:103A80003702803208F4B7CF2091320230913302EE
:103A90003A8329831B82BD82AC828E83CE0101963C
:103AA000A8CFE83CF10508F041C0FE2CEE2009F457
:103AB000B1CF32132AC0941328C08091370280FD01
:103AC0001BC0982F907FC1F0F8018583903F31F0A3
:103AD000982F907F905F8F70892B8583C8010E94FB
:103AE000FF1A86E0F801A2E3B2E001900D928A95F8
:103AF000E1F70E94AC1BF5CE86E0F801A2E3B2E04C
:103B000001900D928A95E1F7ECCE4D872E878D8539
:103B10009E850E946A1B81116ECF80913702816061
:103B200080933702C8010E94FF1ADBCE7A2DB98A32
:103B3000A88A522F6E2D89890E946E1B86E0F6019D
:103B400011928A95E9F7D5CFEE2009F463CF4D871E
:103B50002E878D859E850E946A1BF82E882309F486
:103B600059CF86E0F801A2E3B2E001900D928A9568
:103B7000E1F782E392E00E9418180E94BA1BB9CFC5
:103B800081E08E25C8CECF93DF93CDB7DEB72C97DB
:103B90000FB6F894DEBF0FBECDBF4F83588769873D
:103BA0007A878B879C87CE0107960E94151C8823F5
:103BB000D1F08A859B85892B39F04F815885842FD8
:103BC00085238F3F09F076C0809100029091010219
:103BD000891349C02C960FB6F894DEBF0FBECDBF37
:103BE000DF91CF91089586E0FE013796DE011196B0
:103BF00001900D928A95E1F78A859B85892B21F3A7
:103C00008F81988589238F3FF9F28091010290E09E
:103C10009C012F5F3F4F27703327409100024217CE
:103C2000130671F40E94471B1092010210920002C9
:103C300086E0E2E3F2E0DF011D928A95E9F7C4CF66
:103C400066E070E00E94962ADC01AE5FBD4F96E010
:103C5000FE01319601900D929A95E1F720930102B1
:103C60000E948D1BB1CF90E066E070E00E94962A22
:103C70008E5F9D4F0E94151C882309F4ABCF809165
:103C8000000290E066E070E00E94962AFC01EE5F80
:103C9000FD4F4081518162817381848195810E94B1
:103CA0007D1B8091000290E0019687709927809398
:103CB00000028ACF69857A858B859C850E947D1B51
:103CC00083CF08950C94611E0E94621E60935A0275
:103CD00070935B0280935C0290935D020C94351BA1
:103CE00008950C94641E0F931F9300915A02109133
:103CF0005B0220915C0230915D02602B712B822B64
:103D0000932B1F910F910C94641E0F931F9300919E
:103D10005A0210915B0220915C0230915D02602397
:103D20007123822393231F910F910C94641E0F9390
:103D30001F9300915A0210915B0220915C02309116
:103D40005D0260277127822793271F910F910C94A2
:103D5000641E0C94611E0C94A91E0E94AB1E6093FD
:103D600056027093570280935802909359020C9414
:103D7000351B60E070E0CB010C94AD1E0F931F93D8
:103D800041E050E060E070E08A019B0104C0000F58
:103D9000111F221F331F8A95D2F7C901B8011F9145
:103DA0000F910C94AD1E0F931F9341E050E060E023
:103DB00070E004C0440F551F661F771F8A95D2F725
:103DC0008091560290915702A0915802B0915902E9
:103DD0008A019B01082B192B2A2B3B2BC901B80107
:103DE0001F910F910C94AD1E0F931F9341E050E073
:103DF00060E070E004C0440F551F661F771F8A956E
:103E0000D2F7CB01BA01609570958095909500919D
:103E100056021091570220915802309159026023A6
:103E20007123822393231F910F910C94AD1E0F9346
:103E30001F9341E050E060E070E004C0440F551F64
:103E4000661F771F8A95D2F780915602909157028C
:103E5000A0915802B09159028A019B0108271927A5
:103E60002A273B27C901B8011F910F910C94AD1E61
:103E70000F931F9300915602109157022091580200
:103E800030915902602B712B822B932B1F910F9134
:103E90000C94AD1E0F931F93009156021091570280
:103EA0002091580230915902602371238223932379
:103EB0001F910F910C94AD1E0F931F93009156020A
:103EC00010915702209158023091590260277127B2
:103ED000822793271F910F910C94AD1E0895CF93C5
:103EE000DF93282F892F362F9E3F79F16CE00E94B7
:103EF0008D2A820F982F9770E1E001C0EE0F9A95FE
:103F0000EAF786958695869590E065E070E00E94D8
:103F1000962ADC01A85CBD4F50E040E0632F70E0C2
:103F20008D91ED0121979B01042E02C036952795B6
:103F30000A94E2F72170219528272E232827288329
:103F40004F5F5F4F4530510559F7DF91CF9108958D
:103F5000282F892F9E3F51F16CE00E948D2A820FFD
:103F6000A82FA77086958695869590E065E070E00D
:103F70000E94962AFC01E85CFD4F50E040E080E0A2
:103F8000219130E00A2E02C0369527950A94E2F777
:103F900021703327042E01C0220F0A94EAF7822BE6
:103FA0004F5F5F4F4530510559F7089580E0089500
:103FB000BF92CF92DF92EF92FF920F931F93CF9316
:103FC000DF938C01C0905602D0905702E0905802C7
:103FD000F090590280915A0290915B02A0915C028C
:103FE000B0915D02C82AD92AEA2AFB2ACFE1D0E0A3
:103FF000BC2ED701C6010C2E04C0B695A795979587
:1040000087950A94D2F780FD0EC0219788F7B12CCE
:104010008B2DDF91CF911F910F91FF90EF90DF904B
:10402000CF90BF900895B8018C2F0E948A05019708
:1040300061F3EECFCF93DF93EC010E94D81FBE0156
:10404000DF91CF910C948A051F93CF93DF93EB01FF
:104050009091FF01992331F0CB01DF91CF911F9116
:104060000C941A20882379F0CB010E94D81F182FB6
:10407000682FCE010E946F1FBE01812FDF91CF916B
:104080001F910C948A05CB010E94A81F182FF4CF12
:10409000682F80910201909103010C949B22682F5C
:1040A00080910201909103010C949D228091020164
:1040B000909103010C949F228091630208950E94C5
:1040C00029232091610230916202821B930B9C0193
:1040D00081E02838334108F480E00895809160023F
:1040E00085958595859508958091600287700895DE
:1040F0000E94292320915E0230915F02821B930B64
:104100008838934148F08091600282FB882780F9CB
:1041100091E089278170089580E0FCCF9091600242
:10412000977081E009F480E0089590917D0292FB00
:10413000222720F9281751F080FB92F990937D02F5
:1041400080917C0290917D020C94C8210895809109
:104150007D0282FB882780F991E089270C949520C5
:1041600081E00C94952080E00C94952080916F0262
:10417000089590916F02892B80936F020895809526
:1041800090916F02982390936F02089510926F029E
:10419000089580916E02089590916E02892B80930C
:1041A0006E020895809590916E02982390936E020E
:1041B000089510926E02089510926D0208958091F4
:1041C0006402089508950C94E22090916302981778
:1041D00021F0809363020C94E320089580916302A0
:1041E000882329F01092630280E00C94E320089564
:1041F00008950C94F820CF93C82F80917D0282FD02
:1042000010C0809164028C1761F00E942923909362
:10421000620280936102C09364028C2FCF910C9450
:10422000F920CF91089580916402882349F010927B
:104230006402109262021092610280E00C94F920F4
:104240000895E0910201F091030180916F02808353
:10425000E0910201F0910301808190916E02892B1F
:104260008083E0910201F0910301808190916D02C1
:10427000892B8083809164028823B9F00E945F209B
:1042800081110E941321E0910201F09103018081CC
:1042900090916402892B80838091020190910301A7
:1042A0000E94532281110E9413218091020190915A
:1042B00003010C94A01608950C945B2190917D024B
:1042C00092FD16C0982F990F990F990F962B9093E6
:1042D00060020E94D31E0E94292390935F02809364
:1042E0005E02809160028595859585950C945C2190
:1042F0000C94D31E1092600210925F0210925E0224
:1043000080E00C945C2190916002809589238093D9
:104310006002282F277039F4282F082E000C330B49
:104320009217130621F490917D0292FF07C08595A4
:10433000859585950E94F41E0C947A21089580E05D
:1043400008956FEF7FEF90E080E00C94282B90E0D1
:1043500080E00E94042B21E08A3E9E4F09F020E07D
:10436000822F089582E090E00C94FC2A83E090E094
:104370000C94FC2ACF9384E090E00E94FC2AC82F82
:1043800082E290E00E94FC2A982F8C2FCF91089512
:10439000CF93C92F682F84E090E00E940A2B6C2FE6
:1043A00082E290E0CF910C940A2BAB01BC018FE02C
:1043B00090E00C941C2BAB01BC0183E190E00C94C9
:1043C0001C2B60E070E0CB010C94DB2160E070E01E
:1043D000CB010E94D5210C94E1216AEE7EEF90E0A2
:1043E00080E00E94282B60E082E090E00E940A2B8F
:1043F00060E083E090E00E940A2B10925A02109233
:104400005B0210925C0210925D0260E084E090E03A
:104410000E940A2B60E082E290E00E940A2B60E09A
:1044200085E090E00E940A2B60E086E090E00E9428
:104430000A2B6FEF87E090E00E940A2B40E050E0EB
:10444000BA0188E090E00E941C2B60E08DE090E0D3
:104450000E940A2B40E050E0BA0188E190E00E94FF
:104460001C2B60E087E190E00E940A2B40E050E0C6
:10447000BA018CE190E00E941C2B70E060E080E2C9
:1044800090E00E94282B40E050E0BA0188E190E0E3
:104490000E941C2B0C94E6210C94ED21682F8EE0D9
:1044A00090E00C940A2B9C012E5F3F4FAC01485FBB
:1044B0005F4F80E02417350709F40895F9019191C1
:1044C0009F019923B9F38F5FF5CF662349F0FC0173
:1044D000329608962191261729F0E817F907D1F7A7
:1044E00080E0089581E008959C01FC0132969FEFE1
:1044F00080E04191461751F09F3F19F4411101C0EE
:10450000982F8F5F8630A9F79F3F09F40895290FF0
:10451000311D97FD3A95F90162830895FC013296A9
:1045200008962191261303C0DF0111971C92E8170A
:10453000F907B9F708950C9474220C948E22029610
:1045400026E0FC0111922A95E9F70895089508954F
:104550000C94A72280917003843049F10E94A82214
:1045600080E00E9482051092710288E190E020E4D0
:104570000FB6F894A895809360000FBE209360005A
:1045800083B7817F846083BF83B7816083BF789462
:10459000889583B78E7F83BF0FB6F894A8958091D6
:1045A0006000886180936000109260000FBE0895E3
:1045B0000895CF930E94A6220E9417080E94D82235
:1045C000C0E08C2F0E94B007892B31F4CF5FC4303C
:1045D000C1F780E0CF91089581E0FCCF08950C945D
:1045E000EE220E94471B0E9494160E9482050C94A2
:1045F000EF221F921FB61F9211248F939F93AF93A8
:10460000BF9380917102811113C0809168039091D2
:104610006903A0916A03B0916B034196A11DB11D7E
:104620008093680390936903A0936A03B0936B032C
:10463000BF91AF919F918F911F901FBE1F901895B2
:1046400082E084BD93E095BD9AEF97BD80936E00A4
:1046500008952FB7F8948091680390916903A09111
:104660006A03B0916B032FBF08952FB7F894609140
:1046700068037091690380916A0390916B032FBF67
:1046800008959C014FB7F894809168039091690355
:10469000A0916A03B0916B034FBF821B930B0895E7
:1046A00078941F921FB61F9211248F939F93AF93FC
:1046B000BF938091680390916903A0916A03B091C0
:1046C0006B030196A11DB11D80936803909369034C
:1046D000A0936A03B0936B03BF91AF919F918F91A9
:1046E0001F901FBE1F90189581E08093E00080E22C
:1046F0008093D8001092C9008FE19EE40197F1F7F2
:1047000000C0000087E090EBDC0180937903909378
:104710007A03A0937B03B0937C0388E19CE00FB6FF
:10472000F894A895809360000FBE90936000FFCF2F
:104730009093A9018093A801089580917A02089529
:104740000895CF93DF9300D00F92CDB7DEB790914D
:104750007003943011F589837B836A839093E90019
:104760008FEF9091E800815095FD06C095ED9A95E8
:10477000F1F700008111F5CF8091E80085FF0DC0B1
:1047800050E040E063E070E0CE0101960E94EC252D
:104790008091E8008E778093E8000F900F900F9043
:1047A000DF91CF910895BC0184E00C94A123BC015A
:1047B00083E00C94A123CF93DF93EC0181E08093FD
:1047C000E9008FEF9091E800815095FD06C095EDCE
:1047D0009A95F1F700008111F5CF8091E80085FFEF
:1047E00014C050E040E068E070E0CE010E94EC258B
:1047F0008091E8008E778093E80088E0FE01A2E7D0
:10480000B2E001900D928A95E1F7DF91CF91089582
:10481000CF93FC01603221F580917003843001F563
:10482000C091E900CF702091EC00922F917020FD93
:1048300090E8C92B82E08093E9008091E80080FF36
:104840000CC050E040E060E270E0CF010E94EC2537
:104850008091E8008E778093E800CF70C093E900E4
:10486000CF91089508950895089542E061EC81E0A4
:104870000E94432742E261EC84E00E94432742E227
:1048800061EC82E00E94432742E260EC83E00C94FA
:10489000432780917203833009F45FC030F4813084
:1048A000C1F1823009F49BC008958A3009F487C0B1
:1048B0008B3009F46DC0893009F04EC080917103CE
:1048C000813209F049C08091750390917603009779
:1048D00019F0029709F040C08091E800877F80932B
:1048E000E8008091E80082FF33C08091F2008230BE
:1048F00029F48091F1008B7F813021F48091F100C7
:1049000080937A028091E8008B778093E8000C9482
:10491000772780917103813AF9F48091E800877FCD
:104920008093E8008091750390917603892B61F460
:1049300068E082E792E070E00E948A268091E800B9
:104940008B778093E800089560E090E080E0F3CFFB
:10495000809170038111C5CF089580917103813AD0
:10496000D9F78091750390917603892BA9F78091EF
:10497000E800877F8093E8008091E80080FFFCCF0B
:1049800080910E018093F1008091E8008E77BDCF79
:1049900080917103813201F78091750390917603C4
:1049A000892BD1F68091E800877F8093E8000E94F0
:1049B00077278091730380930E010C94471B80919D
:1049C0007103813249F68091E800877F8093E80087
:1049D0000E9477278091740380937B0208958091D1
:1049E0007103813A09F0B8CF8091E800877F809306
:1049F000E8008091E80080FFFCCF80917B02C2CF6D
:104A0000CDB7DEB7A0970FB6F894DEBF0FBECDBF0F
:104A100084B7877F84BF0FB6F894A8958091600013
:104A2000886180936000109260000FBE80E890E083
:104A30000FB6F89480936100909361000FBE0E94BE
:104A400004170E94C7270E941A288091E200846000
:104A50008093E20078940E94722A0E94181784E0E2
:104A600091E00E948F1613E0809170038530B9F0B9
:104A70000E942217809170038430C1F00E941417A5
:104A8000F3CF0E94AA2280916E03882341F00E94F6
:104A9000D922882321F00E94D6250E94471B8091AD
:104AA0007003853071F30E94F122E2CF1093E90088
:104AB0008091E80082FFE2CF8091E80090E085FFDE
:104AC00009C050E040E060E270E0CE0101960E9433
:104AD0003B2691E08091E8008B778093E800992352
:104AE00069F260E2CE0101960E94C109C7CF0C9421
:104AF0007925292F33272330310521F168F421301E
:104B0000310509F449C02230310509F44AC090E06A
:104B100080E030E020E029C02132310581F12232ED
:104B20003105A9F76330710590F7FB01EE0FFF1F08
:104B3000E456FE4F2081318167567E4FFB01808114
:104B400090E013C099278130910599F0009741F0CA
:104B50008230910589F00397D1F6E4E4F4E002C0D5
:104B6000E4E8F4E0849190E09F01FA01318320832E
:104B70000895EEE6F4E0F6CFE2E6F4E0F3CF63303A
:104B8000710528F6660F771FFB01EE55FE4F208159
:104B9000318189E090E0E9CF82E190E023EE34E0DA
:104BA000E4CF8BE590E028E834E0DFCF84E089BDF6
:104BB00086E089BD09B400FEFDCF8091D8008F7DCD
:104BC0008093D8008091E00082608093E000809123
:104BD000E00081FDFCCF0895AF92BF92CF92DF92AB
:104BE000FF920F931F93CF93DF936C01EB018A0128
:104BF0000E949627F82E811123C00115110539F066
:104C0000F80180819181C81BD90BC80ED91EB12C27
:104C1000A12C2097A9F08091E80085FD22C0809109
:104C2000E8008E778093E80001151105A1F0F801E6
:104C300080819181A80EB91EB182A08285E0F82EF4
:104C40008F2DDF91CF911F910F91FF90DF90CF902B
:104C5000BF90AF9008950E9496278823D1F2F82E36
:104C6000EFCFF60181916F018093F1002197FFEF63
:104C7000AF1ABF0ACECFAF92BF92CF92DF92FF9210
:104C80000F931F93CF93DF936C01EB018A010E9476
:104C90009627F82E811123C00115110539F0F8016E
:104CA00080819181C81BD90BC80ED91EB12CA12CB3
:104CB0002097A9F08091E80085FD22C08091E8004E
:104CC0008B778093E80001151105A1F0F801808130
:104CD0009181A80EB91EB182A08285E0F82E8F2D99
:104CE000DF91CF911F910F91FF90DF90CF90BF90F8
:104CF000AF9008950E9496278823D1F2F82EEFCF27
:104D00008091F100F60181936F012197FFEFAF1AB7
:104D1000BF0ACECFFC01809177039091780386176C
:104D20009707A0F06115710529F49091E8009E772E
:104D30009093E80090E06115710551F4911108C05D
:104D40008091E80082FF32C080E00895BC01F2CF7C
:104D5000809170038823B1F18530B1F18091E80032
:104D600083FD2EC08091E80082FDEACF8091E800AB
:104D700080FFE1CF2091F20030E06115710519F05C
:104D80002830310558F091E02830310509F090E0E5
:104D90002091E8002E772093E800CDCF8191809379
:104DA000F100615071092F5F3F4FE7CF8091700391
:104DB000882341F0853041F08091E80083FFC0CF27
:104DC00081E0089582E0089583E00895FC018091D8
:104DD00077039091780386179707A0F06115710506
:104DE00029F48091E8008E778093E80090E06115C7
:104DF000710551F4911108C08091E80082FF33C021
:104E000080E00895BC01F2CF809170038823B9F14E
:104E10008530B9F18091E80083FD2FC08091E800D2
:104E200082FDEACF8091E80080FFE1CF2091F2007F
:104E300030E06115710519F02830310558F091E026
:104E40002830310509F090E08091E8008E7780935A
:104E5000E800CDCF84918093F100319661507109C3
:104E60002F5F3F4FE6CF80917003882341F085305C
:104E700041F08091E80083FFBFCF81E0089582E098
:104E8000089583E00895982F953028F08F708093CF
:104E9000E90081E008959093E900242F762F50E0F7
:104EA000981731F07091EC002091ED005091F000D6
:104EB00021FD02C09F5FE8CF3091EB003E7F309331
:104EC000EB003091ED003D7F3093ED003091EB0031
:104ED00031603093EB007093EC002093ED00509321
:104EE000F0002091EE0027FDE5CF80E0089580914D
:104EF000710387FF13C08091E80082FF06C0809194
:104F0000E8008B778093E80004C0809170038111E2
:104F1000F2CF0895809170038823D9F38091E8003F
:104F200080FFF8CF8091E8008E77ECCF2091E400ED
:104F30003091E50095E6A9012091EC00822F817067
:104F400020FF06C08091E80080FF06C080E0089541
:104F50002091E80022FD1AC080917003882389F017
:104F6000853089F08091EB0085FD0FC02091E40031
:104F70003091E50042175307F9F29150E1F684E0D1
:104F8000089582E0089583E0089581E008950E94E5
:104F900024280E942728E0EEF0E080818160808351
:104FA000E8EDF0E080818F77808319BCE3E6F0E0E4
:104FB00080818160808310926F0308950E9424286D
:104FC0000E9427288091D8008F778093D800809105
:104FD000D80080688093D8008091D8008F7D80931E
:104FE000D80084E089BD86E089BD09B400FEFDCF0C
:104FF0001092700310926C0310926E0310926D0366
:1050000042E060E080E00E9443278091E1008E7FD3
:105010008093E1008091E20081608093E2008091C2
:10502000E20088608093E2008091E0008E7F8093B0
:10503000E0000895E3E6F0E080818E7F808381E0E8
:1050400080936F030C94DE271092E2000895109273
:10505000E10008951F920F920FB60F9211242F9323
:105060003F934F935F936F937F938F939F93AF93F0
:10507000BF93EF93FF938091E10082FF0BC080917B
:10508000E20082FF07C08091E1008B7F8093E10006
:105090000E94712A8091E10080FF19C08091E20096
:1050A00080FF15C08091E2008E7F8093E2008091A6
:1050B000E20080618093E2008091D800806280935A
:1050C000D80019BC85E0809370030E94332480913E
:1050D000E10084FF2BC08091E20084FF27C084E0C0
:1050E00089BD86E089BD89B5982F917080FFFBCF7F
:1050F0008091D8008F7D8093D8008091E1008F7ED1
:105100008093E1008091E2008F7E8093E2008091A5
:10511000E20081608093E20080916C03882309F4AF
:1051200043C084E0809370030E9434248091E100A6
:1051300083FF29C08091E20083FF25C08091E100B8
:10514000877F8093E10082E08093700310926C036C
:105150008091E1008E7F8093E1008091E2008E7F5C
:105160008093E2008091E20080618093E20042E05F
:1051700060E080E00E9443278091F0008860809387
:10518000F0000E943224FF91EF91BF91AF919F9167
:105190008F917F916F915F914F913F912F910F90E0
:1051A0000FBE0F901F9018958091E30087FD93E04C
:1051B00090937003B9CF1F920F920FB60F921124E4
:1051C0002F933F934F935F936F937F938F939F930F
:1051D000AF93BF93CF93DF93EF93FF93D091E90009
:1051E000DF708091EC00C82FC17080FDC0E8109284
:1051F000E9008091F000877F8093F00078940E940E
:105200001F291092E9008091F00088608093F000DF
:10521000CD2BCF70C093E900FF91EF91DF91CF913B
:10522000BF91AF919F918F917F916F915F914F91BE
:105230003F912F910F900FBE0F901F9018951F93C5
:10524000CF93DF93CDB7DEB7AA970FB6F894DEBF42
:105250000FBECDBF81E793E02091F100FC012193C7
:10526000CF01F3E089379F07B9F70E944924809165
:10527000E80083FF1EC180917103909172039A3000
:1052800008F017C1E92FF0E0E059F44D0C94BB2A67
:10529000803899F0823809F00CC1809175038F70C5
:1052A000853008F006C18093E9008091EB0085FB12
:1052B000882780F91092E90006C080916D039091D3
:1052C0006E03911182609091E800977F9093E800BF
:1052D0008093F1001092F1008091E8008E77E5C094
:1052E000882309F4D3C0823009F0E3C080917303AE
:1052F0008111D6C0809175038F702FEF280F243055
:1053000008F0D7C08093E9002091EB0020FFC8C0CF
:10531000933031F48091EB0080628093EB00C0C049
:105320009091EB0090619093EB0021E030E001C0A0
:10533000220F8A95EAF72093EA001092EA00809102
:10534000EB008860EACF8111B4C0109173031F771E
:105350008091E3008078812B8093E3008091E800C6
:10536000877F8093E8000E9477278091E80080FF84
:10537000FCCF8091E30080688093E30082E011110C
:1053800083E08093700395C08058823008F091C00C
:1053900080917303909174038C3D23E09207A1F5F3
:1053A00083E08A838AE289834FB7F894DE011396FB
:1053B00020E03EE051E2E32FF0E050935700E4910B
:1053C00020FF03C0E295EF703F5FEF708E2F90E0FB
:1053D000EA30C0F0C7968D939D932F5F243159F723
:1053E0004FBF8091E800877F8093E8006AE270E019
:1053F000CE0101960E948A268091E8008B778093E7
:10540000E80057C0C096E7CF6091750370917603AE
:10541000AE014F5F5F4F0E947725BC01892B09F4D5
:1054200048C09091E800977F9093E80089819A8125
:105430000E94E626E1CF8038E1F58091E800877F81
:105440008093E80080916C038093F10045CF811137
:1054500030C090917303923060F58091E800877FAF
:105460008093E80090936C030E94772780916C03EF
:10547000882311F084E005C08091E30087FDFACF16
:1054800081E0809370030E94352413C080917303E0
:10549000813079F481E0933009F080E080936E03ED
:1054A0001092E9008091E800877F8093E8000E94D5
:1054B00077278091E80083FF0AC08091E800877F0A
:1054C0008093E8008091EB0080628093EB00AA96C5
:1054D0000FB6F894DEBF0FBECDBFDF91CF911F9105
:1054E00008950895CF93809170038823A1F0C0910F
:1054F000E900CF709091EC00892F817090FD80E8D9
:10550000C82B1092E9008091E80083FD0E941F29BA
:10551000CF70C093E900CF910895002480FD060E5E
:10552000660F11F08695D1F7802D08950024552738
:1055300004C0080E591F880F991F009729F076950F
:105540006795B8F37105B9F7802D952F089597FBEE
:10555000072E16F4009407D077FD09D00E94C82AC0
:1055600007FC05D03EF4909581959F4F0895709566
:1055700061957F4F0895EE0FFF1F0590F491E02D88
:105580000994692796276927782787277827089518
:10559000AA1BBB1B51E107C0AA1FBB1FA617B70759
:1055A00010F0A61BB70B881F991F5A95A9F7809575
:1055B0009095BC01CD010895FB01DC0102C005906E
:1055C0000D9241505040D8F70895DC0101C06D9311
:1055D00041505040E0F70895DC01CB01FC01F999FE
:1055E000FECF06C0F2BDE1BDF89A319600B40D922F
:1055F00041505040B8F70895F999FECF92BD81BD52
:10560000F89A992780B50895A8E1B0E042E050E00B
:105610000C94EE2A262FF999FECF92BD81BDF89AFF
:10562000019700B4021639F01FBA20BD0FB6F894E6
:10563000FA9AF99A0FBE08950396272F0E940B2B12
:105640000E940A2B252F0E940B2B242F0C940B2B2E
:105650000196272F0E940B2B0C940A2BDC01CB0107
:1056600003C02D910E94392B41505040D0F708952E
:10567000262FF999FECF1FBA92BD81BD20BD0FB66E
:10568000F894FA9AF99A0FBE01960895F894FFCF0C
:10569000E50C150D1D0D070D070D580D750D880D29
:1056A000D20DD70D070D070D070DEA0DEF18EF18F6
:1056B00046194619AC191C191C191C19C819541A79
:1056C000631A631A561B561B5F1B5F1B611B5F1B14
:1056D0005F1B5F1B561B561B661B5F1B5F1B661BFE
:1056E00048297029592A7029592AA329C429592AD5
:0456F0001B2A272A20
:1056F40001FF65029D23DB23A023D723D32301DAF3
:10570400A8BDBD67E6BECCE200E900EA00B500B67C
:1057140000B700CD008301CC008A019201940121DD
:1057240002230224022502260227022A02B300B41D
:10573400006F007000818283646566673736353494
:10574400333231309196959400FF0100010000FF3F
:10575400FF0000010001FF00E200E900EA00B500DB
:10576400B600B700CD008301CC008A0192019401F8
:105774002102230224022502260227022A02B30060
:10578400B4006F0070008182834022324905F50421
:0857940017059A04B304D304C5
:00000001FF
