:100000000C94C5020C940C030C940C030C940C037C
:100010000C940C030C940C030C940C030C940C0324
:100020000C940C030C940C030C940C030C944227BA
:100030000C94F3270C9411220C940C030C940C03D5
:100040000C940C030C940C030C940C030C94682279
:100050000C940C030C940C030C940C030C940C03E4
:100060000C940C030C940C030C940C030C940C03D4
:100070000C940C03290014001A0008001500170046
:100080001C0018000C00120013002A002B61040051
:100090001600070009000A000B000D000E000F00FB
:1000A00033002800E1001D001B00060019000500B8
:1000B0001100100036003700520038000251E300F2
:1000C000E200000000002C41000000000000500091
:1000D0004F005100350034000100520001000100C2
:1000E000010001002400250026004C003900010019
:1000F000500051004F000100540056002100220022
:1001000023002800E1002D002E002F0030003100D8
:10011000550057001E001F002000E5000100E3000D
:10012000E2000000000001000000000000002700C5
:10013000630000003A003B003C003D003E0023000D
:100140004000410042004300440045000000000020
:10015000000000000000000000000000000000009F
:100160000000A90000000000000000000000005C8A
:1001700000000000000000000000AA0001000000D4
:1001800000000000000000000000000000004C0023
:10019000E600E4000100010001000100010001008F
:1001A0000100010001000100010001000100010047
:1001B0000100010001000100010001000100010037
:1001C0000100010001000100010001000100010027
:1001D0000100010001000100010001000100010017
:1001E000010000000000010000000000000001000C
:1001F0000100010000000000000000002A2B280080
:1002000000000000000000000000000000000029C5
:10021000000000002C1E3420212224342627252E05
:10022000362D3738271E1F2021222324252633333D
:10023000362E37381F0405060708090A0B0C0D0E69
:100240000F101112131415161718191A1B1C1D2F35
:100250003130232D350405060708090A0B0C0D0E55
:100260000F101112131415161718191A1B1C1D2F15
:100270003130354C0000000000000000000000009C
:10028000000000000000000000000000000000006E
:1002900000000000000000007E0F00D4FFFFFFC739
:1002A00000000078FD377A585A000004E6D6B446BC
:1002B0000200210116000000742FE5A3E003D6011F
:1002C000605D003D8889C65436C3174FE4E2A42020
:1002D000CE85859456F211440CB1900C8636AF420F
:1002E00088EFEA6D085CB9A26346431E3AAEA707E1
:1002F000627DEE2860704420FE9D848AD1C3444410
:10030000412D7311762DDA17C2219D5CB686B77127
:10031000BD9E8AFBDCD7D617D5D4A7DD565740F84B
:1003200002D2769C7005209D64B3C49B678E0DC578
:10033000D311DFE6C1A2A9A27E93FA351C55682627
:10034000F599DAF9825FCAA7E3249DB257EA95BA14
:10035000EF0924E9404617FEDF65E15514359E9507
:10036000F8C496FDFB4066B775171CE6D11176D030
:10037000053CD31CDE7A5C05C25C83ABA03B032149
:10038000A988B7D27030D6266706618DF4FA0B279C
:10039000590000BBDDB2FA4C4D4071D548E6EC2067
:1003A000ECD25B9E17D04303DEDC42D1C4CCE652D4
:1003B000CB353AE1E3C065BFF34FAFA0CD66E4842F
:1003C0000315C0A2DE576A3A02D1262CC010421093
:1003D0007BA41305CEEBC2742A04843FAF5FF87888
:1003E000B511CE762D415C723B91F4C38D9BB02E3E
:1003F000DC74A329E61B6305CDD2DFE7005C3EE198
:10040000EA114E96AE105165054019CEACA6F0B576
:100410002CDCE4A433EBCD51357DB3D196816E98BD
:100420001AB96700638F66FCF9DD55300001FC02E4
:10043000D70700007AC90965B1C467FB0200000054
:100440000004595A1C037600690061006C003A00F0
:10045000660036003400630032006200330063003F
:1004600000000A036D006200340034000000140331
:100470006D0065006C006F006E0062007200650028
:10048000640000000403090409025B00030100A0EA
:10049000FA09040000010301010009211101000112
:1004A0002240000705810308000A09040100020335
:1004B000000000092111010001222200070582032A
:1004C00020000107050303200001090402000103C5
:1004D00000000009211101000122320007058403F8
:1004E00020000A1201100100000008626D626D0117
:1004F00000010203010660FF0961A1010962150004
:1005000026FF009520750881020963150026FF006B
:10051000952075089102C005010980A10185031984
:10052000012AB700150126B700950175108100C09A
:10053000050C0901A101850419012AA00215012653
:10054000A002950175108100C005010906A10105F1
:100550000719E029E7150025019508750181029525
:1005600001750881010507190029FF150026FF0004
:10057000950675088100050819012905950575017D
:100580009102950175039101C00011241FBECFEFA8
:10059000D4E0DEBFCDBF04B603FE27C08091770351
:1005A00090917803A0917903B0917A038730904BB2
:1005B000A740B04BD1F410927703109278031092B9
:1005C000790310927A0314BE84B7877F84BF0FB675
:1005D000F894A895809160008861809360001092E3
:1005E00060000FBEE0E0F8E3099511E0A0E0B1E0A3
:1005F000E4E2F5E502C005900D92AA3AB107D9F7F9
:1006000023E0AAEAB1E001C01D92A737B207E1F7E3
:100610000E9418240C945E2A0C940000CF93DF9360
:100620009C013A9521153F4168F5EC01CC27D1702A
:10063000DC01AA27B270AC01442754709C01222728
:10064000387094FF11C080E1CD2B09F480E0AB2B12
:1006500009F08062452B09F08064232B09F0806843
:10066000FB01DF91CF91099481E0CD2B09F480E06B
:10067000AB2B09F08260452B09F08460232B81F3BA
:100680008860EECFDF91CF910895CF93DF93EC0197
:10069000805E9109089720F06FE37AE1209711F4CA
:1006A00062EC77E1CE010E940E038C2FDF91CF9197
:1006B0000C943517CF93DF93EC010E947B17CE018A
:1006C000805E9109089720F066E47AE1209711F4A2
:1006D00069EC77E1CE01DF91CF910C940E0381E0BC
:1006E000089581E008950C94710308950C947503A6
:1006F0001F93CF93DF9300D000D00F92CDB7DEB71A
:1007000049835A836B833091FD0189819A8131112C
:100710001DC06623B9F02223A9F00E94F01E182FF5
:10072000682F89819A810E94871E69817A81812F31
:100730000F900F900F900F900F90DF91CF911F911E
:100740000C94890F0E94C01E182FEFCF0E94F01E3C
:1007500069817A81EDCFFC01262F40815181628130
:10076000738184810C947803CF93DF93EC0160E074
:100770000E94AB03BE01DF91CF910C9476038F9260
:100780009F92AF92BF92CF92DF92EF92FF920F9320
:100790001F936B017C0181E090E0A0E0B0E04C0190
:1007A0005D0104C0880C991CAA1CBB1C4A95D2F799
:1007B000B501A4014C015D0104C0880C991CAA1C60
:1007C000BB1C2A95D2F7482959296A297B2904C0DC
:1007D000880F991FAA1FBB1F0A95D2F78A019B0198
:1007E0000C211D212E213F2104171507260737074D
:1007F00089F48C299D29AE29BF29BC01CD011F9107
:100800000F91FF90EF90DF90CF90BF90AF909F90AF
:100810008F90089580959095A095B0958C219D21FD
:10082000AE21BF21EACF0F93382F262F60915402BB
:10083000709155028091560290915702042F432FD8
:100840000E94BF030F910C94C51D0E9470070C9469
:1008500095070E9454150E94D8120C949807089589
:100860000E945F1A0E942F042FEF84E39CE0215026
:1008700080409040E1F700C000000C948C220F9360
:100880001F93CF93DF93EC018B010E94A814B80152
:10089000CE010E946F09882309F448C0B801CE0137
:1008A0000E947303882309F441C0B801CE010E945D
:1008B000F0148823D9F1B801CE010E94FF128823D9
:1008C000A9F1B801CE010E940811882379F1B8017D
:1008D000CE010E945A11882349F1B801CE010E942D
:1008E0007D12882319F1F8018281882361F0CA35CD
:1008F000FDE5DF0721F170F4C115ECE5DE07A1F09D
:10090000CE3DDC45C9F0C801DF91CF911F910F9119
:100910000C946F03CB358DE5D807A1F0CC35DD45C0
:1009200091F70E94BF1FEFCF0E94300480E0DF915B
:10093000CF911F910F9108950E946421F7CF0E94DB
:10094000C81FE1CF0E94CB1FDECFCF93DF93EC0116
:1009500061E00E94AB03BE01DF91CF910C943F0494
:10096000DF92EF92FF920F931F93CF93DF93E82FC5
:10097000F0E0EC50FE4FD490282F26952695269532
:1009800030E0F901EC56FD4F0491877010E0082E1D
:1009900002C0159507950A94E2F701701127F90135
:1009A000EC57FD4FE490F12C082E02C0F594E7942B
:1009B0000A94E2F791E0E922FF24F901EC58FD4F97
:1009C000C491D0E002C0D595C7958A95E2F7C17071
:1009D000DD270115110519F081EE0E943517E1148C
:1009E000F10419F086EE0E9435178D2D0E94BA177A
:1009F000EF2819F086EE0E947B17012B19F081EE8B
:100A00000E947B17CD2B51F08CE2DF91CF911F918B
:100A10000F91FF90EF90DF900C94BA17DF91CF9178
:100A20001F910F91FF90EF90DF900895EF92FF924A
:100A30001F93CF93DF93EC01162F8881882309F44D
:100A400051C0813009F04BC08981813099F47E0119
:100A500022E0E20EF11C8A810E94BA17E70121967A
:100A6000812F815050F3EFE9FFE03197F1F700C09B
:100A70000000F7CF823041F47E0182E0E80EF11CE5
:100A80008A810E943517EACF833041F47E01E2E08B
:100A9000EE0EF11C8A810E947B17E0CF843011F0AA
:100AA0002196DDCF2A81229690E080E0FE013196EA
:100AB0002053330B2A30310548F0019780F2EFE9DB
:100AC000FFE03197F1F700C00000F7CF6AE070E077
:100AD0000E94AE29820F931F2981EF01E7CF0E9468
:100AE000B004BDCFDF91CF911F91FF90EF9008959B
:100AF00060E00C94160508950C947B0581E0089540
:100B00000C947E05CF93C82F0E947C058C2FCF912B
:100B10000C948005CF93DF930E94890F0E947E067C
:100B2000EC01811522E59207E8F5811531E593077F
:100B300008F0B1C0883E910510F5803E910570F532
:100B4000883A910570F4853A910508F07BC08130B0
:100B5000910521F1009711F1049700F5D0E0C0E074
:100B60001DC08F3B9105D0F7C85AD0E0CC0FDD1FD8
:100B7000C75EDE4F0990D881C02DD4640FC08115A7
:100B800040E5940708F069C0C11580E4D80708F073
:100B900061C0CE019A9581159F4100F7CE01DF918A
:100BA000CF910895811536E5930730F5811545E518
:100BB000940708F08BC0C11584E5D80708F081C000
:100BC0009C2F969596959E0123703327C115D3458A
:100BD00008F466C0C1E0D0E002C0CC0FDD1F2A954A
:100BE000E2F7892F90E075E0880F991F7A95E1F779
:100BF000C82BD92BDA68D2CFC1158AE5D80778F48B
:100C0000C11529E5D20708F06BC0C11538E5D30737
:100C100008F4A4CFDC2FCC27C06FD06ABFCFCE01A1
:100C200090568115904208F099CF8D2F8F710E94B8
:100C3000150790E0982F882788279F719C012C2BFF
:100C4000E9014CC0C55AD0E0C95BDE4FC881D0E095
:100C5000D064A4CFDF70D06AA1CFA4E09695879529
:100C6000AA95E1F783702C2F26952695237030E006
:100C7000B5E0220F331FBA95E1F7382B8C2F837024
:100C8000C1E0D0E002C0CC0FDD1F8A95E2F7C22B95
:100C9000D32BDC6883CFD82FCC27C16FD06A7ECF0F
:100CA000C1E0D0E002C0CC0FDD1F2A95E2F7892F0A
:100CB00090E0E5E0880F991FEA95E1F7C82BD92B62
:100CC000E8CFDC2FCC27C46FD06A68CF0E9415070D
:100CD000C82FD0E0DC2FCC27CC27DF71D0625ECFCD
:100CE0008C2F8F700E94150734E0D695C7953A95E2
:100CF000E1F7CF709C2FEC01D06950CF823891057D
:100D0000B1F1B0F48133910509F475C048F489322A
:100D1000910509F469C08A32910509F473C00895F8
:100D20008533910509F459C08933910501F108957E
:100D3000833E9105A9F138F4803E9105F9F0823E99
:100D4000910549F10895863E9105A9F1873E9105E7
:100D5000C9F1843E910519F520917B0221FF1FC046
:100D600080917A0284FD14C087EE90E0089520916E
:100D70007A022370A1F080EE90E0089520917A022B
:100D800020FD47C030917B0230FF09C024FF44C0E2
:100D900090E080E004C020917A0222FDF7CF089510
:100DA00020917A0222FD3BC030917B0230FDE3CFDF
:100DB00024FFF5CFEDCF20917A0223FFF0CF24FD61
:100DC000E7CFD2CF20917A0223FD2CC030917B0255
:100DD00031FFEECF84EE90E0089520917A0225FF56
:100DE000DECF89E290E0089520917A0225FFD7CFE7
:100DF00085E390E0089520917A0226FFD0CF8AE221
:100E000090E0089520917A0226FFC9CF81E390E017
:100E1000089589E390E0089583EE90E0089582EECE
:100E200090E0089586EE90E0089590917A0292FF06
:100E300006C0282F28712830F9F4877F846093FF3B
:100E400006C0282F28712831F1F4877E8461209113
:100E50007B0220FF06C0382F38713830D9F4877FE5
:100E6000816021FF06C0282F28712831D1F4877EA8
:100E7000816194FD877E0895282F24712430F9F62E
:100E80008B7F8860DCCF282F2471243101F78B7E83
:100E90008861DDCF382F3171313019F78E7F88604E
:100EA000E0CF282F2171213121F78E7E8861E1CF9B
:100EB0000C9449090E9401088FE39CE90197F1F71E
:100EC00000C000000E94010880E00E949A0780FF95
:100ED00004C00E9458070C948C2208950C945A0761
:100EE0000E94BF20811102C00E9464210E94CA207A
:100EF00080936E020E94D22090937B0280937A02AC
:100F00000E946E070E94CE20682F70E090E080E083
:100F10000E94891D60915402709155028091560281
:100F2000909157020C94C31D08950C949407089552
:100F30000C949707E82FF0E0EE0FFF1FEC57FD4FE2
:100F4000808191810895089580EA8A95F1F7089546
:100F500000C008950C94A407F894E82FE295EF7070
:100F6000F0E031A1282F2F7081E090E001C0880FC0
:100F70002A95EAF7982F9095932391A392A1892B14
:100F800082A378940895CF93DF9381E90E94AC0700
:100F900086E90E94AC0785E90E94AC0784E90E94BB
:100FA000AC07CAE4D1E089910E94AC0781E0C63564
:100FB000D807C9F710927D0210927C021092850228
:100FC0001092840210927F0210927E021092870289
:100FD0001092860210928102109280021092890271
:100FE00010928802109283021092820210928B0259
:100FF00010928A0284E00E948108DF91CF910C94C4
:101000002504AF92BF92DF92EF92FF920F931F934E
:10101000CF93DF93C6E5D1E00CE712E0D12CEE24AC
:10102000E394F12C8991F894E82FE295EF70F0E0C9
:1010300021A18F70A70102C0440F551F8A95E2F7C6
:10104000CA01922F982B91A392A18095892382A304
:1010500078940E94A807EAE4F1E030E020E0B12CA7
:10106000A12C4191A42FA295AF70B0E090968C91E5
:1010700090E04F7002C0959587954A95E2F780FD04
:101080003BC0C701022E02C0880F991F0A94E2F7E5
:10109000A82AB92A2F5F3F4F2C30310511F7FE01E6
:1010A000319780810E94AC070E94AA07F8018081D5
:1010B0009181A816B90619F1B182A08281E0D82ADF
:1010C0000E5F1F4FF1E0CA35DF0709F0ABCF2D2DC2
:1010D00044E064E872E08CE792E00E9482080E949B
:1010E00029048D2DDF91CF911F910F91FF90EF90EB
:1010F000DF90BF90AF90089590E080E0C9CF80E08E
:10110000DECF0895FF920F931F93CF93DF93F82EB6
:10111000092F162FD72FC42F222349F081E0809367
:10112000AE010E9441229093AD018093AC01809169
:10113000AE018823A1F08091AC019091AD010E9495
:101140005922069760F0EF2DF02FA12FBD2F90E0D0
:1011500080E0D0E08C179D0744F01092AE01DF9143
:10116000CF911F910F91FF900895219131912D936F
:101170003D930196EFCF81E008950C94BB085398FE
:101180005B9A52985A9A89B183FB882780F94A99C9
:1011900005C090E0892B8093B101089592E0FACFC9
:1011A000E091B101EE0FEE0FE093B10149B143FBC5
:1011B000882780F949B142FB222720F942FF02C06B
:1011C00022E030E0822BE82BE093B101EF70F0E0F9
:1011D000E65AFE4F80819091B001890F8093B00153
:1011E00020E0843054F08091AF018F5F8093AF0195
:1011F00060E080E00E94BD0821E08091B0018D3F59
:1012000054F48091AF0181508093AF0161E080E0A0
:101210000E94BD0821E08091B001082E000C990BBE
:1012200064E070E00E94BF298093B001822F08958E
:1012300083E290E00E94142A8C3389F484E290E0E7
:101240000E94142A833659F485E290E00E94142A01
:1012500091E08D3809F090E0892F8170089580E049
:10126000FCCFCF93C82F6FEF81116CE383E290E046
:101270000E94222A6FEFC11163E684E290E00E948F
:10128000222A6FEFC1116DE885E290E0CF910C94B6
:10129000222A80E00E9431090C94B920089586E248
:1012A00090E00E94142A682F70E090E080E008959A
:1012B00086E290E00C94222A0E944E090E941809AE
:1012C00081110CC060E070E0CB010E9458090E94BF
:1012D000AC0E0E94FC0F81E00C9431090895CF936D
:1012E000FB01C281CC2309F19C0122513F452031F1
:1012F000310520F582510E940C10C0E08C2FCF9157
:10130000089581E00E94EB1D43E062E081E00E94CD
:101310001304F3CF81E00E940C1E43E062E081E001
:101320000E941304EBCF82E0F6CF8031FFE59F07E8
:1013300089F381319F45B9F3C1E0E0CF8031EFE51A
:101340009E07F9F281319F45C9F682E0DBCF2FEF8E
:10135000FC0120830895EF92FF920F931F93CF9388
:10136000DF93EC01062F88812091C6013091C701DF
:10137000232B79F08E3F09F057C08981833020F00C
:101380008550833008F050C0602FCE010E94970C2A
:101390004BC08C3009F4A1C0D0F4843009F484C06F
:1013A00060F4823009F44AC008F071C08130C9F19C
:1013B000602FCE010E94A70937C0863009F48AC089
:1013C00008F47DC08A30A0F78FEF88832DC080316C
:1013D00009F4A0C0D8F48E3009F48BC008F481C0A1
:1013E0008091000190910101892BF1F06B8170E0F7
:1013F0006D317105C8F489819A81AE014C5F5F4FF0
:101400009827892798270E94D10F0EC0823109F4AE
:1014100087C008F482C0833109F493C08E3F41F63F
:10142000B3CF198289E08A83602FCE01DF91CF91FB
:101430001F910F91FF90EF900C94202389818230AF
:1014400071F0833079F0813009F0B2CF0E944D22E3
:101450000E94D9296A837B838C839D83E5CF0E9478
:101460004F09F6CF8091000190910101892BE1F2A3
:101470007E0110E0812F0E949A07F70192838383F7
:101480001F5FF2E0EF0EF11C1430A1F7CDCF898180
:10149000823009F08DCF6A817B818C819D810E9491
:1014A000D9290E945809C0CF4B816A8189810E9445
:1014B0000A0E9827892798279D838C83B5CF2C8186
:1014C0003D813227232732274B816A8189810E94FF
:1014D0002C0EAACF0E94AC0EA7CF0E94A50F898325
:1014E000A3CF0E94A70F9827892798279A838983DB
:1014F0009BCF6B8170E06D31710508F095CF8981CC
:101500009A81AE014C5F5F4F9827892798270E94E8
:10151000AA0F8ACF0E94FC0F87CF0E94F10DDFCF68
:101520006B8170E06D31710508F07ECF89819A8101
:10153000AE014C5F5F4F9827892798270E942F0F95
:1015400073CF6B8170E06D31710508F06DCF8981CB
:101550009A81AE014C5F5F4F9827892798270E9498
:10156000550F62CF8F929F92AF92BF92CF92DF9230
:10157000EF92FF920F931F93CF93DF93CDB7DEB718
:101580002A970FB6F894DEBF0FBECDBF0CE812E06D
:10159000F12CE12C8EECC82E8BE0D82E98EFA92EE2
:1015A0009BE0B92E27E3822E2BE0922EF801D18208
:1015B000C082B382A28295828482F58AE48ABE01C7
:1015C0006F5F7F4F8E2D0E94540E892B29F48985E1
:1015D0009A85F801938B828BFFEFEF1AFF0A0A5E60
:1015E0001F4F88E0E816F10409F72A960FB6F89421
:1015F000DEBF0FBECDBFDF91CF911F910F91FF9046
:10160000EF90DF90CF90BF90AF909F908F90089514
:10161000CF93DF9300D000D00F92CDB7DEB7909379
:10162000650380936403811520E2920748F40F90CC
:101630000F900F900F900F90DF91CF910C945A0361
:101640008EEF89838A831B820E9441228160782FDA
:101650009D838C8349815A816B818D810F900F907E
:101660000F900F900F90DF91CF910C94EF160F9386
:101670001F93CF93DF938C01EB0162EB71E08C2F12
:101680000E94540E892BA1F48FE39CE90197F1F796
:1016900000C00000DD27C454DE4F8881F8011082AD
:1016A0001882833009F148F4813059F0823081F09A
:1016B000DF91CF911F910F9108958430D1F0853043
:1016C000B9F78091B2019091B301009789F306C0F8
:1016D0008091B4019091B501009799F3DF91CF917A
:1016E0001F910F910C94080B8091B6019091B70156
:1016F000F3CF8091B8019091B901009779F72091CB
:10170000B2013091B3018091B4019091B5012115DE
:101710003105D9F2009711F7C901E0CFCF93DF93DC
:1017200000D000D00F92CDB7DEB7909365038093C1
:101730006403811520E2920748F40F900F900F90F8
:101740000F900F90DF91CF910C9445038EEF89831A
:101750008A8381E08B830E9441228160782F9D8360
:101760008C8349815A816B818D810F900F900F90EE
:101770000F900F90DF91CF910C94EF16CF93DF93E2
:10178000EC010E948E0B8FE39CE90197F1F700C0FA
:101790000000CE01DF91CF910C94080B0F931F93A3
:1017A000CF93DF938C01862F62EB71E00E94540E81
:1017B000892BC9F4C091B201D091B301209799F05F
:1017C000F8018081833069F4CE010E94BE0BCE0106
:1017D0000E94BE0BCE01DF91CF911F910F910C940F
:1017E000BE0B8430B8F7DF91CF911F910F91089510
:1017F0000F931F93CF93DF938C01EB0162EB71E0AA
:101800008C2F0E94540E892B09F064C0FE01FF2723
:10181000D8018C91E454FE4F8130D9F419969C91F3
:101820001997992311F080830CC01A969C919923E3
:10183000D1F382E080838091B4019091B50100974B
:10184000D9F48091B2019091B301009709F442C09C
:1018500013C08230E9F519968C91199781112DC02A
:101860001A968C9181110EC083E080838091B6011D
:101870009091B701009719F1DF91CF911F910F91CE
:101880000C948E0B84E080838091B8019091B90113
:10189000009791F78091B2019091B3010097F9F010
:1018A0000E94BE0B8091B4019091B501009721F781
:1018B0008091B2019091B301DFCF85E08083809168
:1018C000B2019091B301009729F00E94BE0BF0CFB6
:1018D00086E08083DF91CF911F910F9108958091D1
:1018E000B4019091B501B1CF0E94B20AECE3F3E0EC
:1018F0001182108281E090E09683858382E090E0FF
:101900009387828783E090E0908B878784E090E0E4
:10191000958B848B85E090E0928F818F86E090E0BC
:10192000978F868F87E090E094A383A30895CF924A
:10193000DF92FF920F931F93CF93DF93CDB7DEB764
:101940002A970FB6F894DEBF0FBECDBF8C01603270
:1019500069F5DC011196EC911197EE3038F5F0E065
:10196000E05AF54D0C94D32988E0E1E1F1E0DE0185
:10197000119601900D928A95E1F780E2F80111929B
:101980008A95E9F784E0D8018C9311961C921197FF
:1019900012961C92129713961C92139788E0FE01E0
:1019A0003196149601900D928A95E1F72A960FB61A
:1019B000F894DEBF0FBECDBFDF91CF911F910F9185
:1019C000FF90DF90CF90089580EAF801808381E056
:1019D000818312821382EACF13968C911397682F1A
:1019E00070E0762F662712968C91860F972F911DA7
:1019F000092E000CAA0BBB0B45E0880F991FAA1FEC
:101A0000BB1F4A95D1F7AC01BD01405E5F4F6F4FE0
:101A10007F4F481759076A077B0740F2803AE1E099
:101A20009E07A105B10510F6413AF1E05F07610597
:101A3000710520F040EA51E060E070E0481B590B6E
:101A4000BC016C557D4FC8010E94F429AFCF40E224
:101A500050E06FEF70E00E94FD2980910001D801F5
:101A60008C938091C60111968C93A0CF81E090E079
:101A70009093C7018093C60182E390E09093C501E3
:101A80008093C4010E94412291CF80910001F8010E
:101A900080838091C60181838091C401828386CF37
:101AA00040E250E06FEF70E02A960FB6F894DEBF88
:101AB0000FBECDBFDF91CF911F910F91FF90DF90AF
:101AC000CF900C94FD2912968C9112978230F1F1EF
:101AD000E8F4882399F1813009F068CFF801838117
:101AE0002AE0F22E9E012F5F3F4F6901D901EF2DB1
:101AF0001D92EA95E9F7B9010E94540ED8018D9321
:101B0000F60101900D92FA94E1F750CF833099F1EC
:101B1000843009F04BCF13968C919AE0F8013496FB
:101B2000DE01119601900D929A95E1F7BE016F5F6B
:101B30007F4F0E94960EF801808338CF80E2F80133
:101B400011928A95E9F788E08C938DCF13968C914A
:101B50009AE0F8013496DE01119601900D929A9563
:101B6000E1F7BE016F5F7F4F0E946A0EF80180832C
:101B70000E94B20A1BCF13968C919AE0F92EFE01B7
:101B800031966F01DF01EF2D1D92EA95E9F7B6015D
:101B90000E94800EB3CF1F93CF93DF93CDB7DEB7F4
:101BA0002A970FB6F894DEBF0FBECDBF162FBE0129
:101BB0006F5F7F4F0E94800E892B31F489859A8553
:101BC000112361F00E948E0B2A960FB6F894DEBFA7
:101BD0000FBECDBFDF91CF911F9108950E94080BDA
:101BE000F3CF84E00895E82F862F90E068E170E05D
:101BF0000E94AE29242F30E0220F331F280F391FF7
:101C00008E2F90E060E670E00E94AE29820F931F55
:101C1000879608950F931F93CF93DF938430C8F472
:101C20006430B8F44C30A8F40E94F30D8C010E948B
:101C3000142AC82FD0E0DC2FCC27C80101960E94BF
:101C4000142A9E01282BC901DF91CF911F910F917A
:101C5000089590E080E0F8CF0F931F93CF93DF9328
:101C6000E9018430E0F46430D0F44C30C0F4211544
:101C70003C4531F42091000130910101232B79F092
:101C80000E94F30D8C016D2F0E94222A6C2FC80137
:101C90000196DF91CF911F910F910C94222ADF9131
:101CA000CF911F910F9108959B01883080F490E0AF
:101CB0006AE070E00E94AE29BC0169557E4F4AE09F
:101CC00050E0C9010E94042A90E080E008958FEF5F
:101CD0009FEF08959B01883080F490E06AE070E007
:101CE0000E94AE29BC0169557E4F4AE050E0C9010F
:101CF0000E94462A90E080E008958FEF9FEF0895BC
:101D00009B01883080F490E06AE070E00E94AE2988
:101D1000BC0169507E4F4AE050E0C9010E94042A8C
:101D200090E080E008958FEF9FEF08959B01883049
:101D300080F490E06AE070E00E94AE29BC01695036
:101D40007E4F4AE050E0C9010E94462A90E080E0C0
:101D500008958FEF9FEF08957F928F929F92AF9299
:101D6000BF92CF92DF92EF92FF920F931F93CF9388
:101D7000DF93CDB7DEB764970FB6F894DEBF0FBE22
:101D8000CDBFA0900001B090010181E090E0909360
:101D900001018093000184E7C82E80E0D82E00E086
:101DA000760110E015C0F40125913491472D612F83
:101DB000802F0E942C0E82E0880E911C73949CE070
:101DC0007912F1CFE8E1EE0EF11C1F5F143019F02B
:101DD0004701712CE8CF0F5FF0E6CF0ED11C043025
:101DE000F9F61C861B861E861D86188A1F861A8A8F
:101DF000198A88EC90E09C8B8B8B10E0BE01655FAC
:101E00007F4F812F0E946A0E1F5F1830B9F7CE01F5
:101E100001967C018AE0F70111928A95E9F710E0BA
:101E2000B701812F0E94960E1F5F1830C9F7B0923C
:101E30000101A092000164960FB6F894DEBF0FBEB8
:101E4000CDBFDF91CF911F910F91FF90EF90DF9069
:101E5000CF90BF90AF909F908F907F900895EF921A
:101E6000FF920F931F93CF93DF93EC018A017C01C4
:101E7000E60EF71ECE018796CE15DF0539F4DF9109
:101E8000CF911F910F91FF90EF900895C03821E0FE
:101E9000D20740F40E94142AF80180830F5F1F4F7D
:101EA0002196E8CFF8011082F9CFCF92DF92EF921E
:101EB000FF920F931F93CF93DF938C016A018038B9
:101EC000914080F480E891E0801B910B8617970782
:101ED00048F07801E60EF71EE801CE018796CE1590
:101EE000DF0549F4DF91CF911F910F91FF90EF90A3
:101EF000DF90CF900895C03821E0D20740F4FE0172
:101F0000E01BF10BEC0DFD1D60810E94222A219641
:101F1000E4CF462F2091C6013091C701232B91F4C5
:101F20007E3F39F46E3F71F48091640390916503B4
:101F30000895843038F4743028F46C3018F4672F26
:101F40000C940A0E90E080E0089580E1089589EBFA
:101F500091E00895EF92FF920F931F93CF93DF9339
:101F6000EC018A017C01E60EF71ECE01895B9D4FD4
:101F7000CE15DF0539F4DF91CF911F910F91FF90BE
:101F8000EF900895C93B21E0D20740F40E94142A43
:101F9000F80180830F5F1F4F2196E7CFF801108271
:101FA000F9CFCF92DF92EF92FF920F931F93CF93CF
:101FB000DF937C016A018C01060F171FEC01CE0133
:101FC000895B9D4FC017D10749F4DF91CF911F91D5
:101FD0000F91FF90EF90DF90CF900895C93B21E0E3
:101FE000D20740F4FE01EE19FF09EC0DFD1D6081E2
:101FF0000E94222A2196E3CFCF93DF93C7E4D2E059
:1020000060E0CE010E94222A2196C11584E0D80703
:10201000B9F7DF91CF910895CF92DF92EF92FF92BF
:102020000F931F93CF93DF9300D000D0CDB7DEB7CF
:10203000F82E2FE0281740F08FEF93E00E94142A2B
:1020400007E412E08823C9F00F900F900F900F90D3
:10205000DF91CF911F910F91FF90EF90DF90CF9084
:102060000895011544E0140779F3C8010E94142A69
:10207000811101C0FA940F5F1F4FF110F2CF198246
:102080001A821B821C8278015FEFE51AF50AC801EB
:102090000E94142A89831A828823B1F2813009F0C0
:1020A00045C0680182E0C80ED11CC7010E94142AF5
:1020B000E82E8A83882341F2C6010E94142AF82E52
:1020C0008FEF8E0D833068F46801E3E0CE0ED11CF3
:1020D000FB82FF2021F0CE0101960E947805860147
:1020E000D2CFF4E0EF12FBCF680124E0C20ED11C86
:1020F000C80103960E94142AFF2009F4A5CF882363
:1021000009F4A2CF8150990B6FEF70E00E94AE29C5
:102110004F2D4150550B840F951F019700F3EFE9A8
:10212000FFE03197F1F700C00000F7CFCE01019634
:102130000E9478056701D3CF0F931F93CF93DF934E
:10214000C42FD22FFC0182818823C9F04093CA0199
:102150000E9441229093C9018093C80180E28C0FB4
:10216000883008F050C0C77081E001C0880FCA9560
:10217000EAF7DF91CF911F910F910C94C217109144
:10218000CA01141335C08091C8019091C9010E9401
:102190005922883C910560F5C0E2CD0F1D17B9F0BA
:1021A00080E2810F883040F4177081E001C0880F11
:1021B0001A95EAF70E94C917C83048F481E09D2FAC
:1021C000977001C0880F9A95EAF70E94C217802F76
:1021D0000E94BA17C830B8F4D77081E001C0880FE8
:1021E000DA95EAF7DF91CF911F910F910C94C917FF
:1021F00080E28C0F883038F4C77081E001C0880F0E
:10220000CA95EAF7EFCFDF91CF911F910F91089513
:102210000F939C01CB01233F4CE5340759F1A8F4FF
:10222000283DFCE53F0701F1293D4CE53407D1F19C
:10223000273D3C4591F406E221EE41EE67ED7CE559
:102240000E949C1080E00F910895253FFCE53F0718
:10225000E9F0B0F0263F3C45F9F0FC01828188238B
:1022600039F11092CA01EFCF07E225EE45EE68ED95
:102270007CE5E6CF06E221EE40EE63EF7CE5E0CFC1
:1022800007E225EE44EE64EF7CE5DACF06E221EECC
:1022900042EE65EF7CE5D4CF07E225EE46EE66EF31
:1022A0007CE5CECF08E221E045EE69ED7CE5C8CFC4
:1022B00081E0C9CFCF93DF93EC01FB0182818823BA
:1022C00009F419C1C230FCE5DF07C0F1C6319CE555
:1022D000D90730F09E012A5F3C452930310570F561
:1022E0000E94D22090937B0280937A02C031ECE569
:1022F000DE0709F4CFC008F05BC0C8308CE5D80712
:1023000009F4B6C088F5C430ECE5DE0709F4A8C0CE
:10231000C0F4C2308CE5D80709F49CC080917A02E1
:102320008260C330DC4509F498C080917A029091B4
:102330007B020E94E0200E945F1A80E0DF91CF9133
:10234000089580917A028061C630ECE5DE0709F4D9
:1023500084C080917A028860C730DC4508F47DC073
:1023600080917A02806279C0CC308CE5D80709F47C
:1023700089C070F480917A028C60CA30ECE5DE0787
:1023800009F46BC008F478C080917A028E7F65C032
:10239000CE308CE5D80709F479C080917A028B7F22
:1023A000CF30DC4508F459C080917A028F7E55C049
:1023B000CB3FECE5DE0709F457C030F5C3318CE5BF
:1023C000D80709F46FC078F4C131ECE5DE0709F4F1
:1023D00065C0C231DC4509F0A8CF0E945F1A809128
:1023E0007A028F773AC0C5318CE5D80709F462C00C
:1023F00008F476C080917B028160CA3FDC4509F019
:1024000094CF80937B0291CFCF3FFCE5DF0709F4A7
:102410004DC088F480917B028D7FCD3F9CE5D9072C
:1024200081F380917B028E7FCE3FDC4550F380911B
:102430007B028360E6CFC130FDE5DF0709F459C0B8
:1024400008F444C080E0C230DD4509F06ECF0E9440
:1024500066216BCF80917A02816080937A0265CF8A
:1024600080917A028460F9CF80917B028260C9CF2B
:1024700080917A028064F1CF0E945F1A80917A0283
:102480008068EBCF80917A028D7FE7CF80917A02CE
:10249000877FE3CF80917A028F7DDFCF80917A02B0
:1024A0008F7BDBCF80917A02837FD7CF80917B02B5
:1024B0008C7FA7CF80917A0282FB992790F921E047
:1024C000922790FB82F990FB83F9C7CF80917B0222
:1024D000982F909591708E7F892B90FB81F991CFE9
:1024E0000E945F1A90917A02892F97FB87F9805892
:1024F000B4CF81E0ACCF81E021CFCF93DF93EB016C
:1025000086319C4511F50E94CE1F9A81992399F03E
:102510008A7A91E009F490E09093CB01811109C08F
:1025200089E20E94601F0E94392080E0DF91CF91F4
:10253000089585E3F6CF8091CB01811104C089E233
:102540000E94671FF0CF85E3FBCF81E0EFCFECE384
:10255000F3E083E0E436F80739F488E090E0909304
:10256000DD018093DC010895848187FF1482359614
:10257000F0CFCF939091DA01992321F0811116C009
:102580001092DA01CF910895EC2FF0E0EE0FFF1FCB
:10259000E453FE4F808191810E9445030E943920BF
:1025A000CF5F8091DA01C81778F3EACFC0E0F9CFA6
:1025B00080910201882381F08091DE019091DF01FA
:1025C000009751F00E945922893C910528F081E042
:1025D0000E94B9120C94A712089510920201109251
:1025E000DF011092DE0181E00C94B91280910201AA
:1025F00081110C94ED1281E08093020108953F92C5
:102600004F925F926F927F928F929F92AF92BF9202
:10261000CF92DF92EF92FF920F931F93CF93DF93AE
:10262000CDB7DEB72A970FB6F894DEBF0FBECDBF89
:102630007C015B01873F4CE5940701F5FB011281AA
:10264000112389F181E080930201812F2A960FB630
:10265000F894DEBF0FBECDBFDF91CF911F910F91D8
:10266000FF90EF90DF90CF90BF90AF909F908F90B2
:102670007F906F905F904F903F900895883FFCE56A
:102680009F0739F4FB011281112369F00E94ED12BA
:10269000DCCF893F9C4539F4FB011281112319F0ED
:1026A0000E94F612D2CF5090020111E0552069F23B
:1026B0001092DD011092DC0110E088248394912CAB
:1026C00044244394C090DC01D090DD01F8E0CF16A3
:1026D000D10480F08091DB01882309F4BBC00E9403
:1026E00041229093DF018093DE011092DB0181E0B3
:1026F0001827ABCFC60165E070E00E94AE29845C6C
:102700009C4FBE016F5F7F4FFC0180810E94800E55
:10271000892B61F000E0102B8091DC019091DD01AC
:1027200001969093DD018093DC01CCCFFE013196C0
:1027300090E080E033243A94282F41915191411543
:10274000510581F1E416F50609F4382E019684301E
:10275000910591F724E0FFEF3F16E1F2F5010281C8
:10276000C60165E070E00E94AE29845C9C4F3C018C
:10277000FC018481A40102C0440F551F2A95E2F791
:102780009A0121503109002389F1A40101C0440FAD
:102790003A94EAF7842B84838F778217130631F0FB
:1027A000052DB9CF823008F4B5CFD5CF80E00E9497
:1027B000B912F301848180688483C60165E070E00A
:1027C0000E94AE29845C9C4FFC018281938100971A
:1027D00029F00E9445034092DB019DCF61E080918A
:1027E000DC019091DD010E94CB0DF5CF8F77821730
:1027F000130631F482819381009721F10E945A03DC
:10280000C60165E070E00E94AE29FC01E45CFC4F6B
:102810008481482F50E0032C02C0559547950A94B7
:10282000E2F740FF77CF940101C0220F3A94EAF714
:1028300020952823248327FF6DCF203809F0B0CFBF
:102840001482AECF60E08091DC019091DD010E94A6
:10285000CB0DD6CF111106C081E00E94B9120E94A3
:10286000A71245CFF5018281882309F440CF0E9449
:1028700041229093DF018093DE01E091DA01E7309D
:1028800008F035CF81E08E0F8093DA01F0E0EE0F93
:10289000FF1FE453FE4FF182E08229CFCF93DF93F5
:1028A000EC0181E0898B8F810E94D11F88850E9475
:1028B000E41F0E943920EA81FB81309739F06C894E
:1028C0007D89CE010696DF91CF910994DF91CF915A
:1028D00008950F931F93CF93DF93EC018A858111A5
:1028E00032C00B811C811755C80166E170E00E945F
:1028F000AE29DC01A457BD4F1496ED91FC911597BC
:10290000309731F054966D917C918E569D4F09957C
:10291000C80166E170E00E94AE298C0104571D4F8A
:10292000F80187810E94D71FF80180850E94EA1F65
:102930000E943920188219861B861E821D821092E1
:10294000E1011092E001DF91CF911F910F91089565
:10295000DF92EF92FF920F931F93CF93DF937C014F
:10296000FB018281882391F0809103018F3F71F0F8
:10297000CCE8D2E010E000E0DD24D39480910301A4
:10298000082E000C990B8017910744F4DF91CF912A
:102990001F910F91FF90EF90DF9008958E81882313
:1029A000D9F089859A858E159F0539F48091E001CB
:1029B0009091E1018E159F0579F0DF86FC86EB860C
:1029C0008989811103C0CE010E944E14CE01069662
:1029D0000E9469140E94F11F0F5F1F4F6696CECFB1
:1029E000EF92FF920F931F93CF93DF937C01FB0134
:1029F0008C0117550F3F110511F008F03EC0809172
:102A00000301082E000C990B8017910714F4009312
:102A100003012281C80166E170E00E94AE29EC0149
:102A2000C457DD4F288B92818E81992371F1FA86EC
:102A3000E9868F5F8E830E9441229E878D870E9448
:102A4000F71F8F830E94CE1F88870E94E11F988501
:102A5000892B8887E881F981309759F02C893D8945
:102A6000C80166E170E00E94AE29B9018E569D4F03
:102A70000995F092E101E092E00181E0DF91CF91D0
:102A80001F910F91FF90EF9008958823B1F38989EA
:102A9000882399F3C80166E170E00E94AE298E5642
:102AA0009D4F0E946914E9CFEF92FF921F93CF933D
:102AB000DF938091030110E08F3FE9F5DF91CF9123
:102AC0001F91FF90EF900895CE0166E170E00E94A3
:102AD000AE2984579D4FFC01E288F388E114F1048C
:102AE00019F488ECE82EF12CCE0166E170E00E942A
:102AF000AE29FC01E457FD4F86818823D9F08585F6
:102B000096850E945922E816F906A0F4CE0166E1E6
:102B100070E00E94AE297C0184579D4FFC018189A1
:102B2000811103C0CF010E944E14C7018E569D4FE4
:102B30000E9469141F5FC12FD0E080910301082E0D
:102B4000000C990B8C179D070CF0BECFB7CF90935C
:102B5000E7018093E6010895E091E601F091E70135
:102B6000309721F00190F081E02D099480E00895E4
:102B7000E091E601F091E701309721F00280F381C6
:102B8000E02D099408952091E4013091E501281782
:102B9000390771F09093E5018093E401E091E6013B
:102BA000F091E701309721F00680F781E02D09943C
:102BB00008952091E2013091E3012817390771F05F
:102BC0009093E3018093E201E091E601F091E70147
:102BD000309721F00084F185E02D099408950E943A
:102BE0004D226093F9017093FA018093FB01909359
:102BF000FC016093F5017093F6018093F7019093C7
:102C0000F80108950E944D226093F9017093FA0132
:102C10008093FB019093FC016093F1017093F201AA
:102C20008093F3019093F4010895089508950C940E
:102C3000151608950C94191687EB90E20E94B022A5
:102C40000E94740C0E9416160C94171681E00895C9
:102C50000C942616089508950E942A160C942B169B
:102C60000E9438220E94C3070E945C090E94BF088C
:102C70000C941A168F929F92AF92BF92CF92DF92CE
:102C8000EF92FF920F931F93CF93DF93CDB7DEB7F1
:102C90002A970FB6F894DEBF0FBECDBF0E94010881
:102CA00081110E94EF1559EE852E51E0952E10E00E
:102CB00000E0A02E802F0E949A076C01F401E190A1
:102CC000F1904F01E816F90609F45FC080916E0299
:102CD00081FD0E94A307C7018C259D25B12CEE2400
:102CE000E394F12C9C012E213F21232B09F447C0B2
:102CF0000E9428168823A9F0BE82AF82CE20DF2052
:102D000081E0CD2809F480E088870E94412281601B
:102D1000782F9A8789874E815F8168858A850E948E
:102D2000EF16000F111FF801E751FE4F80819181CE
:102D3000E826F926F182E0820E94D00881110E94E3
:102D400002160E94AC159091E8018917A9F10E9422
:102D5000AC158093E8012A960FB6F894DEBF0FBE3B
:102D6000CDBFDF91CF911F910F91FF90EF90DF903A
:102D7000CF90BF90AF909F908F900C948205B394AA
:102D8000EE0CFF1CFCE0BF12ADCF0F5F1F4F0430F5
:102D9000110509F08ECF8FEF89838A831B820E94F1
:102DA00041228160782F9D838C8349815A816B8178
:102DB0008D810E94EF16C0CF2A960FB6F894DEBF21
:102DC0000FBECDBFDF91CF911F910F91FF90EF907C
:102DD000DF90CF90BF90AF909F908F900895CF924B
:102DE000DF92FF920F931F93CF93DF93CDB7DEB7A0
:102DF0002B970FB6F894DEBF0FBECDBF7A878B87B7
:102E0000F42E052F162FCA84DB8461110E94F11F56
:102E10001E821D82F9820A831B83DD82CC820E947E
:102E2000901F882319F082E00E949B200E94771F48
:102E300081110E942B2049815A816B817C818D8177
:102E40009E812B960FB6F894DEBF0FBECDBFDF91EB
:102E5000CF911F910F91FF90DF90CF900C94DB1CCE
:102E6000FC01808191810C94321FCF93C82F88235D
:102E700009F43FC08CEF8C0F813AA0F46C2F809145
:102E80000401909105010E947D21882329F08C2F57
:102E90000E94671F0E9439208C2F0E94601FCF91D3
:102EA0000C94392080E28C0F883048F4C77081E0A0
:102EB00001C0880FCA95EAF70E94D11FF0CFEBE559
:102EC000EC0FE33040F4F0E0E856FE4F808190E0F4
:102ED000CF910C94C315C85AC73158F4EC2FF0E0C9
:102EE000EE0FFF1FE659FE4F80819181CF910C9428
:102EF000D915CF910895882329F19CEF980F913A25
:102F000020F40E94671F0C94392090E2980F9830AB
:102F100050F4877091E001C0990F8A95EAF7892FE4
:102F20000E94D71FF0CF9BE5980F933020F490E0DC
:102F300080E00C94C315885A873120F490E080E03B
:102F40000C94D91508951F93CF93DF93182FEB019D
:102F50000E943517209731F4812FDF91CF911F9177
:102F60000C947B178FE99FE00197F1F700C00000F8
:102F70002197F0CF6AE070E0893311F460E570E0EA
:102F80000C94A317882321F00E94D11F0C943920A0
:102F90000895882321F00E94D71F0C9439200895AA
:102FA000BF92CF92DF92EF92FF920F931F93CF9336
:102FB000DF936C01D62FC72FFC010281158112957A
:102FC0001F700E94A61FE82E8823A1F0E02E002388
:102FD00089F08C2F807F803429F080E28D0FE12CE6
:102FE000883040F082E00E949B200E94A61F91E062
:102FF000E82EE926BC2EB2949FE0B922FBE0FB1537
:1030000098F1EB2DF0E0E259F54D0C94D3291C2FEB
:103010001F70C07F11F01295107F0023A9F01123BB
:1030200059F080E28D0F883010F0D11109C0812F46
:103030000E94D11F0E9439208D2F0E94351714C085
:10304000812F0E94E41FF6CF8D2F0E947B17112342
:1030500059F080E28D0F883010F0D1112BC0812FF4
:103060000E94D71F0E943920EB2DE850FF0B3497A8
:1030700020F40E94AC150E948205EE2009F4B6C12E
:103080000E948C1F80FDB2C1F60112820E94861F31
:103090000E94EB1DC6010E94171A0E94861FDF9135
:1030A000CF911F910F91FF90EF90DF90CF90BF9045
:1030B0000C940C1E812F0E94EA1FD4CF2C2F2F704E
:1030C000F22EC07FC03219F0F29480EFF822DD2397
:1030D00071F0D130E9F1002309F444C0112301F16A
:1030E000F601858180FFA8CF8F70858319C00023EA
:1030F000C9F0111106C00E94F71F8F290E94C21744
:10310000B3CF113031F40E94F71F8F290E94132092
:10311000ABCF153081F70E942B208F2D0E94FD1F11
:103120008F2DECCF111106C00E942B208F2D0E94F5
:10313000C9179ACF113041F40E94CE1F8F2109F494
:1031400093CF0E940620F0CF153009F48DCFECCF3D
:10315000002321F0163008F087CFE2CF153008F0B9
:1031600083CFE4CF112311F3D93309F037C1FFEF37
:1031700027EE33E0F15020403040E1F700C000007E
:103180008D2F0E947B1770CF8C2F8695869583702C
:1031900069F0813009F068CF8D2F9C2F9370011159
:1031A00002C090E080E00E94D9155ECF8D2F9C2F49
:1031B0009370011102C090E080E00E94C31554CFCB
:1031C0008C2F837009F041C001114ECF4D2F4295D5
:1031D00046954770440F440F0D2F0F7010E030E0FC
:1031E00020E0042E04C0000F111F221F331F0A9479
:1031F000D2F760E070E0CB01D4FF0FC06FE070E069
:1032000080E090E004C0660F771F881F991F4A95E1
:10321000D2F76095709580959095C695C695C370C8
:10322000602B712B822B932BC23049F058F4C130A4
:1032300019F00E949D1D18CF0E948B1D15CF0E9472
:10324000AF1D12CF0E94891D0FCF8695002311F06C
:103250008C2F8170882309F407CF4D2F4295469516
:103260004770440F440F0D2F0F7010E030E020E046
:10327000042E04C0000F111F221F331F0A94D2F71F
:1032800060E070E0CB01D4FF0FC06FE070E080E041
:1032900090E004C0660F771F881F991F4A95D2F7E8
:1032A0006095709580959095C695C695C370602B76
:1032B000712B822B932BC23049F058F4C13019F096
:1032C0000E94621ED1CE0E94501ECECE0E94741E5D
:1032D000CBCE0E94C51DC8CECF70002329F08C2F05
:1032E0000E94EB1D8D2F0ACF8D2F0E94C9178C2FA6
:1032F0000E940C1EB9CED23FC9F160F4D03F09F153
:10330000D13F69F1002309F45DC0111195CE8C2FD6
:103310008F7129C0D33F79F1D43FA1F7002309F47D
:103320003FC00E94741F0E94D71F0E948C1F8430D0
:1033300061F50E9492208C2F8F710E940C1EE12C4F
:1033400093CE002341F0153008F08ECE8C2F8F7174
:103350000E942F1E89CE163008F086CEF7CF8C2F14
:103360008F71002329F20E94EB1D7ECE8C2F8F716E
:103370000023C9F3BDCF002329F08C2F8F710E9449
:10338000D61D72CE0E94D11D6FCE1530C0F6CF7102
:103390008C2F0E94EB1D63E08C2F0E947620CFCFF4
:1033A0000E94741F0E94D11F153040F00E9492208D
:1033B0000E94062064E08C2F8F71EFCF81E00E9485
:1033C0009B20BDCF112379F0D93341F49FEFE7EE75
:1033D000F3E09150E040F040E1F7D0CE8FE39CE97C
:1033E0000197F1F7CBCE8C2F8F7182CFDF91CF91E8
:1033F0001F910F91FF90EF90DF90CF90BF900895B5
:103400000F931F93CF93DF93EC01688179818A81B9
:103410000E943C1F8C010E94861E0E94881DB801DC
:10342000CE01DF91CF911F910F910C94D017CF93C4
:10343000DF93EC018B819C81892B29F08881998114
:1034400089238F3F59F4DF91CF910895CE010E94D7
:10345000001ACE01DF91CF910C94B403CE010E94EB
:10346000A5048111F3CF0E94A61F882361F38A81EE
:10347000882349F382E0DF91CF910C949B2088232D
:1034800021F00E94E41F0C9439200895882321F034
:103490000E94EA1F0C943920089590E080E00E9479
:1034A000C31590E080E00E94D9150E94F11F0E9490
:1034B000F41F0C9439200E946E1F0C944D1A0E9428
:1034C000DE1F0C945B1AE92FE295EF70E250EE30AC
:1034D00070F4F0E0E658F54D0C94D329803F19F0D4
:1034E00020F4883E20F481E00895843FE1F380E0F9
:1034F0000895883EC0F3813FD1F7F5CF93FB88272D
:1035000080F908950E94321F0C94631ACF93DF93C1
:1035100000D000D00F92CDB7DEB70F900F900F9074
:103520000F900F90DF91CF910895CF93DF9300D04C
:1035300000D000D0CDB7DEB726960FB6F894DEBF28
:103540000FBECDBFDF91CF910895CF93DF93C09190
:10355000FE018091FF018C1303C0DF91CF9108958C
:10356000D0E0CE0166E070E00E94AE29FC01E050A0
:10357000FE4F4081518162817381848195810E94D7
:10358000951A2196C770E5CF4091300250913102D3
:103590006091320270913302809134029091350231
:1035A0000C94951A1F93CF93DF9380913502807FFF
:1035B000A1F480913202882381F02091FE01B09124
:1035C000FF0140913002A0913102C0913302D091AD
:1035D0003402142F1A23B21304C0DF91CF911F912C
:1035E000089530E0209711F01F3F21F42F5F3F4FE7
:1035F0002770F1CFC90166E070E00E94AE29FC019E
:10360000E050FE4F81818A13F1CF80818413EECF89
:1036100082818111EBCF838194818C1B9D0B883C2F
:10362000910520F7809135028F708061809335027B
:10363000C90166E070E00E94AE29FC01EB5FFD4F1E
:1036400090819F709061908380E392E00E94171AAE
:10365000DF91CF911F910C94A51AAF92BF92CF9298
:10366000DF92EF92FF920F931F93CF93DF93CDB72B
:10367000DEB761970FB6F894DEBF0FBECDBF8C01E9
:1036800085E0F801DE011D9601900D928A95E1F723
:10369000F80140812181E28080E3C82E82E0D82EAB
:1036A00060913302709134026115710509F464C1AF
:1036B0009091300230913102892F83238F3F09F49A
:1036C0005BC1A380B480F0903202F501E61BF70BDA
:1036D000FF2009F4FEC080913502582F507FE83C4E
:1036E000F10508F0B3C051117AC0FE2C321323C08B
:1036F000941321C0E1101FC08F7080618093350248
:103700000E94C41AC6010E94171A80913502F8015E
:1037100085838F2D61960FB6F894DEBF0FBECDBFA7
:10372000DF91CF911F910F91FF90EF90DF90CF909D
:10373000BF90AF900895AB2829F0842F82238F3F4C
:1037400009F036C180E0F82FF170DF2EE091FE0124
:103750003091FF0180FD20C0EE20D9F2809135022A
:10376000816080933502F12CD4CFF0E0CF0166E088
:1037700070E00E94AE29DC01A050BE4F11968C91E2
:103780001197821307C08C91841304C012968C91F8
:103790008E11E2CF3196E770E313E7CF4D872E8786
:1037A0008D859E850E94321F292F22952F702230F1
:1037B00050F0243078F49F7051F0F8019581907F9B
:1037C00031F4D12C0AC09F7011F08823D1F3805EB0
:1037D0008830B8F3C8010E94171AFD2C9ACF321313
:1037E00006C0941304C0F801EE2009F48EC04D8782
:1037F0002E878D859E850E94821A882319F1EE20DE
:1038000009F180913502803270F0209130023091C0
:10381000310238872F831986BB86AA868C87CE0112
:1038200007960E94171A86E0F801A0E3B2E0019023
:103830000D928A95E1F70E94D21A0E94C41AFF24C1
:10384000F39467CFC8010E94171AF9CF511114C021
:103850007A2DB98AA88A522F6E2D89890E94861ADC
:1038600080E392E00E94171A86E0F60111928A9591
:10387000E9F70E94C41A77CF32130FC094130DC01A
:10388000E1100BC0F8018583C8010E94171A86E079
:10389000F60111928A95E9F73CCF4D872E878D85E9
:1038A0009E850E94821A882369F2EE2059F2809147
:1038B0003502803208F4B7CF2091300230913102C6
:1038C0003A8329831B82BD82AC828E83CE0101960E
:1038D000A8CFE83CF10508F041C0FE2CEE2009F429
:1038E000B1CF32132AC0941328C08091350280FDD5
:1038F0001BC0982F907FC1F0F8018583903F31F075
:10390000982F907F905F8F70892B8583C8010E94CC
:10391000171A86E0F801A0E3B2E001900D928A95B3
:10392000E1F70E94C41AF5CE86E0F801A0E3B2E008
:1039300001900D928A95E1F7ECCE4D872E878D850B
:103940009E850E94821A81116ECF8091350281601E
:1039500080933502C8010E94171ADBCE7A2DB98AEE
:10396000A88A522F6E2D89890E94861A86E0F60158
:1039700011928A95E9F7D5CFEE2009F463CF4D87F0
:103980002E878D859E850E94821AF82E882309F441
:1039900059CF86E0F801A0E3B2E001900D928A953C
:1039A000E1F780E392E00E9430170E94D21AB9CF6B
:1039B00081E08E25C8CECF93DF93CDB7DEB72C97AD
:1039C0000FB6F894DEBF0FBECDBF4F83588769870F
:1039D0007A878B879C87CE0107960E942D1B8823B0
:1039E000D1F08A859B85892B39F04F815885842FAA
:1039F00085238F3F09F076C08091FE019091FF01F1
:103A0000891349C02C960FB6F894DEBF0FBECDBF08
:103A1000DF91CF91089586E0FE013796DE01119681
:103A200001900D928A95E1F78A859B85892B21F378
:103A30008F81988589238F3FF9F28091FF0190E073
:103A40009C012F5F3F4F277033274091FE014217A3
:103A5000130671F40E945F1A1092FF011092FE018A
:103A600086E0E0E3F2E0DF011D928A95E9F7C4CF3A
:103A700066E070E00E94AE29DC01A050BE4F96E0E7
:103A8000FE01319601900D929A95E1F72093FF0186
:103A90000E94A51AB1CF90E066E070E00E94AE29C6
:103AA00080509E4F0E942D1B882309F4ABCF80913C
:103AB000FE0190E066E070E00E94AE29FC01E0505B
:103AC000FE4F4081518162817381848195810E9482
:103AD000951A8091FE0190E0019687709927809356
:103AE000FE018ACF69857A858B859C850E94951A0F
:103AF00083CF08950C94791D0E947A1D609358021B
:103B00007093590280935A0290935B020C944D1A61
:103B100008950C947C1D0F931F93009158021091EF
:103B2000590220915A0230915B02602B712B822B3B
:103B3000932B1F910F910C947C1D0F931F93009159
:103B400058021091590220915A0230915B02602371
:103B50007123822393231F910F910C947C1D0F934B
:103B60001F93009158021091590220915A023091EE
:103B70005B0260277127822793271F910F910C9476
:103B80007C1D0C94791D0C94C11D0E94C31D609373
:103B900054027093550280935602909357020C94EE
:103BA0004D1A60E070E0CB010C94C51D0F931F937C
:103BB00041E050E060E070E08A019B0104C0000F2A
:103BC000111F221F331F8A95D2F7C901B8011F9117
:103BD0000F910C94C51D0F931F9341E050E060E0DE
:103BE00070E004C0440F551F661F771F8A95D2F7F7
:103BF0008091540290915502A0915602B0915702C3
:103C00008A019B01082B192B2A2B3B2BC901B801D8
:103C10001F910F910C94C51D0F931F9341E050E02D
:103C200060E070E004C0440F551F661F771F8A953F
:103C3000D2F7CB01BA01609570958095909500916F
:103C40005402109155022091560230915702602380
:103C50007123822393231F910F910C94C51D0F9301
:103C60001F9341E050E060E070E004C0440F551F36
:103C7000661F771F8A95D2F7809154029091550262
:103C8000A0915602B09157028A019B01082719277B
:103C90002A273B27C901B8011F910F910C94C51D1C
:103CA0000F931F93009154021091550220915602D8
:103CB00030915702602B712B822B932B1F910F9108
:103CC0000C94C51D0F931F9300915402109155023F
:103CD000209156023091570260237123822393234F
:103CE0001F910F910C94C51D0F931F9300915402C7
:103CF000109155022091560230915702602771278A
:103D0000822793271F910F910C94C51D0895CF937F
:103D1000DF93282F892F362F9E3F79F16CE00E9488
:103D2000A529820F982F9770E1E001C0EE0F9A95B8
:103D3000EAF786958695869590E065E070E00E94AA
:103D4000AE29DC01AA5CBD4F50E040E0632F70E07B
:103D50008D91ED0121979B01042E02C03695279588
:103D60000A94E2F72170219528272E2328272883FB
:103D70004F5F5F4F4530510559F7DF91CF9108955F
:103D8000282F892F9E3F51F16CE00E94A529820FB8
:103D9000A82FA77086958695869590E065E070E0DF
:103DA0000E94AE29FC01EA5CFD4F50E040E080E05B
:103DB000219130E00A2E02C0369527950A94E2F749
:103DC00021703327042E01C0220F0A94EAF7822BB8
:103DD0004F5F5F4F4530510559F7089580E00895D2
:103DE000BF92CF92DF92EF92FF920F931F93CF93E8
:103DF000DF938C01C0905402D0905502E09056029F
:103E0000F09057028091580290915902A0915A0265
:103E1000B0915B02C82AD92AEA2AFB2ACFE1D0E076
:103E2000BC2ED701C6010C2E04C0B695A795979558
:103E300087950A94D2F780FD0EC0219788F7B12CA0
:103E40008B2DDF91CF911F910F91FF90EF90DF901D
:103E5000CF90BF900895B8018C2F0E948A050197DA
:103E600061F3EECFCF93DF93EC010E94F01EBE0111
:103E7000DF91CF910C948A051F93CF93DF93EB01D1
:103E80009091FD01992331F0CB01DF91CF911F91EA
:103E90000C94321F882379F0CB010E94F01E182F5A
:103EA000682FCE010E94871EBE01812FDF91CF9126
:103EB0001F910C948A05CB010E94C01E182FF4CFCD
:103EC000682F80910401909105010C94B321682F13
:103ED00080910401909105010C94B5218091040119
:103EE000909105010C94B7218091610208950E9480
:103EF000412220915F0230916002821B930B9C0152
:103F000081E02838334108F480E0089580915E0212
:103F1000859585958595089580915E0287700895B1
:103F20000E94412220915C0230915D02821B930B22
:103F30008838934148F080915E0282FB882780F99F
:103F400091E089278170089580E0FCCF90915E0216
:103F5000977081E009F480E0089590917B0292FBD4
:103F6000222720F9281751F080FB92F990937B02C9
:103F700080917A0290917B020C94E02008958091C8
:103F80007B0282FB882780F991E089270C94AD1F82
:103F900081E00C94AD1F80E00C94AD1F80916D0208
:103FA000089590916D02892B80936D0208958095FC
:103FB00090916D02982390936D02089510926D0276
:103FC000089580916C02089590916C02892B8093E2
:103FD0006C020895809590916C02982390936C02E6
:103FE000089510926C02089510926B0208958091CA
:103FF0006202089508950C94FA1F90916102981737
:1040000021F0809361020C94FB1F0895809161025E
:10401000882329F01092610280E00C94FB1F089520
:1040200008950C941020CF93C82F80917B0282FDBD
:1040300010C0809162028C1761F00E94412290931F
:10404000600280935F02C09362028C2FCF910C9428
:104050001120CF91089580916202882349F0109237
:1040600062021092600210925F0280E00C941120B4
:104070000895E0910401F091050180916D02808323
:10408000E0910401F0910501808190916C02892BEF
:104090008083E0910401F0910501808190916B0291
:1040A000892B8083809162028823B9F00E94771F58
:1040B00081110E942B20E0910401F0910501808183
:1040C00090916202892B8083809104019091050177
:1040D0000E946B2181110E942B20809104019091FC
:1040E00005010C94B81508950C94732090917B02EF
:1040F00092FD16C0982F990F990F990F962B9093B8
:104100005E020E94EB1D0E94412290935D0280930B
:104110005C0280915E028595859585950C9474204E
:104120000C94EB1D10925E0210925D0210925C02E4
:1041300080E00C94742090915E0280958923809396
:104140005E02282F277039F4282F082E000C330B1D
:104150009217130621F490917B0292FF07C0859578
:10416000859585950E940C1E0C949220089580E000
:1041700008956FEF7FEF90E080E00C94402A90E08C
:1041800080E00E941C2A21E08A3E9E4F09F020E038
:10419000822F089582E090E00C94142A83E090E04E
:1041A0000C94142ACF9384E090E00E94142AC82F24
:1041B00082E290E00E94142A982F8C2FCF910895CC
:1041C000CF93C92F682F84E090E00E94222A6C2FA1
:1041D00082E290E0CF910C94222AAB01BC018FE0E7
:1041E00090E00C94342AAB01BC0183E190E00C9484
:1041F000342A60E070E0CB010C94F32060E070E0C2
:10420000CB010E94ED200C94F9206AEE7EEF90E045
:1042100080E00E94402A60E082E090E00E94222A32
:1042200060E083E090E00E94222A109258021092EF
:10423000590210925A0210925B0260E084E090E012
:104240000E94222A60E082E290E00E94222A60E03E
:1042500085E090E00E94222A60E086E090E00E94E3
:10426000222A6FEF87E090E00E94222A40E050E08F
:10427000BA0188E090E00E94342A60E08DE090E08E
:104280000E94222A40E050E0BA0188E190E00E94BA
:10429000342A60E087E190E00E94222A40E050E06A
:1042A000BA018CE190E00E94342A70E060E080E284
:1042B00090E00E94402A40E050E0BA0188E190E09E
:1042C0000E94342A0C94FE200C940521682F8EE065
:1042D00090E00C94222A9C012E5F3F4FAC01485F76
:1042E0005F4F80E02417350709F40895F901919193
:1042F0009F019923B9F38F5FF5CF662349F0FC0145
:10430000329608962191261729F0E817F907D1F778
:1043100080E0089581E008959C01FC0132969FEFB2
:1043200080E04191461751F09F3F19F4411101C0BF
:10433000982F8F5F8630A9F79F3F09F40895290FC2
:10434000311D97FD3A95F90162830895FC0132967B
:1043500008962191261303C0DF0111971C92E817DC
:10436000F907B9F708950C948C210C94A6210296B4
:1043700026E0FC0111922A95E9F708950895089521
:104380000C94BF2180916E03843049F10E94C021BA
:1043900080E00E94820510926F0288E190E020E4A4
:1043A0000FB6F894A895809360000FBE209360002C
:1043B00083B7817F846083BF83B7816083BF789434
:1043C000889583B78E7F83BF0FB6F894A8958091A8
:1043D0006000886180936000109260000FBE0895B5
:1043E0000895CF930E94BE210E9401080E94F021EF
:1043F000C0E08C2F0E949A07892B31F4CF5FC43024
:10440000C1F780E0CF91089581E0FCCF08950C942E
:1044100006220E945F1A0E94AC150E9482050C942D
:1044200007221F921FB61F9211248F939F93AF9361
:10443000BF9380916F02811113C0809166039091A8
:104440006703A0916803B09169034196A11DB11D56
:104450008093660390936703A0936803B093690306
:10446000BF91AF919F918F911F901FBE1F90189584
:1044700082E084BD93E095BD9AEF97BD80936E0076
:1044800008952FB7F8948091660390916703A091E7
:104490006803B09169032FBF08952FB7F894609116
:1044A00066037091670380916803909169032FBF41
:1044B00008959C014FB7F89480916603909167032B
:1044C000A0916803B09169034FBF821B930B0895BD
:1044D00078941F921FB61F9211248F939F93AF93CE
:1044E000BF938091660390916703A0916803B09198
:1044F00069030196A11DB11D809366039093670324
:10450000A0936803B0936903BF91AF919F918F917E
:104510001F901FBE1F90189581E08093E00080E2FD
:104520008093D8001092C9008FE19EE40197F1F7C3
:1045300000C0000087E090EBDC018093770390934C
:104540007803A0937903B0937A0388E19CE00FB6D7
:10455000F894A895809360000FBE90936000FFCF01
:104560009093AB018093AA010895809178020895F9
:104570000895CF93DF9300D00F92CDB7DEB790911F
:104580006E03943011F589837B836A839093E900ED
:104590008FEF9091E800815095FD06C095ED9A95BA
:1045A000F1F700008111F5CF8091E80085FF0DC083
:1045B00050E040E063E070E0CE0101960E940425E7
:1045C0008091E8008E778093E8000F900F900F9015
:1045D000DF91CF910895BC0184E00C94B922BC0115
:1045E00083E00C94B922CF93DF93EC0181E08093B8
:1045F000E9008FEF9091E800815095FD06C095EDA0
:104600009A95F1F700008111F5CF8091E80085FFC0
:1046100014C050E040E068E070E0CE010E94042544
:104620008091E8008E778093E80088E0FE01A0E7A3
:10463000B2E001900D928A95E1F7DF91CF91089554
:10464000CF93FC01603221F580916E03843001F537
:10465000C091E900CF702091EC00922F917020FD65
:1046600090E8C92B82E08093E9008091E80080FF08
:104670000CC050E040E060E270E0CF010E940425F1
:104680008091E8008E778093E800CF70C093E900B6
:10469000CF91089508950895089542E061EC81E076
:1046A0000E945B2642E261EC84E00E945B2642E2CB
:1046B00061EC82E00E945B2642E260EC83E00C94B5
:1046C0005B2680917003833009F45FC030F4813041
:1046D000C1F1823009F49BC008958A3009F487C083
:1046E0008B3009F46DC0893009F04EC080916F03A2
:1046F000813209F049C0809173039091740300974F
:1047000019F0029709F040C08091E800877F8093FC
:10471000E8008091E80082FF33C08091F20082308F
:1047200029F48091F1008B7F813021F48091F10098
:10473000809378028091E8008B778093E8000C9456
:104740008F2680916F03813AF9F48091E800877F8A
:104750008093E8008091730390917403892B61F436
:1047600068E080E792E070E00E94A2258091E80076
:104770008B778093E800089560E090E080E0F3CFCD
:1047800080916E038111C5CF089580916F03813AA6
:10479000D9F78091730390917403892BA9F78091C5
:1047A000E800877F8093E8008091E80080FFFCCFDD
:1047B000809110018093F1008091E8008E77BDCF49
:1047C00080916F03813201F780917303909174039C
:1047D000892BD1F68091E800877F8093E8000E94C2
:1047E0008F2680917103809310010C945F1A809141
:1047F0006F03813249F68091E800877F8093E8005B
:104800000E948F268091720380937902089580918F
:104810006F03813A09F0B8CF8091E800877F8093D9
:10482000E8008091E80080FFFCCF80917902C2CF40
:10483000CDB7DEB7A0970FB6F894DEBF0FBECDBFE1
:1048400084B7877F84BF0FB6F894A89580916000E5
:10485000886180936000109260000FBE80E890E055
:104860000FB6F89480936100909361000FBE0E9490
:104870001C160E94DF260E9432278091E20084608D
:104880008093E20078940E948A290E94301686E084
:1048900091E00E94A71513E080916E038530B9F076
:1048A0000E943A1680916E038430C1F00E942C164B
:1048B000F3CF0E94C22180916C03882341F00E94B3
:1048C000F121882321F00E94EE240E945F1A80913A
:1048D0006E03853071F30E940922E2CF1093E90044
:1048E0008091E80082FFE2CF8091E80090E085FFB0
:1048F00009C050E040E060E270E0CE0101960E9405
:10490000532591E08091E8008B778093E80099230C
:1049100069F260E2CE0101960E94AB09C7CF0C9408
:104920009124292F33272330310521F168F42130D8
:10493000310509F449C02230310509F44AC090E03C
:1049400080E030E020E029C02132310581F12232BF
:104950003105A9F76330710590F7FB01EE0FFF1FDA
:10496000E256FE4F2081318165567E4FFB018081EA
:1049700090E013C099278130910599F0009741F09C
:104980008230910589F00397D1F6E4E4F4E002C0A7
:10499000E4E8F4E0849190E09F01FA013183208300
:1049A0000895EEE6F4E0F6CFE2E6F4E0F3CF63300C
:1049B000710528F6660F771FFB01EC55FE4F20812D
:1049C000318189E090E0E9CF82E190E023EE34E0AC
:1049D000E4CF8BE590E028E834E0DFCF84E089BDC8
:1049E00086E089BD09B400FEFDCF8091D8008F7D9F
:1049F0008093D8008091E00082608093E0008091F5
:104A0000E00081FDFCCF0895AF92BF92CF92DF927C
:104A1000FF920F931F93CF93DF936C01EB018A01F9
:104A20000E94AE26F82E811123C00115110539F020
:104A3000F80180819181C81BD90BC80ED91EB12CF9
:104A4000A12C2097A9F08091E80085FD22C08091DB
:104A5000E8008E778093E80001151105A1F0F801B8
:104A600080819181A80EB91EB182A08285E0F82EC6
:104A70008F2DDF91CF911F910F91FF90DF90CF90FD
:104A8000BF90AF9008950E94AE268823D1F2F82EF1
:104A9000EFCFF60181916F018093F1002197FFEF35
:104AA000AF1ABF0ACECFAF92BF92CF92DF92FF92E2
:104AB0000F931F93CF93DF936C01EB018A010E9448
:104AC000AE26F82E811123C00115110539F0F80129
:104AD00080819181C81BD90BC80ED91EB12CA12C85
:104AE0002097A9F08091E80085FD22C08091E80020
:104AF0008B778093E80001151105A1F0F801808102
:104B00009181A80EB91EB182A08285E0F82E8F2D6A
:104B1000DF91CF911F910F91FF90DF90CF90BF90C9
:104B2000AF9008950E94AE268823D1F2F82EEFCFE1
:104B30008091F100F60181936F012197FFEFAF1A89
:104B4000BF0ACECFFC018091750390917603861742
:104B50009707A0F06115710529F49091E8009E7700
:104B60009093E80090E06115710551F4911108C02F
:104B70008091E80082FF32C080E00895BC01F2CF4E
:104B800080916E038823B1F18530B1F18091E80006
:104B900083FD2EC08091E80082FDEACF8091E8007D
:104BA00080FFE1CF2091F20030E06115710519F02E
:104BB0002830310558F091E02830310509F090E0B7
:104BC0002091E8002E772093E800CDCF819180934B
:104BD000F100615071092F5F3F4FE7CF80916E0365
:104BE000882341F0853041F08091E80083FFC0CFF9
:104BF00081E0089582E0089583E00895FC018091AA
:104C000075039091760386179707A0F061157105DB
:104C100029F48091E8008E778093E80090E0611598
:104C2000710551F4911108C08091E80082FF33C0F2
:104C300080E00895BC01F2CF80916E038823B9F122
:104C40008530B9F18091E80083FD2FC08091E800A4
:104C500082FDEACF8091E80080FFE1CF2091F20051
:104C600030E06115710519F02830310558F091E0F8
:104C70002830310509F090E08091E8008E7780932C
:104C8000E800CDCF84918093F10031966150710995
:104C90002F5F3F4FE6CF80916E03882341F0853030
:104CA00041F08091E80083FFBFCF81E0089582E06A
:104CB000089583E00895982F953028F08F708093A1
:104CC000E90081E008959093E900242F762F50E0C9
:104CD000981731F07091EC002091ED005091F000A8
:104CE00021FD02C09F5FE8CF3091EB003E7F309303
:104CF000EB003091ED003D7F3093ED003091EB0003
:104D000031603093EB007093EC002093ED005093F2
:104D1000F0002091EE0027FDE5CF80E0089580911E
:104D20006F0387FF13C08091E80082FF06C0809167
:104D3000E8008B778093E80004C080916E038111B6
:104D4000F2CF089580916E038823D9F38091E80013
:104D500080FFF8CF8091E8008E77ECCF2091E400BF
:104D60003091E50095E6A9012091EC00822F817039
:104D700020FF06C08091E80080FF06C080E0089513
:104D80002091E80022FD1AC080916E03882389F0EB
:104D9000853089F08091EB0085FD0FC02091E40003
:104DA0003091E50042175307F9F29150E1F684E0A3
:104DB000089582E0089583E0089581E008950E94B7
:104DC0003C270E943F27E0EEF0E0808181608083F5
:104DD000E8EDF0E080818F77808319BCE3E6F0E0B6
:104DE00080818160808310926D0308950E943C272A
:104DF0000E943F278091D8008F778093D8008091C0
:104E0000D80080688093D8008091D8008F7D8093EF
:104E1000D80084E089BD86E089BD09B400FEFDCFDD
:104E200010926E0310926A0310926C0310926B033F
:104E300042E060E080E00E945B268091E1008E7F8E
:104E40008093E1008091E20081608093E200809194
:104E5000E20088608093E2008091E0008E7F809382
:104E6000E0000895E3E6F0E080818E7F808381E0BA
:104E700080936D030C94F6261092E2000895109230
:104E8000E10008951F920F920FB60F9211242F93F5
:104E90003F934F935F936F937F938F939F93AF93C2
:104EA000BF93EF93FF938091E10082FF0BC080914D
:104EB000E20082FF07C08091E1008B7F8093E100D8
:104EC0000E9489298091E10080FF19C08091E20051
:104ED00080FF15C08091E2008E7F8093E200809178
:104EE000E20080618093E2008091D800806280932C
:104EF000D80019BC85E080936E030E944B238091FB
:104F0000E10084FF2BC08091E20084FF27C084E091
:104F100089BD86E089BD89B5982F917080FFFBCF50
:104F20008091D8008F7D8093D8008091E1008F7EA2
:104F30008093E1008091E2008F7E8093E200809177
:104F4000E20081608093E20080916A03882309F483
:104F500043C084E080936E030E944C238091E10063
:104F600083FF29C08091E20083FF25C08091E1008A
:104F7000877F8093E10082E080936E0310926A0342
:104F80008091E1008E7F8093E1008091E2008E7F2E
:104F90008093E2008091E20080618093E20042E031
:104FA00060E080E00E945B268091F0008860809342
:104FB000F0000E944A23FF91EF91BF91AF919F9122
:104FC0008F917F916F915F914F913F912F910F90B2
:104FD0000FBE0F901F9018958091E30087FD93E01E
:104FE00090936E03B9CF1F920F920FB60F921124B8
:104FF0002F933F934F935F936F937F938F939F93E1
:10500000AF93BF93CF93DF93EF93FF93D091E900DA
:10501000DF708091EC00C82FC17080FDC0E8109255
:10502000E9008091F000877F8093F00078940E94DF
:1050300037281092E9008091F00088608093F0009A
:10504000CD2BCF70C093E900FF91EF91DF91CF910D
:10505000BF91AF919F918F917F916F915F914F9190
:105060003F912F910F900FBE0F901F9018951F9397
:10507000CF93DF93CDB7DEB7AA970FB6F894DEBF14
:105080000FBECDBF8FE693E02091F100FC0121938C
:10509000CF01F3E087379F07B9F70E946123809122
:1050A000E80083FF1EC180916F03909170039A30D6
:1050B00008F017C1E92FF0E0E857F54D0C94D3291B
:1050C000803899F0823809F00CC1809173038F7099
:1050D000853008F006C18093E9008091EB0085FBE4
:1050E000882780F91092E90006C080916B039091A7
:1050F0006C03911182609091E800977F9093E80093
:105100008093F1001092F1008091E8008E77E5C065
:10511000882309F4D3C0823009F0E3C08091710381
:105120008111D6C0809173038F702FEF280F243028
:1051300008F0D7C08093E9002091EB0020FFC8C0A1
:10514000933031F48091EB0080628093EB00C0C01B
:105150009091EB0090619093EB0021E030E001C072
:10516000220F8A95EAF72093EA001092EA008091D4
:10517000EB008860EACF8111B4C0109171031F77F2
:105180008091E3008078812B8093E3008091E80098
:10519000877F8093E8000E948F268091E80080FF3F
:1051A000FCCF8091E30080688093E30082E01111DE
:1051B00083E080936E0395C08058823008F091C0E0
:1051C00080917103909172038C3D23E09207A1F5C9
:1051D00083E08A838AE289834FB7F894DE011396CD
:1051E00020E03EE051E2E32FF0E050935700E491DD
:1051F00020FF03C0E295EF703F5FEF708E2F90E0CD
:10520000EA30C0F0C7968D939D932F5F243159F7F4
:105210004FBF8091E800877F8093E8006AE270E0EA
:10522000CE0101960E94A2258091E8008B778093A1
:10523000E80057C0C096E7CF609173037091740384
:10524000AE014F5F5F4F0E948F24BC01892B09F490
:1052500048C09091E800977F9093E80089819A81F7
:105260000E94FE25E1CF8038E1F58091E800877F3C
:105270008093E80080916A038093F10045CF81110B
:1052800030C090917103923060F58091E800877F83
:105290008093E80090936A030E948F2680916A03AE
:1052A000882311F084E005C08091E30087FDFACFE8
:1052B00081E080936E030E944D2313C0809171039F
:1052C000813079F481E0933009F080E080936C03C1
:1052D0001092E9008091E800877F8093E8000E94A7
:1052E0008F268091E80083FF0AC08091E800877FC5
:1052F0008093E8008091EB0080628093EB00AA9697
:105300000FB6F894DEBF0FBECDBFDF91CF911F91D6
:1053100008950895CF9380916E038823A1F0C091E2
:10532000E900CF709091EC00892F817090FD80E8AA
:10533000C82B1092E9008091E80083FD0E94372875
:10534000CF70C093E900CF910895002480FD060E30
:10535000660F11F08695D1F7802D0895002455270A
:1053600004C0080E591F880F991F009729F07695E1
:105370006795B8F37105B9F7802D952F089597FBC0
:10538000072E16F4009407D077FD09D00E94E0297B
:1053900007FC05D03EF4909581959F4F0895709538
:1053A00061957F4F0895EE0FFF1F0590F491E02D5A
:1053B00009946927962769277827872778270895EA
:1053C000AA1BBB1B51E107C0AA1FBB1FA617B7072B
:1053D00010F0A61BB70B881F991F5A95A9F7809547
:1053E0009095BC01CD010895FB01DC0102C0059040
:1053F0000D9241505040D8F70895DC0101C06D93E3
:1054000041505040E0F70895DC01CB01FC01F999CF
:10541000FECF06C0F2BDE1BDF89A319600B40D9200
:1054200041505040B8F70895F999FECF92BD81BD23
:10543000F89A992780B50895A8E1B0E042E050E0DD
:105440000C94062A262FF999FECF92BD81BDF89AB9
:10545000019700B4021639F01FBA20BD0FB6F894B8
:10546000FA9AF99A0FBE08950396272F0E94232ACD
:105470000E94222A252F0E94232A242F0C94232ABB
:105480000196272F0E94232A0C94222ADC01CB01AB
:1054900003C02D910E94512A41505040D0F70895E9
:1054A000262FF999FECF1FBA92BD81BD20BD0FB640
:1054B000F894FA9AF99A0FBE01960895F894FFCFDE
:1054C000B40CE40CEC0CD60CD60C270D360D450DA7
:1054D000D60C500DD60CD60CD60C630D0718071839
:1054E0005E185E18C418341834183418E0186C1993
:1054F0007B197B196E1A6E1A771A771A791A771A2E
:10550000771A771A6E1A6E1A7E1A771A771A7E1A17
:1055100060288828712988287129BB28DC287129EE
:0455200033293F29C3
:10552400010001FF6302B522F322B822EF22EB222D
:1055340001DAA8BDBD67E6BECCE200E900EA00B529
:1055440000B600B700CD008301CC008A019201941B
:10555400012102230224022502260227022A02B381
:1055640000B4006F0070008182836465666737361B
:105574003534333231309196959400FF01000100A7
:1055840000FFFF0000010001FF00E200E900EA0063
:10559400B500B600B700CD008301CC008A019201AA
:1055A40094012102230224022502260227022A0250
:1055B400B300B4006F007000818283402232490539
:0A55C400F50417059A04B304D3049C
:00000001FF
