:100000000C944D030C9494030C9494030C9494035B
:100010000C9494030C9494030C9494030C94940304
:100020000C9494030C9494030C94D0300C94A2314F
:100030000C94432B0C9494030C9494030C9494030D
:100040000C9494030C9494030C9494030C949403D4
:100050000C9494030C949C2B0C9494030C94940394
:100060000C9494030C9494030C9494030C949403B4
:100070000C9494030C9494030C9494030C949403A4
:100080000C9494030C9494030C9494030C94940394
:100090000C9494030C9494030C9494030C94940384
:1000A0000C9494030C9494030C949403F207F207B9
:1000B00004080408FB07040804080408F207F20710
:1000C00000080408040800084E084E087A087A0858
:1000D0000409540A540A540A20098A099C099C09F3
:1000E000430A540A540A4C0A301A531A5B1A971AD4
:1000F000B11ABD1ACC1ADB1A481BE61AF11AFC1AFF
:10010000091B0C1B0F3236322E3336322E3382321D
:10011000A5322E33FC320B33290014001A000800DC
:10012000150017001C0018000C00120013002A0014
:100130002B6104001600070009000A000B000D00E7
:100140000E000F0033002800E1001D001B00060018
:100150001900050011001000360037003800E500D6
:100160000251E20000000000000000002C410000ED
:100170000000E6000000E7003500340001005200F6
:1001800001000100010001002400250026004C00B0
:1001900039000100500051004F000100540056008A
:1001A0002100220023002800E1002D002E002F0056
:1001B00030003100550057001E001F002000E500F0
:1001C000010001000000000000000000010000002C
:1001D00000002700000063003A003B003C003D00A7
:1001E0003E0023004000410042004300440045001F
:1001F00000000000000000000000000000000000FF
:10020000000000000000A900000000000000000045
:100210000000005C00000000E600E4004C00AA00C2
:1002200001000000000000000000000000000000CD
:10023000000000000000AE0001000100010001000C
:1002400001000100010001000100010001000100A6
:100250000100010001000100010001000100010096
:100260000100010001000100010001000100010086
:100270000100010001000100010001000100010076
:10028000010001000000000000000000010000006B
:10029000000001000000010000000000000000005C
:1002A0002A2B2800000000000000000000000000D1
:1002B00000000029000000002C1E342021222434DC
:1002C0002627252E362D3738271E1F2021222324AE
:1002D00025263333362E37381F0405060708090A4A
:1002E0000B0C0D0E0F101112131415161718191AE6
:1002F0001B1C1D2F3130232D350405060708090A64
:100300000B0C0D0E0F101112131415161718191AC5
:100310001B1C1D2F3130354C000000000000000078
:1003200000000000000000000000000000000000CD
:100330000000000000000000000000007E0F00D45C
:10034000FFFFFFC700000078FD377A585A0000040D
:10035000E6D6B4460200210116000000742FE5A382
:10036000E00329013C5D003D8889C65436C3174F20
:10037000E4E2A420CE85859456F211442C5A5EE125
:10038000C3F8EC7BCB2945AC9105223D16DA9FCE14
:10039000081384C353E09F54C94370FC28928A31E8
:1003A0003777866D417B0B333606AAAF76B55C7224
:1003B000CD6B6C71E327E65FB7D4C224636EA8F2FD
:1003C000CE3289A1F49308A31914C0F28994165D62
:1003D000C9BAE1728D2D15EA4360CFE72DDDDB440C
:1003E00055C06F97FEB1C4AF4FBD88EE40513D1E62
:1003F000E69BEE0920589D75B5CA628348DBEE1076
:10040000BA43D6D8FFF615A2B504EA6F292F7FB3F9
:100410003F43BA4D9142EDE7612F2B36C1420C822A
:1004200064568AC71764B325CEC6F2DAE12EAEE170
:100430004B2F950CB794BFD4BE1E5A2F32B271AC5D
:10044000937A949A3840BF5ADB2C0390E5597C7913
:1004500010798B9A7054D79AFFC9379857C6DA0C1F
:10046000E11674226277442881A11DAB1CE33A2572
:10047000ED6A6F6A205FAA27A7EDDF6349776454AE
:100480004C28B667BD99136DAC9E5287EBA0E54230
:10049000462ECB51311D49237483D25FC57F0FE8AF
:1004A00074D50000AEC84B3409FF609B0001D80230
:1004B000AA0600002C9CA361B1C467FB02000000E7
:1004C0000004595A01000100E70300000200020085
:1004D000E303000003000100E80300000400020041
:1004E000CD03A31E05000100E90300000600020081
:1004F000CF03000007000200E50300000800010030
:10050000EA03000012000200EB03000013000200E7
:10051000ED0300001C037600690061006C003A00E6
:10052000660036003400630032006200330063006E
:100530000000100350006500670061007300750043
:100540007300000014036D0065006C006F006E0006
:1005500062007200650064000000040309040902DF
:100560005B00030100A0FA0904000001030101007F
:100570000921110100012240000705810308000A3A
:1005800009040100020300000009211101000122F9
:100590002200070582032000010705030320000154
:1005A00009040200010300000009211101000122D9
:1005B0006D000705840320000A12010002000000FC
:1005C00008EDFE00000100010203010660FF096161
:1005D000A1010962150026FF009520750881020916
:1005E00063150026FF00952075089102C0050109DA
:1005F00080A101850319012AB700150126B70095CE
:100600000175108100C0050C0901A10185041901C3
:100610002AA002150126A002950175108100C005CF
:10062000010906A1018506050719E029E71500253E
:10063000019508750181020507190029EF150025AC
:100640000195F075018102050819012905950575C7
:10065000019102950175039101C005010906A101EF
:10066000050719E029E715002501950875018102A4
:100670009501750881010507190029FF150026FF5E
:10068000009506750881000508190129059505756D
:10069000019102950175039101C011241FBECFEF96
:1006A000DAE0DEBFCDBF04B603FE27C080910004B0
:1006B00090910104A0910204B09103048730904B03
:1006C000A740B04BD1F41092000410920104109294
:1006D00002041092030414BE84B7877F84BF0FB650
:1006E000F894A895809160008861809360001092D2
:1006F00060000FBEE0E0F8E3099511E0A0E0B1E092
:10070000E2E3F8E602C005900D92A43BB107D9F7E9
:1007100024E0A4EBB1E001C01D92A030B207E1F7E4
:100720000E94A2170C9417340C9400009C013A9577
:1007300021153F4130F5BC0166277270AC0144279A
:1007400054709C012227387094FF0FC090FF02C0A4
:1007500080E101C080E0672B09F08062452B09F041
:100760008064232B79F080680895892F8170672B2E
:1007700009F08260452B09F08460232B19F0886012
:10078000089580E00895CF93DF93EC01805E910996
:10079000089710F0209731F4CE010E9496030E9432
:1007A000AE0705C0CE010E9496030E94BC078C2FA5
:1007B000DF91CF910C948906CF93DF93EC010E94D7
:1007C0002B07CE01805E9109089710F0209739F42D
:1007D000CE010E949603DF91CF910C94B507CE0114
:1007E0000E949603DF91CF910C94C30781E0089596
:1007F00081E008950C94F80308950C94FC031F9372
:10080000CF93DF9300D000D01F92CDB7DEB74983DE
:100810005A836B833091B60189819A81311114C05A
:10082000662359F0222349F00E94DF0B182F682F0E
:1008300089819A810E94820B03C00E94AF0B182FFE
:1008400069817A81812F04C00E94DF0B69817A81DE
:100850000F900F900F900F900F90DF91CF911F91FD
:100860000C94901DFC01262F86819781009739F406
:10087000408151816281738184810C94FF030895CA
:10088000CF93DF93EC0161E00E943204BE01DF915F
:10089000CF910C94A825CF93DF93EC0160E00E94E8
:1008A0003204BE01DF91CF910C94FD03E1E0F0E052
:1008B000DF0102C0AA0FBB1F6A95E2F7BD01DF018D
:1008C00002C0AA0FBB1F4A95E2F7AD01462B01C03B
:1008D000EE0F2A95EAF7942F9823491302C08E2B26
:1008E0000895E0958E230895242F462F682F809138
:1008F000CB010E9456040C943F0B0E9420160E94CC
:10090000ED050C9453160E9464250E9451220C940C
:100910004F1680E00C94EE0508950C948C040E9410
:10092000E0070E948D042FEF84E39CE0215080407B
:100930009040E1F700C000000C94C22B0F931F936E
:10094000CF93DF93EC018B010E940C18882309F4EC
:1009500052C0B801CE010E94AA1B882309F44BC0E3
:10096000B801CE010E94FA03882309F444C0B801FB
:10097000CE010E948A228823F1F1B801CE010E94A3
:1009800075298823C1F1B801CE010E94ED1F88238B
:1009900091F1B801CE010E949128882361F1F801FC
:1009A0008281882309F1CA358DE5D807C1F050F45A
:1009B000C115FCE5DF0781F0CE3DDC45A9F40E94BE
:1009C000EF1219C0CB35EDE5DE0761F0CC35DD4522
:1009D00059F40E94331208C00E948F040CC00E9478
:1009E0003C1202C00E943F12C801DF91CF911F91BB
:1009F0000F910C94F60380E0DF91CF911F910F913E
:100A00000895CF93DF93EC0161E00E943204BE01B0
:100A1000DF91CF910C949E040C948C040E94D129F8
:100A20000E94EE050C940C05DF92EF92FF920F935B
:100A30001F93CF93DF93E82FF0E0E856FD4FD4905B
:100A4000282F26952695269530E0F901E85CFC4F85
:100A50000491877010E0082E02C0159507950A943E
:100A6000E2F701701127F901E85DFC4FE490F12CE9
:100A7000082E02C0F594E7940A94E2F791E0E92287
:100A8000FF24F901E85EFC4FC491D0E002C0D59587
:100A9000C7958A95E2F7C170DD270115110519F098
:100AA00081EE0E948906E114F10419F086EE0E949D
:100AB00089068D2D0E94A107EF2819F086EE0E946D
:100AC0002B07012B19F081EE0E942B07CD2B51F043
:100AD0008CE2DF91CF911F910F91FF90EF90DF900B
:100AE0000C94A107DF91CF911F910F91FF90EF9090
:100AF000DF900895EF92FF920F931F93CF93DF93B0
:100B0000EC01162F0AE08881882309F455C0813052
:100B100009F043C08981813041F47E0182E0E80E12
:100B2000F11C8A810E94A10709C0823049F47E012C
:100B3000E2E0EE0EF11C8A810E948906E7012FC0D7
:100B4000833041F47E01F2E0EF0EF11C8A810E94B5
:100B50002B07F4CF843011F0219621C02A812296F0
:100B600080E090E030E0205331092A30310558F41C
:100B7000089FA001099F500D1124C901840F951FE2
:100B800021962881EFCF009751F0EFE9FFE03197F0
:100B9000F1F700C000000197F6CF0E9414052196DE
:100BA000812F882309F4AFCFEFE9FFE03197F1F708
:100BB00000C000008150F5CFDF91CF911F910F91C0
:100BC000FF90EF90089560E00C947A0508950C94DE
:100BD000E60581E008950C94E9050895CF93C82FA8
:100BE0000E94E7058C2F0E94EB05CF910895009796
:100BF00041F0EFE9FFE03197F1F700C00000019705
:100C0000F6CF08950F931F93CF93DF93CDB7DEB741
:100C10002D970FB6F894DEBF0FBECDBF942F498736
:100C2000252F5A876B877C878D874C855D85452B63
:100C300031F02F3F31F481E09F3F19F403C081E090
:100C400001C080E080FD09C08091B7019091B8019A
:100C500001969093B8018093B7018B8581110E9412
:100C600042118E010F5F1F4F88E0F80111928A95A3
:100C7000E9F785E0FE013996D80101900D928A9539
:100C8000E1F780916A0382FD12C08091CF039091B9
:100C9000D003892B61F00E940111882319F082E0B2
:100CA0000E9401120E94DD1081110E94751199812C
:100CB0008A812C813D81232B31F08F3F31F481E0FB
:100CC0009F3F19F403C081E001C080E080FF0BC0AA
:100CD00029813A814B815C816D817E818F819885EC
:100CE0000E94251005C0C8010E9440048111F0CF68
:100CF0002D960FB6F894DEBF0FBECDBFDF91CF911A
:100D00001F910F910895FC01808191810E940C0C2C
:100D10000895CF93882309F49CC0C82F8238C1F46A
:100D20000E94D12981FD95C069E3809100019091D5
:100D300001010E94B92A0E9483112FEF81EE94E0F5
:100D4000215080409040E1F700C0000069E319C0E5
:100D5000833801F50E94D12980FD7BC063E5809135
:100D60000001909101010E94B92A0E9483112FEF86
:100D700081EE94E0215080409040E1F700C00000F7
:100D800063E580910001909101010E94C42ACF91F6
:100D90000C9483118438C1F40E94D12982FD59C07A
:100DA00067E480910001909101010E94B92A0E949C
:100DB00083112FEF81EE94E0215080409040E1F7C5
:100DC00000C0000067E4DDCF8CEF8C0F813AD0F4D7
:100DD0006C2F80910001909101010E94392A882393
:100DE00049F06C2F80910001909101010E94C42A6A
:100DF0000E9483116C2F80910001909101010E944B
:100E0000B92AC5CF80E28C0F883048F4C77081E0E2
:100E100001C0880FCA95EAF70E942511B8CFEBE50B
:100E2000EC0FE33040F4F0E0E35BFE4F808190E0B4
:100E3000CF910C94F729C85AC73158F4EC2FF0E041
:100E4000EE0FFF1FE15EFE4F80819181CF910C94E8
:100E50000D2ACF910895882309F45BC0682F82384A
:100E600079F40E94D12981FF54C069E38091000187
:100E7000909101010E94B92A0E94831169E310C078
:100E80008338B1F40E94D12980FF43C063E580918B
:100E90000001909101010E94B92A0E94831163E52B
:100EA00080910001909101010E94C42A0C94831149
:100EB000843879F40E94D12982FF2BC067E48091A5
:100EC0000001909101010E94B92A0E94831167E4F8
:100ED000E7CF8CEF860F813A18F380E2860F8830D7
:100EE00048F4677081E001C0880F6A95EAF70E94B4
:100EF0002B11DCCF8BE5860F833020F480E090E06F
:100F00000C94F729685A673120F480E090E00C9443
:100F10000D2A08951F93CF93DF93182FEB010E94A2
:100F20008906209741F08FE99FE00197F1F700C013
:100F300000002197F6CF812FDF91CF911F910C9464
:100F40002B07893329F46091ED037091EE0304C0FF
:100F50006091EB037091EC030C948A07882321F0D5
:100F60000E9425110C9483110895882321F00E947A
:100F70002B110C9483110895882321F00E943511C0
:100F80000C9483110895882321F00E943B110C9446
:100F90008311089580E090E00E94F72980E090E0BE
:100FA0000E940D2A0E9442110E9452110C9483113A
:100FB00080910001909101010E94CF2A0C94CA07F0
:100FC0000E9432110C94D807E92FE295EF704E2F52
:100FD00050E0FA013297EE30F105B0F4EA5AFF4FD3
:100FE0000C947633803F91F018F4883E68F40EC07C
:100FF000843F51F40BC0883E48F0813F29F406C07D
:1010000093FB882780F9089580E0089581E0089592
:10101000FC0186819781009719F00E94151404C085
:10102000808191810E940C0C0E94E4070895BF9278
:10103000CF92DF92EF92FF920F931F93CF93DF93A4
:101040007C01EB01FC01D280058102950F700E94AA
:101050001B118823B9F0DD20A9F08D2F807F80340B
:1010600021F080E28C0F883068F080916A0382FD65
:1010700009C082E00E9401120E941B1191E0C82E5B
:10108000C92601C0C12CBD2EB2948FE0B8228B2D91
:1010900090E0FC01EC59FF4F0C9476331D2F1F702C
:1010A0008D2F807F11F01295107FDD2099F0112394
:1010B00009F4C8C180E28C0F883010F0C11104C05F
:1010C000812F0E94251103C0812F0E9435110E949B
:1010D0008311B8C18C2F0E942B07112309F4E4C19E
:1010E00080E28C0F883048F1CC2339F1812F0E94A7
:1010F0003B1126C01D2F1F708D2F807F803211F075
:101100001295107FCC2321F0C13009F451C05AC090
:1011100080916A0382FF17C0DD2049F0112329F076
:10112000812F0E9425110E94831180E08CC180E0F4
:101130000E942B07112309F4B7C1812F0E942B11A4
:101140000E948311B1C1DD20D1F00023A1F0013054
:1011500031F40E945511812B0E945D11A5C180912F
:10116000E903823040F0081306C00E947511812FF8
:101170000E94C7113FC00E945511812B3CC0002323
:10118000A1F08091E903013059F4823008F48CC158
:101190000E942211812309F487C10E94D01105C049
:1011A000823018F0081709F47FC10E94751128C019
:1011B000DD2021F0063008F077C11CC0053008F0B2
:1011C00073C11EC0DD20D1F00023A1F020E0F701A3
:1011D000408151816281738184810E94FF03B70144
:1011E0000E94A11F81112EC1F701858180FF2AC1B4
:1011F0008F708583812F0E94AE0756C101112DC1CA
:10120000812F0E94B50750C18D2F869586958370DA
:1012100019F0813059F048C1DD2019F0CE019370EA
:1012200002C080E090E00E94F72946C1DD2019F05D
:10123000CE01937002C080E090E00E940D2A3CC174
:101240008D2F837081F5D11033C14C2F4295469577
:101250004770440F440F2C2F2F70042E01C0220F13
:101260000A94EAF7C4FF08C08FE090E001C0880F3D
:101270004A95EAF7809501C080E09D2F9695969556
:101280009370822B923049F058F4913019F00E94FB
:10129000330B0EC10E942E0B0BC10E94380B08C1EC
:1012A0000E942C0B05C1DD2019F08D2F817001C02B
:1012B0008695882309F4FCC04C2F429546954770CB
:1012C000440F440F2C2F2F70042E01C0220F0A94BC
:1012D000EAF7C4FF08C08FE090E001C0880F4A958C
:1012E000EAF7809501C080E09D2F969596959370C2
:1012F000822B923049F058F4913019F00E94770B0C
:10130000D7C00E94720BD4C00E947C0BD1C00E9437
:101310003F0BCEC01D2F1F70DD2039F0812F0E94A2
:10132000500B8C2F0E94AE07C3C08C2F0E94B507B4
:10133000812F0E945B0BBCC0C23FC9F028F4C03FA4
:1013400041F0C13F41F17AC0C33FB9F0C43FF9F069
:1013500075C0DD2021F0053008F0A6C003C00630BE
:1013600008F0A2C08D2F8F710E94670B9DC08D2F3A
:101370008F71DD2009F46CC083C0DD2029F08D2F32
:101380008F710E94480B90C00E94450B8DC08091C8
:101390006A0382FF06C08D2F8F71DD2009F470C0B3
:1013A00057C08091E9038230A0F1DD20E1F00E9476
:1013B000DA100E942B110E94FD10843039F40E9433
:1013C000F8118D2F8F710E945B0B6DC08091E90326
:1013D000081708F068C01D2F1F71812F0E94500B45
:1013E00063E0812F0FC00E94DA100E9425118091C6
:1013F000E903081750F00E94F8110E94D01164E030
:101400008D2F8F710E94DC114EC081E00E9401126D
:101410004AC0DD2051F01D2F1F71812F0E94500BFB
:1014200063E0812F0E94DC113FC081E00E94011225
:101430000230D0F182E00E94011236C0DD2059F066
:10144000002321F08C2F0E9489062EC08D2F8F71D2
:101450000E94500B29C0002389F0C93329F48091E0
:10146000ED039091EE0304C08091EB039091EC03A7
:101470000E94F7058C2F0E942B0716C08D2F8F71AD
:101480000E945B0B11C04D2F4F706C2FC7010E9443
:1014900009140E943A0C10C04D2F4F706C2FC701D9
:1014A0000E940C1409C0C12C88EF8B0D843020F4ED
:1014B0000E94D1290E94EE05CE010E94E40781110D
:1014C00005C01092B8011092B7011FC0DD2019F0BD
:1014D0000111F7CF1AC00111F4CF20E0F7014081CC
:1014E00051816281738184810E94FF03B7010E9450
:1014F000AC1F882331F38091B7019091B801029716
:1015000001F78C2F0E94A107DCCFCC20D1F00E94E4
:10151000FD1080FD16C0F70112820E94F7100E9494
:10152000500BC7010E94CA0A0E94F710DF91CF91A9
:101530001F910F91FF90EF90DF90CF90BF900C9490
:101540005B0BDF91CF911F910F91FF90EF90DF9098
:10155000CF90BF9008950F931F93CF93DF93EC012B
:101560008E819F81009719F00E94151405C0688133
:1015700079818A810E94170C8C010E94810B0E9444
:10158000200BB801CE010E941708DF91CF911F9167
:101590000F910895CF93DF93EC01988189812B817E
:1015A0003C81232B31F08F3F31F481E09F3F19F4D0
:1015B00003C081E001C080E080FD1DC0CE010E941B
:1015C0000105811110C00E941B118823A1F08A819E
:1015D000882389F080916A0382FD0DC082E0DF914B
:1015E000CF910C940112CE010E94AB0ACE01DF9183
:1015F000CF910C944B04DF91CF910895CF93DF935B
:1016000000D000D01F92CDB7DEB70F900F900F9093
:101610000F900F90DF91CF910895CF93DF93CDB7C7
:10162000DEB728970FB6F894DEBF0FBECDBF289661
:101630000FB6F894DEBF0FBECDBFDF91CF910895F6
:10164000089508950C94210B0C94220B0E94240BF6
:101650008093CC010C94CA070C94260B9091CC017A
:10166000892B0C94260B9091CC0189230C94260B8A
:101670009091CC0189270C94260B0C94210B0E948D
:101680003D0B8093CB010C94CA0780E00C943F0B78
:1016900091E001C0990F8A95EAF7892F0C943F0BCE
:1016A00021E030E001C0220F8A95EAF78091CB015A
:1016B000822B0C943F0B21E030E001C0220F8A9571
:1016C000EAF720958091CB0182230C943F0B21E017
:1016D00030E001C0220F8A95EAF78091CB01822782
:1016E0000C943F0B9091CB01892B0C943F0B909164
:1016F000CB0189230C943F0B9091CB0189270C944B
:101700003F0B08959E3F51F12CE0929F800D1124D4
:10171000E82FE695E695E695877051E001C0550FF4
:101720008A95EAF783E0E89FF0011124E754FE4F21
:1017300020E030E070E04081CB01022E02C096959F
:1017400087950A94E2F78170819584278523842701
:1017500081932F5F3F4F2330310569F708959E3FF6
:1017600061F12CE0929F800D1124682F669566959B
:101770006695982F977083E0689FB001112440E030
:1017800050E080E0FB01E40FF51FE754FE4F20819D
:1017900030E0092E02C0369527950A94E2F72170B1
:1017A0003327042E01C0220F0A94EAF7822B4F5FE1
:1017B0005F4F4330510531F7089580E00895CF928F
:1017C000DF92FF920F931F93CF93DF936C010091F1
:1017D000CB018091CC01082BC7E0D0E010E0C8011C
:1017E0000C2E02C0959587950A94E2F780FD04C0FF
:1017F0002197A8F7F12C07C0FC2EB6018C2F0E9470
:101800002A150197A9F38F2DDF91CF911F910F9189
:10181000FF90DF90CF900895CF93DF93EC010E946B
:10182000DF0BBE010E942A15DF91CF9108951F930F
:10183000CF93DF93EB019091B601992321F0CB0177
:101840000E940C0C13C0882349F0CB010E94DF0BCF
:10185000182F682FCE010E94820B04C0CB010E947A
:10186000AF0B182FBE01812F0E942A15DF91CF9157
:101870001F910895EF92FF920F931F93CF93DF93E1
:101880008C01892B09F46CC0F12CEE24E394E8015F
:101890002196F8018491843740F4843008F051C0D7
:1018A000813081F0823019F15BC0853709F444C082
:1018B000A8F19CE7980F903708F052C08F770E94EC
:1018C0002B0741C00E5F1F4FFE01849190E2980FDD
:1018D000983050F48770FE2D01C0FF0F8A95EAF70B
:1018E0008F2F0E94451114C00E9489062DC00E5FE3
:1018F0001F4FFE01849190E2980F983060F487703A
:10190000FE2D01C0FF0F8A95EAF78F2F0E944B1121
:101910000E94831119C00E942B0716C00E5F1F4F33
:10192000FE01C491CC2381F08FE99FE00197F1F78C
:1019300000C00000C150F6CF0E5F1F4FFE01F490B3
:1019400003C00E9489068E018F2D882309F49FCF42
:10195000EFE9FFE03197F1F700C000008150F5CFCB
:10196000DF91CF911F910F91FF90EF900895CF934A
:10197000DF93C091CD018091CE01C817B1F0D0E0C6
:10198000FE0183E0EE0FFF1F8A95E1F7E153FE4F62
:101990002081318142815381648175818681978163
:1019A0000E940D0B2196C770E6CFDF91CF9108956D
:1019B00020910F02309110024091110250911202B9
:1019C0006091130270911402809115029091160299
:1019D0000C940D0B2091CD019091CE012917B1F0FF
:1019E00030E0F90153E0EE0FFF1F5A95E1F7E153A4
:1019F000FE4F5181561306C05081581303C05281C7
:101A0000541306C02F5F3F4F2770E8CF80E0089542
:101A100081E00895EF92FF920F931F93CF93DF938E
:101A20008091140282958F7009F061C0809111023B
:101A3000882309F45CC0C091CD018091CE01C81704
:101A400009F455C090910F024091100220911202AA
:101A5000309113022115310531F04F3F31F481E00F
:101A60009F3F19F403C081E001C080E0D0E080FD19
:101A70003BC08E0183E0000F111F8A95E1F7F8014A
:101A8000E153FE4F818184132FC0808189132CC0C4
:101A90008281811129C0E380F480E21AF30A60E0B8
:101AA0008FE092E00E9432046FE072E00E94981F83
:101AB000E816F906C8F4809114028F708061809353
:101AC0001402F801EC52FE4F80818F708061808398
:101AD0008FE092E00E94CA0ADF91CF911F910F918F
:101AE000FF90EF900C94B70C2196C770A6CFDF91B2
:101AF000CF911F910F91FF90EF9008954F925F92B9
:101B00006F927F928F929F92AF92BF92CF92DF920D
:101B1000EF92FF920F931F93CF93DF93CDB7DEB772
:101B200065970FB6F894DEBF0FBECDBF8C0185E080
:101B3000F801DE01519601900D928A95E1F7D801E6
:101B40004C9011965C90119712966C901297139688
:101B5000ED90FC90149760E08FE092E00E943204D8
:101B60006C0190910F02809110022091120230912D
:101B700013022115310531F08F3F31F481E09F3F91
:101B800019F403C081E001C080E080FD2CC28FE029
:101B9000A82E82E0B82E709011024701821A930A93
:101BA00060E0772009F497C1C5010E943204B501B5
:101BB0000E94981F20911402207F8816990608F031
:101BC00030C190910F023091100240911202509159
:101BD00013022111B5C0452B31F03F3F31F481E0B4
:101BE0009F3F19F403C081E001C080E080FD25C063
:101BF000F8018181831321C0808189131EC0209147
:101C00001502309116028681978128173907A9F4A9
:101C1000762C611012C0809114028F7080618093C5
:101C200014020E94D80C8FE092E00E94CA0A8091B0
:101C30001402D80115968C93F0C1B801C6010E9418
:101C4000981F843F914020F0E114F10441F40EC04C
:101C5000B801C6010E949D1F8111F6CF23C0EFEF8E
:101C60005E1206C081E04E1203C003C081E001C0D5
:101C700080E080FD03C081E0862502C080E090E026
:101C800080FF10C0462D652D842D0E94EA0C88230C
:101C900049F08FE092E00E94CA0AEFE0F2E088E0AB
:101CA000DF01CFC0EF2839F0BFEF5B1206C081E043
:101CB0004B1203C003C081E001C080E080FD03C07F
:101CC00081E0862502C080E090E0E82FE170FE2EE2
:101CD00080FF2CC0462D652D842D0E94EA0C782EA5
:101CE000811124C0498A5A8A89899A890E940C0CD8
:101CF000292F22952F70223018F0243090F405C03F
:101D00009F7059F0811109C088C19F7031F0D801CE
:101D100015969C91907F09F480C1805E883008F40C
:101D20007CC1C8010E94CA0A7F2C77C1762C66202C
:101D300009F473C18091140281608093140286C0FB
:101D4000452B31F03F3F31F481E09F3F19F403C050
:101D500081E001C080E080FD16C0F801818183131D
:101D600012C0808189130FC0209115023091160294
:101D7000868197812817390731F4611004C080915A
:101D800014028583FFC0C8010E940808882309F453
:101D900042C0662009F43FC020911402822F829530
:101DA0008F7090E00297A4F080910F029091100242
:101DB0009A8789871B86FD86EC862E87809115027F
:101DC00090911602988B8F87CE0109960E94CA0ABD
:101DD00088E0F801AFE0B2E001900D928A95E1F75A
:101DE0000E940A0D0E94D80C19C090910F022091F8
:101DF00010024091120250911302452B49F12F3FDE
:101E000049F581E09F3F31F580FF26C0C8010E945F
:101E10000808811141C0C8010E94CA0A772473943E
:101E2000FCC02111E2CF7E2DFD8AEC8AA201662D35
:101E30008D890E94FE0A8FE092E00E94CA0A88E023
:101E4000D5011D928A95E9F70E94D80C712CE5C046
:101E500081E0DACF80E0D8CFF80181818213D6CF3C
:101E600080818913D3CF209115023091160286818B
:101E700097812817390751F66110C8CF8091140255
:101E80008583C8010E94CA0A88E0EFE0F2E0DF0122
:101E90001D928A95E9F7C1C0662009F4BCCF209154
:101EA0001402822F82958F7090E002970CF490CFED
:101EB00080910F02909110029A8389831B82FD8288
:101EC000EC822E83809115029091160298878F8361
:101ED000CE0101967BCF8FE092E00E9432046FE04A
:101EE00072E00E94981F8816990608F06EC0762C42
:101EF000662009F490CF90910F022091100240913A
:101F0000120250911302452B31F02F3F31F481E042
:101F10009F3F19F403C081E001C080E080FD47C00D
:101F2000F8018181821343C08081891340C02091D0
:101F30001502309116028681978128173907B9F565
:101F4000B801C6010E94A61F811128C02091140269
:101F500020FD24C0822F82958F70482F50E04115BC
:101F60005105E1F0D80115962C9315974F30510586
:101F700049F08F5F982F9295907F822F8F70892BD9
:101F800015968C93C8010E94CA0A88E0F801AFE058
:101F9000B2E001900D928A95E1F73DC088E0F8012A
:101FA000AFE0B2E001900D928A95E1F736C0C8012A
:101FB0000E94080881110CCF8091140281608093E7
:101FC0001402C8010E94CA0A28C07E2DFD8AEC8A2C
:101FD000A201662D8D890E94FE0A88E0F50111920A
:101FE0008A95E9F718C0662009F415CFC8010E9448
:101FF0000808782E882309F40ECF88E0F801AFE0B6
:10200000B2E001900D928A95E1F78FE092E00E9494
:1020100083060E940A0D0E94D80C872D65960FB684
:10202000F894DEBF0FBECDBFDF91CF911F910F910E
:10203000FF90EF90DF90CF90BF90AF909F908F90E8
:102040007F906F905F904F900895CF93DF93CDB7BF
:10205000DEB760970FB6F894DEBF0FBECDBF2987FD
:102060003A874B875C876D877E878F87988BCE01F9
:1020700009960E947E0D8823E1F099858A852C853A
:102080003D85232B31F08F3F31F481E09F3F19F4E0
:1020900003C081E001C080E080FD6FC029853A85E2
:1020A0004B855C856D857E858F8598890E940D0B9B
:1020B00064C088E0FE013996DE01119601900D9210
:1020C0008A95E1F779856A854C855D8541155105CD
:1020D00031F06F3F31F481E07F3F19F403C081E0BC
:1020E00001C080E080FD49C0A091CE01B0E0CD01EB
:1020F0000196877099272091CD0130E082179307D0
:1021000009F442C079836A835D834C8393E0AA0F0C
:10211000BB1F9A95E1F7A153BE4F98E0FE0131969F
:1021200001900D929A95E1F78093CE010E94B70C31
:1021300024C028E0829FC001112481539E4F0E9439
:102140007E0D882371F1E091CD0188E0E89FF001D8
:102150001124E153FE4F20813181428153816481FA
:102160007581868197810E940D0B8091CD0190E051
:102170000196877099278093CD018091CD01909130
:10218000CE018913D6CF0DC00E94E0071092CE0178
:102190001092CD01EFE0F2E088E0DF011D928A9518
:1021A000E9F760960FB6F894DEBF0FBECDBFDF91A2
:1021B000CF91089580911C0208958091CF03909152
:1021C000D003892B89F00E94752B20911A0230913F
:1021D0001B02AC01421B530B81E02091CF033091D5
:1021E000D0034217530708F480E08170089580916E
:1021F00019028595859585950895809119028770B6
:1022000008950E94752B2091170230911802821BAD
:10221000930B2091CF033091D0038217930740F0A6
:102220008091190282FB882780F991E0892701C0FB
:1022300080E08170089590911902977081E009F40F
:1022400080E0089580914002089590914002892B8A
:102250008093400208958095909140028923809355
:102260004002089510924002089590913F02892BF8
:1022700080933F020895809590913F028923809337
:102280003F02089510923F02089590913E02892BDB
:1022900080933E020895809590913E028923809319
:1022A0003E02089510923E02089580911D02089505
:1022B00008950C9458110C945911CF9390916A037E
:1022C00092FD11C090911D02981769F0C82F0E94CD
:1022D000752B90931B0280931A02C0931D028C2FC2
:1022E000CF910C945B11CF91089580911D028823AA
:1022F00049F010921D0210921B0210921A0280E007
:102300000C945B110895E0910001F091010180911E
:1023100040028083E0910001F09101019081809161
:102320003F02892B8083E0910001F09101019081AF
:1023300080913E02892B808380911D028823E9F0E1
:102340008091CF039091D003892B29F00E94DD105A
:1023500081110E947511E0910001F09101019081BD
:1023600080911D02892B8083809100019091010151
:102370000E94232A81110E94751180910001909181
:1023800001010C94DD290C9458110C94C311909107
:102390001C02981721F080931C020C94C51108951B
:1023A00080911C02882329F010921C0280E00C947A
:1023B000C51108950C94581190916A0392FD16C0AE
:1023C00098E0899F90011124262B209319020E94E6
:1023D000500B0E94752B90931802809317028091E6
:1023E00019028595859585950C94DA110C94500BFE
:1023F00010921902109218021092170280E00C94A9
:10240000DA11209119028095822380931902982F66
:10241000977099F430E0482F082E000C550B2417C4
:10242000350759F090916A0392FD07C0859585950F
:1024300085950E945B0B0C94F811089590916A03A6
:1024400092FB222720F9281769F080FB92F99093DC
:102450006A038091690390916A030E946C1282E082
:102460000C940112089580916A0382FB882780F9F9
:1024700091E089270C941E1281E00C941E1280E0DA
:102480000C941E126FEF7FEF80E090E00C94F93314
:1024900080E090E00E94D5338A3E9E4F11F40C9468
:1024A000AF1780E0089582E090E00C94CD3383E094
:1024B00090E00C94CD33CF9384E090E00E94CD3334
:1024C000C82F82E290E00E94CD332C2F30E0A9018A
:1024D000582BCA01CF910895CF93C92F682F84E05C
:1024E00090E00E94DB336C2F82E290E0CF910C945D
:1024F000DB33AB01BC018FE090E00C94ED33AB011A
:10250000BC0183E190E00C94ED3360E070E0CB011E
:102510000C947F1260E070E0CB010E9479120C9461
:1025200085126AEE7EEF80E090E00E94F93360E071
:1025300082E090E00E94DB3360E083E090E00E9464
:10254000DB331092CC0160E084E090E00E94DB334A
:1025500060E082E290E00E94DB3360E085E090E0A2
:102560000E94DB3360E086E090E00E94DB336FEF97
:1025700087E090E00E94DB3340E050E0BA0188E061
:1025800090E00E94ED3360E08DE090E00E94DB334C
:1025900040E050E0BA0188E190E00E94ED3360E055
:1025A00087E190E00E94DB3340E050E0BA018CE12B
:1025B00090E00E94ED3360E070E080E290E00E94E5
:1025C000F93340E050E0BA0188E190E00E94ED3339
:1025D00080E00E94C8170E94F4170C948A120C9491
:1025E0009112682F8EE090E00C94DB330E94812BD7
:1025F0006093520270935302809354029093550259
:1026000060934E0270934F02809350029093510258
:1026100008950E94812B609352027093530280931D
:1026200054029093550260934A0270934B02809338
:102630004C0290934D02089585B7806885BF85B799
:10264000806885BF089581E008950C942313089550
:102650000C9427130C9427130C942A130C9427130F
:102660000C942E130C9427130E941C1386E096E101
:102670000E94C7290E940C1A0E94C51E0E94321394
:102680000C9430130E9428130C9427130E946C2B77
:102690000E9403180E94FB160E9488270C942C139A
:1026A0006F927F928F929F92AF92BF92CF92DF9262
:1026B000EF92FF920F931F93CF93DF93CDB7DEB7C7
:1026C0002A970FB6F894DEBF0FBECDBF0E94101739
:1026D00081110E94F61232E4832E32E0932E00E044
:1026E00010E0C02E802F0E943A165C01F401619028
:1026F00071904F016826792661147104B1F40F5F5F
:102700001F4F0430110569F78FEF89838A831B827D
:102710000E94752B8160782F9D838C8349815A811B
:102720006B818D810E9402063AC08091560281FD24
:102730000E944316D12CEE24E394F12CC3018E2188
:102740009F21892B29F10E9425138823A9F0DE827D
:10275000CF82AE20BF2081E0AB2809F480E08887DB
:102760000E94752B8160782F9A8789874E815F81BF
:1027700068858A850E940206000F111FF801EE5B32
:10278000FD4F80819181E826F926F182E08207C021
:10279000D394EE0CFF1CFCE0DF12D0CFB0CF0E9430
:1027A000EC2781110E9409130E94D12990914102C6
:1027B0008917D1F00E94D129809341022A960FB641
:1027C000F894DEBF0FBECDBFDF91CF911F910F9167
:1027D000FF90EF90DF90CF90BF90AF909F908F9041
:1027E0007F906F900C94EE052A960FB6F894DEBF9A
:1027F0000FBECDBFDF91CF911F910F91FF90EF9052
:10280000DF90CF90BF90AF909F908F907F906F9010
:10281000089580E090E008950895880F991FFC01C5
:10282000E85BFC4F859194910895CF93DF930E94CC
:102830002F15EC01811520E5920708F041C08115A4
:1028400040E4940708F0CBC0803E910520F5803C21
:10285000910508F0B8C0883A910570F4853A910561
:1028600008F0A8C08130910509F4A1C008F4EBC0BC
:10287000049708F0EBC0E7C08F3B910508F0E3C078
:10288000885AC82FD0E0CC0FDD1FC05BDE4F888197
:1028900099819464DCC0811550E2950750F4C1150C
:1028A00081E0D80708F0D2C0C83ED10508F4CEC0F8
:1028B000CAC0811520E3920708F08AC09F7085C0C6
:1028C000811545E5940708F046C0811554E5950744
:1028D00008F09DC0C11582E5D80718F5C11521E59E
:1028E000D20708F07FC0CE01F4E096958795FA955F
:1028F000E1F7282F23703C2F337081E090E002C075
:10290000880F991F3A95E2F79C68922B2C2F2F7015
:102910002695269540E2249F90011124822B932B2B
:1029200096C09E01237033279C2F96959695C115CE
:10293000D34508F05CC041E050E002C0440F551F91
:102940002A95E2F780E2989F90011124CA01822B18
:10295000932B9C687CC0811559E5950798F4C115A7
:1029600088E5D80708F058C0C11526E5D20708F059
:102970006AC08C2F0E94C3158F7190E0982F882712
:10298000906265C081154AE5940708F44AC09056E4
:102990008115904208F057C08D2F8F710E94C3158A
:1029A0009E01332730628F71A901582B4AC081E004
:1029B00090E04DC0855AC82FD0E0C258DE4F8881C4
:1029C00090E0906444C0805C91090E940D143FC067
:1029D0009927D3FF02C0986C3AC0906C38C09F70A2
:1029E000906A35C09C2F8827816F906A30C041E083
:1029F00050E002C0440F551F2A95E2F780E2989FED
:102A000090011124CA01822B932B9A6820C0982F21
:102A10008827846F906A1BC09C2F8827806F906ADC
:102A200016C08F700E94C3159E0194E036952795BD
:102A30009A95E1F72F7030E0322F22273069A901F3
:102A4000482BCA0104C080E090E001C0CE01DF91B4
:102A5000CF9108950E94901D0E9415140895823808
:102A6000910569F1B0F48133910509F46DC048F422
:102A70008932910509F463C08A32910509F469C06D
:102A800008958533910509F455C089339105B9F04E
:102A90000895833E910569F138F4803E9105B1F0C7
:102AA000823E910509F10895863E9105A9F1873E80
:102AB0009105B9F1843E910509F064C023C02091CD
:102AC000690320FD4FC021FD4DC008958091690329
:102AD00080FD44C080916A0380FF44C080916903F7
:102AE00084FD42C083EE4DC08091690382FF38C0EF
:102AF000F5CF8091690382FD33C080916A0380FD28
:102B000031C0ECCF80916A0381FF32C080916903AC
:102B100084FD2AC087EE35C08091690383FF26C0FB
:102B2000F5CF8091690383FD21C080916A0381FD07
:102B30001FC0ECCF8091690385FD1CC01DC0809132
:102B4000690385FD19C016C08091690386FD16C012
:102B500017C08091690386FD13C010C089E311C0BE
:102B600082EE0FC080EE0DC080E00BC086EE09C083
:102B700084EE07C089E205C085E303C08AE201C094
:102B800081E390E008959091690392FF0DC0282F92
:102B90002871283019F4877F846006C0282F24719B
:102BA000243011F48B7F886093FF0DC0282F28718B
:102BB000283119F4877E846106C0282F24712431BE
:102BC00011F48B7E886120916A0320FF0DC0382F9D
:102BD0003871383019F4877F816006C0382F317121
:102BE000313011F48E7F886021FF0DC0282F2871AD
:102BF000283119F4877E816106C0282F2171213187
:102C000011F48E7E886194FD877E089580E008959A
:102C10000C9442120E9410178FE39CE90197F1F780
:102C200000C000000E94101780E00E943A1680FF4A
:102C300004C00E9408160C94C22B08950C940A1626
:102C40000E944812811102C00E94EF120E9453128A
:102C5000809356020E945B1290936A0380936903EB
:102C60000E941E160E9457120E942C0B8091CB01CD
:102C70000C943D0BE82FF0E0EE0FFF1FED58FC4FDA
:102C8000808191810895089580EA8A95F1F70895E9
:102C900000C008950C94441608950C944C160C949E
:102CA0004D160C944C160C945116F894E82FE2959E
:102CB000EF70F0E031A1282F2F7081E090E001C08B
:102CC000880F2A95EAF7982F9095932391A392A1C4
:102CD000892B82A3789408950F931F93CF93DF934A
:102CE000CDE8D1E089918F3F11F00E94551681E027
:102CF000C139D807B9F7C1E8D1E00DE811E08991F1
:102D00008F3F11F00E9455160C171D07C1F7DF9178
:102D1000CF911F910F910895BF92CF92DF92EF92C2
:102D2000FF920F931F93CF93DF938C01C62FD0E0B8
:102D3000CE0183579E4F6C01FC0190819F3F09F4A7
:102D400050C0B62EF894E92FE295EF70F0E081A123
:102D50009F7021E030E001C0220F9A95EAF7822BA4
:102D600081A382A12095282322A378940E9448164B
:102D7000E1E8F1E04DE851E021E030E0E12CF12C18
:102D800061916F3F89F0A62FA295AF70B0E0909649
:102D90008C9190E06F7002C0959587956A95E2F7E7
:102DA00080FD02C0C90102C080E090E0E82AF92A53
:102DB000220F331F4E175F0719F7F60180818F3FEF
:102DC00011F00E94551661E0E114F10409F460E08D
:102DD0008B2D0E944A16CC0FDD1FC00FD11FF98228
:102DE000E882DF91CF911F910F91FF90EF90DF90DC
:102DF000CF90BF9008950E946C1688E0E3E7F3E05F
:102E0000DF01982F1D929A95E9F7EBE6F3E0DF01D9
:102E10001D928A95E9F784E00E945B170C947D046B
:102E2000FF920F931F93CF93DF93CDB7DEB7289711
:102E30000FB6F894DEBF0FBECDBF8E010F5F1F4FE0
:102E400088E0F80111928A95E9F7F12C6F2DC801FD
:102E50000E948C16F394F4E0FF12F8CF48E050E0A3
:102E6000B8018BE693E00E94A033FF24F39400970F
:102E700009F4F12C892B41F088E0F801ABE6B3E0CE
:102E800001900D928A95E1F72F2D44E063E773E0FE
:102E90008BE693E00E945C170E9483048F2D289696
:102EA0000FB6F894DEBF0FBECDBFDF91CF911F915B
:102EB0000F91FF9008950895FF920F931F93CF9362
:102EC000DF93F82E092F162FD72FC42F222349F076
:102ED00081E0809359020E94752B90935802809351
:102EE0005702809159028823D9F08091570290911E
:102EF00058020E948D2B059798F0EF2DF02FA12FEF
:102F0000BD2F80E090E04C2F50E08417950734F4FB
:102F1000219131912D933D930196F7CF1092590253
:102F2000DF91CF911F910F91FF9008950E94A22DE4
:102F30000E9446130C94AE2D0E94B22D0E94501395
:102F40000C94CC2D0E94FB2A0E94892D0E943413E0
:102F50000E9496170E949C170E944213FBCF83E2A7
:102F600090E00E94CD33823D81F484E290E00E94A3
:102F7000CD33883151F485E290E00E94CD3391E069
:102F8000813309F090E0892F01C080E081700895BD
:102F9000CF93C82F811102C06FEF01C062ED83E2B1
:102FA00090E00E94DB33C11102C06FEF01C068E105
:102FB00084E290E00E94DB33C11102C06FEF01C0D8
:102FC00061E385E290E0CF910C94DB33089586E2D3
:102FD00090E00E94CD33682F70E080E090E008958B
:102FE00086E290E00C94DB3380E00E94C81760E03A
:102FF00070E0CB010E94F0170E94AB1C0E94F91DEB
:1030000081E00C94C8170E94E6170E94AF17811147
:1030100002C00C94F4170895CF93FB01C281CC2316
:10302000E9F09C0122513F452031310520F48251C5
:103030000E94091E0CC08031FFE59F0751F481E01A
:103040000E94500B43E062E081E00E947404C0E003
:1030500018C081319F45A9F482E0F2CF8031EFE5BD
:103060009E0711F481E004C081319F4549F482E05C
:103070000E945B0B43E062E081E00E94740401C0A7
:10308000C1E08C2FCF9108952FEFFC01208308958C
:10309000EF92FF920F931F93CF93DF93EC01162FC4
:1030A00020919402309195028881232B61F08E3F0C
:1030B00009F0F3C08981833008F4E6C0855083307D
:1030C00008F0EBC0E1C0893009F487C0D0F4843047
:1030D00009F46DC050F48230A9F108F05BC0813072
:1030E00009F0D7C0198289E07EC0863009F472C029
:1030F00008F465C0873009F470C0883009F46DC0E9
:10310000C8C0803109F499C088F48D3009F468C0D2
:1031100030F48C3009F0BDC00E94AC1D93C08E30DD
:1031200009F463C08F3009F471C0B3C0823109F46F
:103130008BC008F485C0833109F496C08E3F09F432
:10314000A3C0A7C08981823041F0833069F081300B
:1031500009F09FC00E94812B02C00E94E7179A834A
:103160008B837C836D8399C08091020190910301D0
:10317000892B09F492C07E0100E0802F0E943A164C
:10318000F701928383830F5FF2E0EF0EF11C0430AE
:10319000A1F783C08981823009F07BC06A817B817D
:1031A0008C819D810E947C330E94F01776C04B81F8
:1031B0006A8189810E94BF1B9C838D836EC02C8194
:1031C0003D813227232732274B816A8189810E94E2
:1031D000E01B63C00E94AB1C60C08FEF88835DC0A2
:1031E0000E94AE1D99838A8358C089819A8198274D
:1031F000892798276B8170E06D31710508F04DC00B
:10320000AE014C5F5F4F0E94B11D47C0809102012B
:1032100090910301892B09F440C089819A819827F4
:10322000892798276B8170E06D317105B0F5AE018B
:103230004C5F5F4F0E94D61D30C00E94F91D2DC00B
:103240000E94AC1B898329C089819A81982789278C
:1032500098276B8170E06D317105F8F4AE014C5F19
:103260005F4F0E943E1D19C089819A819827892746
:1032700098276B8170E06D31710578F4AE014C5F79
:103280005F4F0E94621D09C0612FCE010E940E1A7D
:1032900004C0612FCE010E944418612FCE01DF913E
:1032A000CF911F910F91FF90EF900C945E2CCF92D5
:1032B000DF92EF92FF921F93CF93DF93CDB7DEB7EC
:1032C0002A970FB6F894DEBF0FBECDBF80E5EBE7BF
:1032D000F3E0DF011D928A95E9F788E3EAE5F2E081
:1032E000DF011D928A95E9F78BE7C82E83E0D82E7F
:1032F0007F0110E0F701D182C082BE016F5F7F4F76
:10330000812F0E94811C892B79F488E0FE0131967F
:10331000D60101900D928A95E1F789859A85D701AA
:1033200013969C938E931297BAE0CB0ED11CE7E0D4
:10333000EE0EF11C1F5F1830E9F62A960FB6F894CE
:10334000DEBF0FBECDBFDF91CF911F91FF90EF90F9
:10335000DF90CF900895CF93DF9300D000D01F92DD
:10336000CDB7DEB79093CC038093CB03811520E2D9
:10337000920748F40F900F900F900F900F90DF91ED
:10338000CF910C94C3038EEF89838A8381E08B8372
:103390000E94752B8160782F9D838C8349815A818F
:1033A0006B818D810E9402060F900F900F900F90FD
:1033B0000F90DF91CF910895CF93DF9300D000D08D
:1033C0001F92CDB7DEB79093CC038093CB038115CA
:1033D00020E2920748F40F900F900F900F900F90FB
:1033E000DF91CF910C94DC038EEF89838A831B825B
:1033F0000E94752B8160782F9D838C8349815A812F
:103400006B818D810E9402060F900F900F900F909C
:103410000F90DF91CF9108950C945719CF92DF92BE
:10342000FF920F931F93CF93DF93CDB7DEB72A9709
:103430000FB6F894DEBF0FBECDBF603209F028C1D1
:10344000DC011196EC9111974E2F50E04E30510552
:1034500008F01EC18C01FA01EC58FF4F0C94763332
:1034600088E0E7E1F1E0DE01119601900D928A9586
:10347000E1F780E2F80111928A95E9F784E0D8013A
:103480008C9311961C92119712961C921297139678
:103490001C92139788E0FE013196149601900D92CC
:1034A0008A95E1F7F5C08CE7FD01808381E0818397
:1034B00012821382EDC0DC0113968C91139790E079
:1034C000982F882712962C91820F911D092E000C9F
:1034D000AA0BBB0B35E0880F991FAA1FBB1F3A959B
:1034E000D1F7AC01BD01405E5F4F6F4F7F4F481772
:1034F00059076A077B0708F4CBC08C37E1E09E07C9
:10350000A105B10508F0C4C04D37F1E05F076105C2
:10351000710520F04CE751E060E070E0481B590B6A
:10352000BC01685B7C4FC8010E949733B1C0DC01CD
:103530001296FC9012971396DC9040E06D2D8F2D23
:103540000E94091CF8019083818341E06D2D8F2D2D
:103550000E94091CD80112969C93129713968C9383
:1035600097C0FC01258136813227232732274481E9
:10357000638182810E94391C8BC040E250E06FEF72
:1035800070E00E94B63380910201D8018C93809143
:10359000940211968C937CC081E090E09093950208
:1035A0008093940282E390E090939302809392023E
:1035B0000E94752B6DC080910201FD018083809176
:1035C0009402818380919202828362C040E250E043
:1035D000BC01DC0112968D919C9113970E940E1FE5
:1035E00057C0BC016F5F7F4F4FE150E0FC0182810B
:1035F00093810E943F1F0AC0BC016C5F7F4F4CE16A
:1036000050E0FC01828193810E94651FD8018C9358
:103610003FC00E94EB1E3CC0FC018281833061F000
:10362000843009F1811134C080E21D928A95E9F756
:10363000108288E081832CC013968C919AE0F92E39
:10364000FE0131966F01DF01EF2D1D92EA95E9F73A
:10365000B6010E94811CD8018D93F60101900D9254
:10366000FA94E1F715C013968C9113979AE0FD0137
:103670003496DE01119601900D929A95E1F7BE0104
:103680006F5F7F4F0E94961CF80180830E9457193C
:103690002A960FB6F894DEBF0FBECDBFDF91CF9153
:1036A0001F910F91FF90DF90CF900895AF92BF923E
:1036B000CF92DF92EF92FF920F931F93CF93DF93FE
:1036C000B82EA62EC090CB018091CC01C82AC7E0AD
:1036D000D0E0D12CE12CF12CD701C6010C2E04C076
:1036E000B695A795979587950A94D2F780FF13C052
:1036F0004A2D6B2D8C2F0E94091C8C018130910565
:1037000051F00E94AB198FE39CE90197F1F700C0DB
:103710000000C80111C02197F8F64A2D6B2D80E0FA
:103720000E94091CEC010E94AB198FE39CE90197F0
:10373000F1F700C00000CE010E94DC1981E0DF91AA
:10374000CF911F910F91FF90EF90DF90CF90BF909E
:10375000AF90089581E0089584E0089550E0440F0B
:10376000551F28E1629F400D511D11249A0160E60A
:10377000869F200D311D1124C901879608950F934E
:103780001F93CF93DF938430A0F4643090F44C30D7
:1037900080F40E94AE1B8C010E94CD3390E0D82FA4
:1037A000CC27C80101960E94CD339E01282BC90168
:1037B00002C080E090E0DF91CF911F910F910895BA
:1037C0000F931F93CF93DF938430F0F46430E0F4D1
:1037D0004C30D0F421159CE5390731F4E091020119
:1037E000F0910301EF2B81F0E9010E94AE1B8C01E7
:1037F0006D2F0E94DB336C2FC8010196DF91CF91B2
:103800001F910F910C94DB33DF91CF911F910F919A
:1038100008950F931F93CF93DF93843018F5623090
:1038200008F54230F8F4282F34E0639FC0011124DA
:1038300038E0239F800D911D1124840F911D840F6A
:10384000911DEC01C955DE4FCE010E94CD3390E0B1
:10385000182F0027CE0101960E94CD339801282B06
:10386000C90102C080E090E0DF91CF911F910F91DC
:1038700008950F931F93CF93DF93843060F56230E8
:1038800050F5423040F521159CE5390731F4E091BF
:103890000201F0910301EF2BF1F08901C42FD0E078
:1038A000CC0FDD1F94E0699FC00DD11D112498E05D
:1038B000899FC00DD11D1124C955DE4F612FCE0146
:1038C0000E94DB33602FCE010196DF91CF911F91D3
:1038D0000F910C94DB33DF91CF911F910F910895DD
:1038E0008232910520F489539E4F0C94CD3380E0B1
:1038F00008958232910520F489539E4F0C94DB3356
:103900000895883080F49B01982F8AE0989FB00139
:10391000112467517E4F4AE050E0C9010E94BD3337
:1039200080E090E008958FEF9FEF0895883080F455
:103930009B01982F8AE0989FB001112467517E4F18
:103940004AE050E0C9010E94FF3380E090E0089512
:103950008FEF9FEF08956F927F928F929F92AF9219
:10396000BF92CF92DF92EF92FF920F931F93CF936C
:10397000DF93CDB7DEB72A970FB6F894DEBF0FBE40
:10398000CDBFA0900201B090030181E090E0909340
:10399000030180930201C12CD12C712C612CE12CEC
:1039A000F12C00E010E047018C0C9D1CF801EE0F9B
:1039B000FF1FE80DF91DE85EFE4F25913491402F61
:1039C000662D872D0E94E01B0F5F1F4F0C301105E5
:1039D00069F788E1E80EF11C639494E06912E1CF85
:1039E00021E030E040E060E0872D0E94391C21E0BA
:1039F00030E041E060E0872D0E94391C21E030E09A
:103A000040E061E0872D0E94391C21E030E041E078
:103A100061E0872D0E94391C7394E0E6CE0ED11C24
:103A2000F4E07F12BBCF0E94EB1ECE0101967C0119
:103A30008AE0F70111928A95E9F710E0B701812F2A
:103A40000E94961C1F5F1830C9F7B0920301A09224
:103A500002012A960FB6F894DEBF0FBECDBFDF91EC
:103A6000CF911F910F91FF90EF90DF90CF90BF907B
:103A7000AF909F908F907F906F900895EF92FF92FC
:103A80000F931F93CF93DF93EA017A01E60EF71E9F
:103A90008C01C8018796CE15DF0569F0003821E05A
:103AA000120720F40E94CD33888301C0188221962A
:103AB0000F5F1F4FEECFDF91CF911F910F91FF90BE
:103AC000EF900895EF92FF920F931F93CF93DF93A0
:103AD0008A01803821E09207E0F420E831E0281BD9
:103AE000390B26173707A8F07A01E60EF71EEC010E
:103AF000CE0187960E151F0561F0C038E1E0DE07A4
:103B000020F4F80160810E94DB330F5F1F4F219684
:103B1000EFCFDF91CF911F910F91FF90EF9008951C
:103B2000462F2091940230919502232B91F47E3FF1
:103B300039F46E3F71F48091CB039091CC030895DA
:103B4000843038F4743028F46C3018F4672F0C94F7
:103B5000BF1B80E090E0089580E1089587EC91E03C
:103B60000895EF92FF920F931F93CF93DF93EA0193
:103B70007A01E60EF71E8C01C801875C9D4FCE15B9
:103B8000DF0569F0073C21E0120720F40E94CD33E5
:103B9000888301C0188221960F5F1F4FEDCFDF9100
:103BA000CF911F910F91FF90EF900895EF92FF92A8
:103BB0000F931F93CF93DF93EA017A01E60EF71E6E
:103BC0008C01C801875C9D4FCE15DF0559F0073C7D
:103BD00021E0120718F468810E94DB3321960F5F01
:103BE0001F4FEFCFDF91CF911F910F91FF90EF907B
:103BF0000895CF93DF93C9E3D2E060E0CE010E9445
:103C0000DB332196C11584E0D807B9F7DF91CF9156
:103C10000895AF92BF92CF92DF92EF92FF920F93EF
:103C20001F93CF93DF9300D000D0CDB7DEB7F82E2F
:103C30002FE0281708F478C08FEF93E00E94CD336F
:103C4000811172C009E312E0FF2071F0011584E0D8
:103C5000180709F469C0C8010E94CD33811101C061
:103C6000FA940F5F1F4FF0CF19821A821B821C82B9
:103C7000CC24CA947801EFEFEE1AFE0AC8010E9424
:103C8000CD3389831A82882309F44EC0813009F02C
:103C900046C05801F2E0AF0EB11CC7010E94CD33FF
:103CA0008A83882309F440C09FEF980F933060F413
:103CB000780123E0E20EF11CC5010E94CD338B8315
:103CC00081112DC08701D6CF843011F07501FACF54
:103CD000C5010E94CD33D82E780184E0E80EF11C96
:103CE000C80103960E94CD33DD20F1F08823E1F076
:103CF000282F30E021503109C29EA001C39E500DF3
:103D000011248D2D90E00197840F951F0197D0F21B
:103D1000EFE9FFE03197F1F700C00000F7CFCE01E7
:103D200001960E94E305CECF0F900F900F900F9059
:103D3000DF91CF911F910F91FF90EF90DF90CF9087
:103D4000BF90AF9008958091CD039091CE030C94D5
:103D500085220F931F93CF93DF930DEC13E0C0E008
:103D6000D0E0CE010E94701CF80161918F0186178E
:103D700019F0CE010E94791C2196C232D10589F733
:103D8000DF91CF911F910F9108950F931F93CF93C0
:103D9000DF930DEC13E0C0E0D0E0CE010E94701C78
:103DA000F80181938F012196C232D105B1F7C0E0AD
:103DB000D0E0FE01E653FB4F85919491009711F0FE
:103DC000FC0109952896C035D10599F7DF91CF916F
:103DD0001F910F910895EDECF3E0128E138E8FEA90
:103DE00090E09183808385E0848F88E893E19383DA
:103DF000828382E390E0978B868B88EC90E0918FB2
:103E0000808F158E8AE090E0978F868F80E590E016
:103E100091A380A30E94A91E0C94C51EEF92FF924D
:103E20000F931F93CF93DF937C01EB018A016FEF18
:103E300070E0CE010E94B63324EC34E080E090E0E4
:103E4000AC014E5F5F4F0417150790F0F9016591C3
:103E50007491E616F70630F4FE01E80FF91F71833E
:103E60006083CA01285F3F4F45E02431340741F7A2
:103E7000DF91CF911F910F91FF90EF90089524EC67
:103E800034E0F901A591B4918A179B0749F0285FA6
:103E90003F4FE5E024313E07A1F78FEF9FEF0895F4
:103EA000D9011296FD018591949148175907A8F3FD
:103EB000CB01FD0145915491F901349665917491BE
:103EC0000E94AD3380E090E00895CF93DF93C4EC7F
:103ED000D4E0FE01259134918217930731F02896A2
:103EE00025E0C431D207A9F708C0CE010296FC0133
:103EF000259134914217530718F48FEF9FEF15C0A7
:103F0000FC0145915491FE013496859194910E9453
:103F1000AD330E94A91EFE013696859194910097BB
:103F200011F0FC01099580E090E0DF91CF910895B8
:103F30008091E5039091E60308958091EA038170F2
:103F400008958091EA038695817008958091EA032F
:103F500082FB882780F908958091EA0383FB8827F4
:103F600080F908958091E3039091E40308958832E5
:103F7000910550F48E319105A0F4049700F18091E1
:103F8000E8038295817012C08933910530F48D3237
:103F9000910578F48B9769F012C08436910549F049
:103FA0000EC08091E80383FB882780F991E0892780
:103FB00008958091E80382FB882780F9F7CF80E09D
:103FC00008958091E80385FB882780F90895809102
:103FD000E80386FB882780F90895CF93DF93EC01EF
:103FE000FB018281882309F426C1C330FDE5DF0788
:103FF00060F4CA3F9CE5D90768F49E0122503C4515
:104000002431310508F018C105C0C136EDE5DE07E1
:1040100009F012C10E945B1290936A0380936903B6
:10402000C031FCE5DF0709F4CAC008F041C0C83060
:104030009CE5D90709F4A4C0F0F4C430FCE5DF071F
:1040400009F48CC068F4C2309CE5D90709F482C039
:10405000C330DC4509F0E5C0809169038260DFC0B0
:10406000C630FCE5DF0709F483C008F085C0809105
:1040700069038860D4C0CC309CE5D90709F490C0AE
:1040800068F4CA30FCE5DF0709F47EC008F084C09C
:104090000E94E007809169038068C1C0CE309CE532
:1040A000D90709F481C008F086C08091690394C0E3
:1040B000CC3FFCE5DF0709F47BC038F5C4319CE553
:1040C000D90709F49AC058F4C231FCE5DF0709F4B6
:1040D0007AC008F07EC0809169038F7BA0C0CA3F80
:1040E0009CE5D907F1F108F03FC0C531DC4509F086
:1040F00098C08091690382FB222720F991E09227E2
:1041000090FB82F990FB83F98AC0C1158DE5D80731
:1041100009F467C050F480916A03CE3FECE5DE07F6
:10412000C1F108F05BC08D7F65C0C2308DE5D80756
:1041300009F471C008F46DC0C136DD4509F071C0E5
:104140008091690384FB222720F991E0922790FB5C
:1041500084F965C080916903816061C080916903C1
:1041600016C080916A0316C080916A03826042C0C3
:1041700080916903806153C08091690380624FC060
:104180008091690380644BC080916903886084607A
:1041900046C0826081602EC0809169038E7F3FC0DF
:1041A000809169038D7F3BC080916903877F37C011
:1041B00080916A0314C0809169038F7E30C0809122
:1041C00069038F7D2CC00E94E007809169038F777F
:1041D00026C080916903877F8B7F21C08D7F8E7F72
:1041E00009C080916A03982F909591708E7F892BDA
:1041F00090FB81F980936A0314C00E94E0078091CC
:10420000690387FB222720F991E0922790FB87F929
:1042100006C081E001C080E00E94F11202C08093DC
:1042200069038091690390916A030E946C120E9455
:10423000E00780E001C081E0DF91CF910895809197
:104240000401877F8093040182E00E943B118091EA
:10425000040184FF06C08F7E8093040182E00E94E7
:1042600025118091040185FF06C08F7D8093040194
:1042700080E20E9425110C948311CF93DF93EC010F
:10428000662319F082E00E943511CE019056811507
:1042900020E2920720F0905E8115904118F4CE0143
:1042A000992701C0CE01DF91CF910C94C3039C01EB
:1042B0003056211540E2340720F0305E21153041A0
:1042C00008F499270C94DC03FC01FF2724E0F69501
:1042D000E7952A95E1F79C012F703327EE0FFF1F1A
:1042E000EA56FD4F81E090E002C0880F991F2A95A1
:1042F000E2F7662329F020813181822B932B06C0BF
:1043000080959095208131818223932391838083AE
:104310000895FC0123E0F695E7952A95E1F7EE7103
:10432000FF27EA56FD4F8F70992721E030E002C049
:10433000220F331F8A95E2F7808191812823392348
:1043400081E0232B09F480E00895DF92EF92FF9241
:104350000F931F93CF93DF93EC017B01D42E890140
:104360008091040182FF80C02091BE023091BF0283
:104370002C173D0719F0209709F076C090910401A1
:104380009B7F9093040191FD11C08091C002909198
:10439000C102A701481B590B61E080910501909172
:1043A00006014817590718F460E001C061E0617028
:1043B0008091040160FB81F980930401C9010E948E
:1043C00064210E94221181FF08C080910401806154
:1043D0008093040182E00E942B110E94221185FF2C
:1043E00008C08091040180628093040180E20E94F1
:1043F0002B116091040166956170A8018091BE0245
:104400009091BF020E943D21D11005C08091EB0325
:104410009091EC0313C0B8018091BE029091BF024D
:104420000E94E11F882391F3B8018091BE02909110
:10443000BF020E94E71F8111E9CF2BC0009741F016
:10444000EFE9FFE03197F1F700C000000197F6CFE8
:104450006091040166956170A8018091BE029091FF
:10446000BF020E9457210FC0CE010E948921A801DE
:10447000682FCE010E9457218091BE029091BF0209
:10448000C817D90711F40E941F21F092C102E092CF
:10449000C002DF91CF911F910F91FF90EF90DF90BD
:1044A00008958091E80380FF1EC08091040182FF7F
:1044B0001AC00E94752B2091C0023091C102AC013C
:1044C000421B530B209105013091060142175307FF
:1044D00050F026EB32E041E0BC018091BE029091A9
:1044E000BF020C94A521089580910401982F909506
:1044F00090FB80F9809304010C941F2180910401AA
:104500008E7F809304010C941F2190930601809369
:1045100005010895CF92DF92EF92FF920F931F93C0
:10452000CF93DF932091E80320FF3AC08B01EC0189
:104530000E94752B6C01F80182818823A1F1809182
:10454000040182FF08C026EB32E040E0B60180E0C3
:1045500090E00E94A521CB31FCE5DF0759F0CC317A
:104560002CE5D20769F0CA318CE5D80759F40E94CE
:10457000742208C08091040181608093040102C00C
:104580000E947E22CE0190568115E0E29E0720F027
:10459000905E81159041A8F51092BF021092BE0264
:1045A000FF24F394EDC0C13ED10521F480910401B4
:1045B0008F7E06C0C53ED10531F4809104018F7D08
:1045C000809304011EC0CE019056811520E292070F
:1045D00020F0905E81159041A0F48091040182FB4F
:1045E000FF24F0F882FFDCCFB801CE010E94A11FAA
:1045F0008111D6CF26EB32E040E0B60180E090E0BA
:10460000B9C08091040180FFCBCFB801CE010E94D8
:10461000B71FF801F280882309F4AFC0FF2009F426
:10462000A5C00E942211F82E0E9455118F298D7F5E
:10463000B9F01092BF021092BE028091E80381FD92
:104640000FC060E0CE010E946421A80160E0CE01AD
:104650000E943D210E9455118D7F0E945D1181C0F5
:1046600088E0F801A6EBB2E001900D928A95E1F79F
:104670001092B8021092BA021092B9028091BE0252
:104680009091BF02C817D90709F04BC0B801CE01FD
:104690000E94E11F882309F444C08091040181FD38
:1046A00012C08091C0029091C1027601E81AF90A05
:1046B000B8018091BE029091BF020E94981FE81637
:1046C000F90678F50AC0B8018091BE029091BF0248
:1046D0000E94E71F8111E5CF24C00E94221181FFB3
:1046E00008C08091040180618093040182E00E94EF
:1046F0002B110E94221185FF08C080910401806265
:104700008093040180E20E942B1160910401669560
:104710006170A8018091BE029091BF020E943D216C
:1047200023C00E942211182F0E945511812B8695BB
:1047300081709091040180FB91F9909304010E9493
:1047400055118D7F0E945D11D093BF02C093BE02B0
:10475000D092C102C092C002809104018460809313
:10476000040182E00E940112F12C0AC0980140E08D
:10477000B601CE010E94A52103C0F1100DCF10CFCC
:104780008F2DDF91CF911F910F91FF90EF90DF90D0
:10479000CF90089508950F931F93CF93DF93809147
:1047A0002D03882309F457C0C091C2021CE08091F8
:1047B0002D03C81708F04BC001E00C0F0093C20294
:1047C000D0E01C9FF0011D9FF00D1124E353FD4F1D
:1047D0009081818123813481232B31F08F3F31F40B
:1047E00081E09F3F19F403C081E001C080E080FDBB
:1047F0002CC01C9FD0011D9FB00D1124A353BD4F91
:1048000016968D919C911797892B61F418968D912E
:104810009C9119978F3F2FEF920721F061E00E9442
:10482000CA230AC02081318142815381648175810C
:10483000868197810E9425101C9FF0011D9FF00D1D
:104840001124E353FD4F14821382C02FB0CF109276
:104850002D031092C202DF91CF911F910F91089505
:1048600010922F0310922E0320910801309109011C
:10487000EAE5F2E080E090E08217930741F045819D
:10488000411102C01482168201963796F5CF089521
:10489000BC014091CB028091CC02942F981729F152
:1048A000292F30E0F901EE0FFF1FED53FD4F01906E
:1048B000F081E02DE617F70799F487E0869FF00175
:1048C000879FF00D1124E65AFD4F81E084839413F5
:1048D0000CC02F5F3F4F237033272093CB020895E6
:1048E0002F5F3F4F922F9370D9CF08956F927F9291
:1048F0009F92AF92BF92CF92DF92EF92FF920F936F
:104900001F93CF93DF93DB0114962C911497211101
:104910006DC0A0902D03EDECF2E020E030E0B12C72
:1049200066246394712C2A1508F051C0E284F38444
:10493000CD90DC9011976FEF7FEF912C492D50E0D7
:104940008A01000F111F0C0D1D1DE801088119813E
:104950000115110531F0E016F10609F4BA0193943E
:10496000EDCF6F3FDFEF7D0771F1E30102C0CC0FA8
:10497000DD1F6A95E2F7BC2AB30102C0660F771FFC
:104980009A94E2F7AB01415051096B2D70E0461744
:104990005707B9F412964D915C9113976CE0629FA2
:1049A000F001639FF00D1124E353FD4F57834683BD
:1049B0002EEF208321839187808721E015962C9309
:1049C00006C0148213822F5F3F4F3C96ACCFDF911D
:1049D000CF911F910F91FF90EF90DF90CF90BF90FC
:1049E000AF909F907F906F900C944824DF91CF916F
:1049F0001F910F91FF90EF90DF90CF90BF90AF90FD
:104A00009F907F906F9008951F93CF93DF93C091F5
:104A1000CB0217E08091CC02C817A1F0D0E0FE01D4
:104A2000EE0FFF1FED53FD4F80819181189FB00164
:104A3000199F700D1124665A7D4F0E94762421968D
:104A4000C370E8CF0E94CB23DF91CF911F910C94CC
:104A500030241F93CF93DF93DC01DC9111961C91DE
:104A6000119780E090E020E0ED2FF12FE20FF11D93
:104A7000E20FF11D4081518141155105B9F0FB0153
:104A8000C081318190E0EC2FF32FE90FF11DE90F88
:104A9000F11D0190F081E02D309731F04E175F0746
:104AA00009F481E09F5FEFCF2F5FDECF882321F0F5
:104AB000921728F0CD0104C080E090E001C0CB0146
:104AC000DF91CF911F91089580910701882341F1D3
:104AD0008091300390913103009711F10E948D2B4A
:104AE00020912E0330912F0328173907C8F4909195
:104AF000CB028091CC02981759F00E9404251092A5
:104B00002F0310922E031092310310923003089558
:104B10000E94CB2310923103109230030C94302466
:104B20000895109231031092300310920701809182
:104B3000CC028093CB020E9430240C94CB23809132
:104B4000070181110C94912581E08093070108955C
:104B50002F923F924F925F926F927F928F929F928D
:104B6000AF92BF92CF92DF92EF92FF920F931F937B
:104B7000CF93DF93CDB7DEB72C970FB6F894DEBF97
:104B80000FBECDBF4C016B01873F2CE5920741F46E
:104B9000FB0112811123B1F081E0809307019EC1D6
:104BA000883FFCE59F0739F4FB011281112351F086
:104BB0000E94912593C1893F9C4521F4FB011281FC
:104BC00011110EC00AE512E0E12CF12C1B864424E1
:104BD0004394512C9E012F5F3F4F3A87298748C04D
:104BE0000E949F257BC18416950609F0C501239478
:104BF0005C01822D90E0FC01EE0FFF1FE20FF31F1E
:104C0000408151814115510571F7FFEFAF16BF0685
:104C100009F41BC1F801648161113AC08091070158
:104C20008170F6013280332009F4ADC0882309F485
:104C3000AAC0B801C7010E94B21F3C01F8018581DA
:104C4000882349F1920102C0220F331F2A94E2F710
:104C500021503109F801868190E02817390779F150
:104C6000FB85F329FB872FEFE21AF20A095F1F4F3A
:104C70008091080190910901E816F90608F0E7C053
:104C8000F80120813181AA24AA94BA2C212CB1CF19
:104C900080E090E0C5CFC20101C0880FAA94EAF776
:104CA0009681892B868380912E0390912F03861500
:104CB000970540F670922F0360922E03C3CF809128
:104CC000300390913103009749F00E948D2B6816B4
:104CD000790620F421E0F8012483C2CF2090CB0292
:104CE0003091CC023C8780E090E0EC852E16A9F153
:104CF000A22CB12CF501EE0FFF1FED53FD4F2081CB
:104D0000318147E0429FC001439F900D1124FC0177
:104D1000E65AFD4F3F01B801CF010E9429250097B7
:104D2000A9F021E0FC0124838017910709F498CFB2
:104D30002091CB0222120AC06816790639F4950137
:104D40002F5F3F4F237033272093CB0295012F5FB6
:104D50003F4F422F4370242EC8CF8017910709F48C
:104D60007FCFA22CB12CF501EE0FFF1FED53FD4FAD
:104D7000F182E082FFEFAF1ABF0A23E0A222BB2438
:104D8000A092CC026DCFF80195812681911114C0BB
:104D9000A20102C0440F551F2A94E2F74150510965
:104DA00030E04217530709F043C0662309F441C0BD
:104DB000C7010E9448243CC0822F90E09C012150F2
:104DC0003109282339230A2C02C0959587950A9426
:104DD000E2F7232B59F580FF29C0F80182819381E6
:104DE000892BE1F0E985FA8528E011922A95E9F707
:104DF0003EEF39833A830E94752B8160582F9D8343
:104E00008C83F801828193818F83988729813A81ED
:104E10004B816D817E810E94251004C060E0C70136
:104E20000E94CA23F801158281E003C0817001C08D
:104E300080E0920101C0220FAA94EAF72095F801C0
:104E4000968129232683382E0BCF312C09CFF601EA
:104E50008281882379F1FB85FF2361F10E94752B04
:104E6000909331038093300380912D03883098F51F
:104E700091E0980F90932D0398E0F601DE011196D2
:104E800001900D929A95E1F72CE0829FC0011124C8
:104E900083539D4F28E0FE013196DC0101900D9275
:104EA0002A95E1F72FEF3FEFFC01318720879386AA
:104EB000828611C09091CB028091CC02981719F094
:104EC0000E94042508C00E94CB2310923103109247
:104ED00030030E94302411E0FB851F27812F2C9680
:104EE0000FB6F894DEBF0FBECDBFDF91CF911F91FB
:104EF0000F91FF90EF90DF90CF90BF90AF909F9079
:104F00008F907F906F905F904F903F902F9008957B
:104F1000FF920F931F93CF93DF93C6E3D3E043EA4F
:104F200051E021EA31E061E070E0F3E0C833DF07EF
:104F300009F44CC0FA010191AF01A02FA295AF7006
:104F4000B0E09196EC9191970F70CB01002E01C0CB
:104F5000880F0A94EAF7982F90959E2391969C9338
:104F6000919792969C919297892B92968C93929777
:104F7000F90111919F01E12FE295EF70F0E0F1A0AE
:104F80001F70CB01012E01C0880F0A94EAF7982FF9
:104F900090959F2191A392A1892B82A390968C91A9
:104FA00090E002C0959587950A95E2F78170E0A19F
:104FB000F0E002C0F595E7951A95E2F7E0FD02C032
:104FC00090E001C092E0892B8993AFCFDF91CF9120
:104FD0001F910F91FF9008952F923F924F925F92F1
:104FE0006F927F928F929F92AF92BF92CF92DF92F9
:104FF000EF92FF920F931F93CF93DF9386E3682E78
:1050000083E0782E93EAE92E91E0F92E01EA11E08F
:1050100024E3822E23E0922EC2E3D3E06301530106
:10502000312C212C34E0432E512CD501ED915D0122
:105030004E2F440F440FF60141936F01D7012D917C
:105040007D01E22FE295EF70F0E080A190E02F70FB
:1050500002C0959587952A95E2F781709927F80106
:1050600051918F01E52FE295EF70F0E020A130E043
:105070005F7002C0359527955A95E2F7F901E17006
:10508000FF2720FF02C0E2E0F0E0E82BF92BE42B41
:10509000D301ED933D01EF70F0E0EF56FE4F9081AC
:1050A000F4018081890F808384304CF088818F5F88
:1050B000888360E0832D0E94561B21E001C020E020
:1050C000D4018C918D3F44F488818150888361E0C4
:1050D000832D0E94561B21E0F4018081082E000CD4
:1050E000990BB2010E946233D4018D934D01222AA3
:1050F00033942196B2E03B1298CF822DDF91CF916D
:105100001F910F91FF90EF90DF90CF90BF90AF90E5
:105110009F908F907F906F905F904F903F902F90D7
:105120000895CF93DF9386319C4509F042C0EB018F
:105130000E942211982F9A7A2091E70320FF04C041
:10514000382F347409F090E021FF04C0382F3171FA
:1051500009F090E022FF04C0382F387809F090E081
:1051600023FF03C0827209F090E08A812091000140
:1051700030910101882379F081E0911101C080E034
:1051800080933803911102C069E201C065E3C9014F
:105190000E94B92A0AC080913803811102C069E2D5
:1051A00001C065E3C9010E94C42A0E94831180E006
:1051B00001C081E0DF91CF910895AF92BF92CF926D
:1051C000DF92EF92FF920F931F93CF93DF937C01B7
:1051D0005B01C42FD22FFC0182818823F9F0409318
:1051E0003B030E94752B90933A038093390380E22E
:1051F0008C0F883008F06EC0C77081E001C0880F46
:10520000CA95EAF7DF91CF911F910F91FF90EF9030
:10521000DF90CF90BF90AF900C94AE0780913B038E
:10522000481335C08091390390913A030E948D2B29
:105230006C01B701C5010E94981FC816D90638F540
:1052400010E21D0FCD17B9F080E28C0F883040F4CA
:10525000C77081E001C0880FCA95EAF70E94B507C0
:10526000183058F581E09D2F977001C0880F9A95EE
:10527000EAF70E94AE07802F0E94A107183050F570
:10528000D77081E001C0880FDA95EAF70AC080E2A2
:105290008C0F8830F8F4C77081E001C0880FCA9580
:1052A000EAF7DF91CF911F910F91FF90EF90DF9080
:1052B000CF90BF90AF900C94B507802FDF91CF9126
:1052C0001F910F91FF90EF90DF90CF90BF90AF9024
:1052D0000C94A107DF91CF911F910F91FF90EF9058
:1052E000DF90CF90BF90AF9008950F939C01CB01BA
:1052F000233F4CE5340731F188F4283DFCE53F07B6
:10530000D9F0293D4CE5340779F1273D3C45A9F515
:1053100006E221EE41EE67ED7CE52BC0253FFCE582
:105320003F07E1F0A8F0263F3C4539F507E225EEBE
:1053300046EE66EF7CE51DC007E225EE45EE68ED22
:105340007CE517C006E221EE40EE63EF7CE511C07C
:1053500007E225EE44EE64EF7CE50BC006E221EEA9
:1053600042EE65EF7CE505C008E221E045EE69ED1F
:105370007CE50E94DD2880E008C0FC018281882352
:1053800019F010923B0301C081E00F9108959093B2
:10539000B5018093B4010895909341038093400335
:1053A0000895E0914003F0914103309721F001907E
:1053B000F081E02D099480E00895E0914003F091A0
:1053C0004103309799F020911601222359F0209142
:1053D000690327FF07C0DC012C9111962C931197CC
:1053E00026E02C930280F381E02D0994089520910A
:1053F0003E0330913F032817390771F090933F0324
:1054000080933E03E0914003F0914103309721F0F7
:105410000680F781E02D0994089520913C03309196
:105420003D032817390771F090933D0380933C03A7
:10543000E0914003F0914103309721F00084F18521
:10544000E02D09940895FC0132968091160188237D
:1054500031F08091690387FF02C09EE101C096E0B0
:1054600080E0915028F021912223D9F38F5FF9CF6A
:105470000895662351F1209116012223E9F020912D
:10548000690327FF19C0462F4695469546954E312C
:10549000E0F4677021E030E002C0220F331F6A950C
:1054A000E2F7FC01E40FF11D828190E0282339230B
:1054B00081E0232B69F409C0FC0132960896219102
:1054C000621729F0E817F907D1F780E0089581E025
:1054D00008959C01FC0132969FEF80E041914617B0
:1054E00089F09F3F19F4411101C0982F8F5F8630DA
:1054F000A9F79F3F39F0F901E90FF11D97FDFA95E2
:105500006283089508959C012A5F3F4FFC01428108
:10551000461301C01282019682179307B9F70895C6
:10552000262F2695269526952E3168F4FC01E20F4C
:10553000F11D677021E030E001C0220F6A95EAF7A3
:105540008281282B22830895262F2695269526953D
:105550002E3170F4FC01E20FF11D677021E030E0A4
:1055600001C0220F6A95EAF72095828128232283C1
:10557000089520911601222329F02091690327FD27
:105580000C94902A0C94692A20911601222329F068
:105590002091690327FD0C94A42A0C94832A20915E
:1055A0001601FC013296222331F08091690387FFB6
:1055B00002C08EE101C086E0DF011D928A95E9F705
:1055C000089508950C94E12A83E0809342030C949B
:1055D000E22A811102C081E001C082E0809342038F
:1055E0000C94E22A0C94E92A81E0809342030C9403
:1055F000E22A0C94F42A08958091F703843031F163
:105600000E9489041092430320E488E190E00FB6E1
:10561000F894A895809360000FBE2093600083B734
:10562000817F846083BF83B7816083BF78948895CE
:1056300083B78E7F83BF0FB6F894A89580916000E2
:10564000886180936000109260000FBE08950895F5
:105650000C94272BCF930E94282B0E9410170E9496
:10566000272BC0E08C2F0E943A16892B29F4CF5F9C
:10567000C430C1F780E001C081E0CF9108950E945D
:10568000E0070C940E051F920F920FB60F92112493
:105690008F939F93AF93BF9380914303811113C066
:1056A0008091EF039091F003A091F103B091F20388
:1056B0004196A11DB11D8093EF039093F003A09339
:1056C000F103B093F203BF91AF919F918F910F902F
:1056D0000FBE0F901F90189582E084BD93E095BD9A
:1056E0009AEF97BD80936E0008952FB7F89480913C
:1056F000EF039091F003A091F103B091F2032FBF5B
:1057000008952FB7F8946091EF037091F0038091A2
:10571000F1039091F2032FBF08959C014FB7F894C5
:105720008091EF039091F003A091F103B091F20307
:105730004FBF821B930B089578941F920F920FB660
:105740000F9211248F939F93AF93BF938091EF0398
:105750009091F003A091F103B091F2030196A11D85
:10576000B11D8093EF039093F003A093F103B093E6
:10577000F203BF91AF919F918F910F900FBE0F9049
:105780001F90189581E08093E00080E28093D8001C
:105790001092C9008FE19EE40197F1F700C000006C
:1057A00087E090EBDC018093000490930104A093C8
:1057B0000204B09303049CE088E10FB6F894A89526
:1057C000809360000FBE90936000FFCF80916703CD
:1057D00008950895CF93DF9320911601222339F085
:1057E0002091690327FF03C060E224E002C068E063
:1057F00021E02093E9002FEF3091E800215035FDA2
:1058000006C035ED3A95F1F700002111F5CF209152
:10581000E80025FF1DC0EC0180911601811105C033
:1058200040E050E068E070E003C070E040E050E02D
:10583000CE010E94792E8091E8008E778093E80057
:1058400080E2FE01A7E4B3E001900D928A95E1F7B2
:10585000DF91CF9108958093440370934603609342
:1058600045038091F7038430F9F48093E9008FEFCA
:105870009091E800815095FD06C095ED9A95F1F75D
:1058800000008111F5CF8091E80085FF0DC040E058
:1058900050E063E070E084E493E00E94792E809110
:1058A000E8008E778093E8000895BC0184E00C94B2
:1058B0002B2CBC0183E00C942B2C0895CF936032E9
:1058C00019F52091F7032430F9F4C091E900CF7065
:1058D0003091EC00232F217030FD20E8C22B22E014
:1058E0002093E9002091E80020FF0BC040E050E049
:1058F00060E270E00E94792E8091E8008E778093BC
:10590000E800CF70C093E900CF9108958091F6032D
:10591000811109C00E9455300E94B2308091E2008E
:1059200084608093E20008951092F60308950C9429
:10593000F92A6091F30381E0611101C080E00C94C9
:10594000E42A9091F70381E0943009F080E06091BF
:10595000F3030C94E92A42E061EC81E00E94CE2F2F
:1059600042E261EC84E00E94CE2F42E261EC82E0F0
:105970000E94CE2F42E260EC83E00E94CE2F9091F5
:10598000F70381E0943009F080E06091F3030C9418
:10599000F22A8091F903833009F463C030F4813036
:1059A00071F0823009F49CC008958A3009F488C0EF
:1059B0008B3009F46EC0893009F0AAC020C08091F4
:1059C000F803813A09F0A4C08091E800877F8093B2
:1059D000E8008091FC039091FD03892B21F460E2A3
:1059E00087E493E003C060E080E090E070E00E9414
:1059F0000F2F8091E8008B778093E80008958091C5
:105A0000F803813209F084C08091FC039091FD037A
:105A1000009719F0029709F07BC08091E800877F1A
:105A20008093E8008091E80082FD05C08091F70333
:105A30008111F8CF6DC02091F3008091F20090E0C9
:105A4000922B029731F48091F100813011F0863071
:105A500021F48091F100809367038091E8008B77B7
:105A600053C08091F803813A09F052C08091FC0341
:105A70009091FD03892B09F04BC08091E800877F4E
:105A80008093E8008091E80080FFFCCF80911601B0
:105A900036C08091F8038132D9F58091FC03909152
:105AA000FD03892BA9F58091E800877F8093E800AA
:105AB0000E9403308091FA03809316010C94E00752
:105AC0008091F803813221F58091E800877F8093EF
:105AD000E8000E9403308091FB03809368030895DF
